:020000040800F2
:10000000B0570020C1020008BD0900088D07000894
:10001000B90900084B050008C10F000800000000E6
:10002000000000000000000000000000050F0008B4
:100030008906000800000000070A0008070F0008F2
:10004000DB020008DB020008DB020008DB0200081C
:10005000DB020008DB020008DB020008DB0200080C
:10006000DB020008DB020008DB020008DB020008FC
:10007000DB020008DB020008DB020008DB020008EC
:10008000DB020008DB020008DB020008DB020008DC
:10009000DB020008DB020008DB020008DB020008CC
:1000A000DB020008DB020008DB020008DB020008BC
:1000B000DB020008DB020008DB020008DB020008AC
:1000C000DB020008DB020008DB020008DB0200089C
:1000D000DB020008DB020008DB020008DB0200088C
:1000E000DB020008DB020008DB0200080000000061
:1000F000DB020008DB020008000000000000000036
:10010000000000000000000000000000DB0200080A
:10011000DB020008DB020008DB020008DB0200084B
:10012000DB020008DB020008DB020008DB0200083B
:10013000DB020008000000000000000000000000DA
:10014000000000000000000000000000DB020008CA
:10015000DB020008DB02000800000000DB020008F0
:10016000DB020008DB020008DB020008DB020008FB
:10017000DB020008FF09000800000000000000008A
:1001800000000000DB020008DB020008DB020008C0
:1001900000000000DB02000800000000000000007A
:1001A000000000000000000000000000000000004F
:1001B000DB02000800000000DB0200080000000075
:1001C000000000000000000000000000000000002F
:1001D000000000000000000000000000DB0200083A
:1001E00000F002F800F05CF80AA090E8000C8244ED
:1001F0008344AAF10107DA4501D100F051F8AFF2CA
:10020000090EBAE80F0013F0010F18BFFB1A43F0F4
:1002100001031847A0480000C04800000A444FF0FE
:10022000000C10F8013B13F0070408BF10F8014B55
:100230001D1108BF10F8015B641E05D010F8016B9A
:10024000641E01F8016BF9D113F0080F1EBF10F8FE
:10025000014BAD1C0C1B09D16D1E58BF01F801CB21
:10026000FAD505E014F8016B01F8016B6D1EF9D5A4
:100270009142D6D3704700000023002400250026B9
:10028000103A28BF78C1FBD8520728BF30C148BFF9
:100290000B6070471FB504F0CFFB1FBD10B510BD3C
:1002A00000F01AF91146FFF7F5FF01F051FD00F0DB
:1002B00038F903B4FFF7F2FF03BC00F03FF9000088
:1002C0000948804709480047FEE7FEE7FEE7FEE7EA
:1002D000FEE7FEE7FEE7FEE7FEE7FEE70448054926
:1002E000054A064B70470000110F0008E1010008A5
:1002F000B0150020B0570020B0170020B017002024
:1003000053EA020C00F069802DE9F04B4FF0000633
:10031000002B1FBFB3FA83F503FA05F424FA05F6A0
:100320005E4012BF1643B2FA82F502FA05F4C5F137
:1003300020051EBF22FA05FC44EA0C04203556EACB
:10034000044C4FEA144418BF641C4FF000084FF0EF
:100350000009904271EB030C39D3002919BFB1FA9F
:1003600081F701FA07F6B0FA80F700FA07F6C7F14D
:1003700020071EBF20FA07FC46EA0C062037B6FB12
:10038000F4FCA7EB0507103F07F01F0BCBF120068D
:100390000CFA0BFB2CFA06F644BFB3460026202FBE
:1003A000A4BF5E464FF0000B5BEA060C08BF4FF09F
:1003B000010B19EB0B09ABFB027C48EB0608C01BD9
:1003C00006FB02CC0BFB03CC71EB0C01C1E70B4627
:1003D000024641464846BDE8F08B13B54FF0000099
:1003E0004FF00001AFF30080BDE81C40704740EAC9
:1003F000010370B59B072ED14FF00136042A2AD392
:1004000008C810C99D1B9D43121F15EAC61517D0B9
:10041000D8B2E1B2401A50EA056110D198B2A1B247
:10042000401A50EA05410AD123F07F4024F07F4171
:10043000401A50EA052102D1180EA0EB146070BDDD
:10044000A342DBD018BA21BA884201D9012070BD7D
:100450004FF0FF3070BD0AB9002070BD10F8013BAD
:1004600011F8014B63B1A3420AD1521E08D010F813
:10047000013B11F8014B1BB1A34201D1521EEDD13A
:10048000181B70BD4FF0000200B513469446964607
:10049000203922BFA0E80C50A0E80C50B1F1200197
:1004A000BFF4F7AF090728BFA0E80C5048BF0CC045
:1004B0005DF804EB890028BF40F8042B08BF7047A3
:1004C00048BF20F8022B11F0804F18BF00F8012B15
:1004D0007047704770477047754600F02BF8AE467E
:1004E00005006946534620F00700854618B020B540
:1004F000FFF7F4FEBDE820404FF000064FF0000784
:100500004FF000084FF0000B21F00701AC46ACE8BB
:10051000C009ACE8C009ACE8C009ACE8C0098D4628
:10052000704710B50446AFF300802046BDE8104088
:10053000FFF7BFBE004870474C1500200149182046
:10054000ABBEFEE726000200704700BFFEE70000DA
:1005500070B50024002543480078012806D01028F3
:100560000BD013284FD0162875D16DE03E4800F00F
:1005700029FD00203B49087071E004223B493C48BA
:10058000FFF735FF70B9002406E0284601F0EEF9C8
:1005900005F58035601C84B2402CF6DB002035491F
:1005A000086028E0042231493348FFF720FF70B982
:1005B000002406E0284601F0D9F905F58035601CD5
:1005C00084B2402CF6DB00202A49086013E00422A4
:1005D00026492A48FFF70BFF68B9002406E02846A1
:1005E00001F0C4F905F58035601C84B2402CF6DBBF
:1005F00000202049086000F08DFE00F097FA0020EE
:10060000184908702BE01E4802881A4801681748EC
:1006100001F054FA17480068194909880844154937
:10062000086017480688F01706EB907081100F4895
:1006300000F05EFE1349086000F02AFA00F06AFE3E
:100640000020084908700AE000F0F0F90020054990
:10065000087004E0FFE700200249087000BF00BFF7
:1006600070BD00005600002057000020EF0700205A
:10067000160000204C00002026000020360000203C
:100680004800002050000020704700001248C07849
:10069000132812D004DC012807D0102819D108E053
:1006A00016280ED0302814D10FE001200B49087015
:1006B00010E01020094908700CE013200749087069
:1006C00008E016200549087004E03020034908704E
:1006D00000E000BF00BF7047EA070020560000207E
:1006E00070B505461F480088002838DD1E48007890
:1006F000AB2803D01DA000F065FC70BD1A488078BF
:100700001949497840EA0120002814DD164880780C
:100710001549497840EA01201349C9780144124833
:100720008078114A527840EA0220001D0E4A105C7F
:100730000844C4B209E00C4880780B49497840EA83
:1007400001200949C9780844C4B207480079A04289
:1007500003D00AA000F036FCCFE7FFF797FF00BFF9
:10076000CBE7000048000020EA070020484541444C
:100770005F4552524F525F49415000004352435F20
:100780004552524F525F49415000000000BFFEE702
:1007900010B510488089401E83B20E484089401E23
:1007A00082B20021084600F019F800F03FFC002456
:1007B00006E00848808881B2074800F06BFC641CA2
:1007C00004484089034989894843A042F1D800F090
:1007D00041FC10BD74070020003001402DE9F041BC
:1007E00004460D4616461F4600F034FC2A2000F051
:1007F0009BF81049897B214488B200F0C5F80D4967
:10080000897B314488B200F0BFF82B2000F08CF8CF
:100810000849C97B294488B200F0B6F80549C97B6C
:10082000394488B200F0B0F82C2000F07DF8BDE823
:10083000F08100007407002030B500230021002261
:1008400000F47804230A00F47C446109C0F3C40274
:1008500043EA01041443014D6C6030BD740700206D
:1008600030B500230021002200F47804230A00F4AC
:100870007C446109C0F3C40243EA01041443014DFE
:100880002C6030BD7407002010B504462548447222
:1008900084B9362000F048F8702000F083F800207A
:1008A000204988732320C8734FF4A0704881AA2080
:1008B000888136E0022C10D1362000F035F8002077
:1008C00000F070F82320174988730020C873AA200D
:1008D00048814FF4A070888123E0012C10D136208C
:1008E00000F022F8A02000F05DF800200D49887388
:1008F0002320C8734FF4A0704881AA20888110E09B
:10090000032C0ED1362000F00FF8C02000F04AF87A
:10091000002004498873C873AA2048814FF4A0704E
:10092000888110BD7407002070B50546002400BF03
:1009300002E000BF601C84B2962CFADB082110484C
:1009400001F09AF9002402E000BF601C84B2962CEA
:10095000FADB29460B4800F08FFB002402E000BFC1
:10096000601C84B2962CFADB0821054801F086F958
:10097000002402E000BF601C84B2962CFADB70BD3C
:10098000000402400030014010B504462112044822
:1009900000F072FBE1B2024800F06EFB10BD0000F7
:1009A0000030014010B504462146024800F064FBC7
:1009B00010BD00000030014000BFFEE77047F0B5F9
:1009C00003460C4603F00701C1F10700042801D9D2
:1009D000042001E0C1F107000646081D072801D2E6
:1009E000002000E0C81E05460120B040401E204007
:1009F000A8400127AF407F1E17403843F0BD10B517
:100A000003F0ECFD10BD704710B5064803F0F7FF8A
:100A10000449054801F027FB0121034801F0E5FAEC
:100A200010BD00009C070020001000A000B591B090
:100A3000402101A8FFF726FDAB208DF8040000201F
:100A40008DF8050002208DF8060016208DF80700AD
:100A50009DF806009DF8051040EA01209DF807105A
:100A600001449DF806009DF8052040EA0220C0B22E
:100A7000001D01AA105C0844C0B28DF808000020D7
:100A80008DF8090001A800F09DFA11B000BD00002A
:100A900000B591B0402101A8FFF7F4FCAB208DF820
:100AA000040000208DF8050006208DF806001320B4
:100AB0008DF807001B48008800128DF80D001948BA
:100AC00000788DF80E0018480068000E8DF80900B7
:100AD00015480068000C8DF80A0013480088000AC9
:100AE0008DF80B00104800788DF80C009DF806007A
:100AF0009DF8051040EA01209DF8071001449DF87B
:100B000006009DF8052040EA0220001D01AA105CA5
:100B10000844C0B28DF8080001A800F053FA11B0E3
:100B200000BD0000480000205000002000B591B03A
:100B3000402101A8FFF7A6FCAB208DF8040000209F
:100B40008DF8050001208DF8060010208DF80700B3
:100B50009DF806009DF8051040EA01209DF8071059
:100B600001449DF806009DF8052040EA0220C0B22D
:100B7000001D01AA105C0844C0B28DF808000120D5
:100B80008DF8090001A800F01DFA11B000BD0000A9
:100B900010B54FF48071D84801F070F84FF400415F
:100BA000D64801F06BF80A2003F042FC4FF40041F4
:100BB000D24801F061F8642003F03AFC4FF40041A0
:100BC000CE4801F05BF8782003F032FCFD20FFF7FF
:100BD000ABFE0620FFF7E6FE0820FFF7E3FE6120EC
:100BE000FFF7A2FE0720FFF7DDFE0720FFF7DAFE82
:100BF0007320FFF799FE7020FFF7D4FE7320FFF7F4
:100C000093FE0020FFF7CEFE6220FFF78DFE00204E
:100C1000FFF7C8FE4420FFF7C5FE4020FFF7C2FEE5
:100C20006320FFF781FE4120FFF7BCFE0720FFF79E
:100C3000B9FE1220FFF7B6FE1220FFF7B3FE6520C3
:100C4000FFF772FE0820FFF7ADFE1720FFF7AAFEA0
:100C50002120FFF7A7FE6620FFF766FE0820FFF7BA
:100C6000A1FE1720FFF79EFE2120FFF79BFE6720C5
:100C7000FFF75AFE2020FFF795FE4020FFF792FE77
:100C80006820FFF751FE9020FFF78CFE3020FFF721
:100C900089FE2720FFF786FE2C20FFF783FEB12078
:100CA000FFF742FE0F20FFF77DFE0220FFF77AFEDE
:100CB0000120FFF777FEB420FFF736FE0120FFF793
:100CC00071FEB520FFF730FE0220FFF76BFE022019
:100CD000FFF768FE0A20FFF765FE1420FFF762FEAB
:100CE000B620FFF721FE0420FFF75CFE0120FFF78E
:100CF00059FE9F20FFF756FE0020FFF753FE02200B
:100D0000FFF750FEDF20FFF70FFE1120FFF74AFE2E
:100D1000E220FFF709FE2320FFF744FE2220FFF721
:100D200041FE2320FFF73EFE3520FFF73BFE382033
:100D3000FFF738FE3F20FFF735FEE520FFF7F4FD13
:100D40003F20FFF72FFE3020FFF72CFE2D20FFF76E
:100D500029FE1D20FFF726FE2020FFF723FE22207C
:100D6000FFF720FEE120FFF7DFFD3020FFF71AFE3E
:100D70007820FFF717FEE420FFF7D6FD6920FFF784
:100D800011FE2F20FFF70EFEE020FFF7CDFD05201E
:100D9000FFF708FE0520FFF705FE1020FFF702FE13
:100DA0001220FFF7FFFD1120FFF7FCFD0D20FFF7DC
:100DB000F9FD0E20FFF7F6FD1720FFF7F3FDE32006
:100DC000FFF7B2FD1320FFF7EDFD1320FFF7EAFD5B
:100DD0001320FFF7E7FD0C20FFF7E4FD0F20FFF7DE
:100DE000E1FD0720FFF7DEFD0520FFF7DBFD052015
:100DF000FFF7D8FDE620FFF797FD0020FFF7D2FDB3
:100E0000FF20FFF7CFFDE720FFF78EFD0120FFF762
:100E1000C9FD0420FFF7C6FD0320FFF7C3FD032033
:100E2000FFF7C0FD0020FFF7BDFD1220FFF7BAFD60
:100E3000E820FFF779FD0020FFF7B4FD7020FFF7F1
:100E4000B1FD0020FFF7AEFDEC20FFF76DFD522055
:100E5000FFF7A8FDF120FFF767FD0120FFF7A2FDD6
:100E60000120FFF79FFD0220FFF79CFDF620FFF712
:100E70005BFD0120FFF796FD3020FFF793FD00207A
:100E8000FFF790FD0020FFF78DFDFD20FFF74CFDE3
:100E9000FA20FFF787FDFC20FFF784FD3A20FFF7DB
:100EA00043FD5520FFF77EFD3520FFF73DFD002077
:100EB000FFF778FD3620FFF737FD0020FFF772FDC2
:100EC0002120FFF731FD1120FFF72EFD782003F0E0
:100ED000AFFA2920FFF728FD0A2003F0A9FA022023
:100EE000FFF7D2FC4FF6FF70FFF7BAFC0448FFF79C
:100EF000A3FCFFF74DFC10BD0004024000000240BF
:100F0000FF808000704710B503F02EFD10BD00007B
:100F100010B52848006840F4700026490860012098
:100F200000F052FA2448006820F00100401C2249D9
:100F3000086000BF20480068C0F340000028F9D0D6
:100F40001D480830006820F003001B490831086084
:100F500000BF194808300068C0F381000028F8D1AC
:100F60004FF0804014490831086013480068134965
:100F700008401149086040F2C170091D08600E4820
:100F8000A030006800F4A0400B49A031086008467A
:100F9000006840F4702008604FF41F0006490C31CF
:100FA0000860002000F010FA4FF00060014980391D
:100FB000086010BD88ED00E000380240FFFFF2FE3F
:100FC00000BFFEE770B504460025084D00BF402273
:100FD0002146074801F052FE012800D103E0281EF7
:100FE000A5F10105F3D100BF70BD0000404B4C00DE
:100FF0004402002002480068C0F30220704700004D
:101000000CED00E010B5002804DB0A07130E054ABA
:10101000135406E00A07140E034A00F00F031B1FC7
:10102000D45410BD00E400E018ED00E010B500213C
:10103000074801F050F80648006820F4006000F509
:101040000060034908600121014801F044F810BD27
:101050000030014010B50021064801F03CF8054879
:10106000006820F40060034908600121014801F094
:1010700032F810BD0030014070B504460D4600BF87
:10108000A06800F002000028FAD02946204601F0AE
:101090002CF870BD70B504460D4600BFA06800F086
:1010A00002000028FAD02946204601F01EF870BD43
:1010B0000146012088740020C87408600748006851
:1010C0004861064882798A7602790A7642794A76B8
:1010D000034848600348886000207047980000205B
:1010E0000C0C00200C14002070B504460025264688
:1010F0008221304602F01AFA8121304602F016FAB7
:101100000121304602F012FA284670BD2DE9F04167
:101110000446002726467068456A0021304602F0E2
:101120000EFD8046287B202806D11FFA88F3297BF4
:101130002046AA6801F04AFD3846BDE8F081014624
:10114000002070470246002007290AD2DFE801F09C
:10115000090405060907080004E003E002E001E0D5
:1011600000E000BF00BF70472DE9F04104460E4685
:1011700025466868476A4FF000083146284602F065
:1011800001FC0120B8744046BDE8F0812DE9F04132
:10119000054600272E467068446A2046FFF788FF00
:1011A00096F8050380B94FF40070E061034602220F
:1011B0000121304602F032FA4FF4007302228121FD
:1011C000304602F02BFA0DE04020E061402302227D
:1011D0000121304602F022FA4023022281213046CA
:1011E00002F01CFA082303228221304602F016FA8C
:1011F00096F8050338B94FF4007301213046626850
:1012000002F039FA05E0402301213046626802F01D
:1012100032FA3846BDE8F0812DE9F04104460F4628
:101220004FF0000825466868466A3946284602F0AD
:1012300086FC30820120F0744046BDE8F0812DE943
:10124000F04106460C464FF0000837467868456A7C
:10125000207800F06000E8B120283ED1E088C0B1DD
:10126000207800F0800058B1E38861783046AA68A1
:1012700001F0ACFCE2883846A96801F0CAFF08E03A
:1012800060782873E088E881EA893846A96801F027
:10129000A2FF26E0607806280AD004DC012814D0DA
:1012A000032814D112E00A2806D00B280FD109E038
:1012B000384601F0CEFF0EE001222946384601F003
:1012C000A8FF08E06088286005E004E003E03846F5
:1012D00001F0BFFF00BF00BF03E0384601F0B9FFD7
:1012E00000BF00BF4046BDE8F081014600207047C6
:1012F00010B502460B46002100BF04E052F8210061
:10130000034C2060491C9942F8D30148006810BD85
:10131000003002400348806820F00100401C014971
:101320008860704700300240014908617047000042
:10133000003002400349896860F3C401014A9160AA
:1013400070470000003002400149486170470000CA
:10135000003002400349896860F34611014A9160F8
:1013600070470000003002400349896860F3C711EC
:10137000014A9160704700000030024000B503460A
:10138000012000F021F80548006863F307100349C5
:101390000860002000F018F800BD00000838024086
:1013A0000349096860F38C21014A1160704700000D
:1013B000083802400349096860F34F31014A11605F
:1013C0007047000008380240012807D10749096822
:1013D00021F030013031054A116005E00349096808
:1013E00021F03001014A116070470000A43802402A
:1013F00005282BD2DFE800F0030A11182100154A56
:10140000126861F30002134B1A6020E0114A12685F
:1014100061F310420F4B1A6019E00E4A126861F333
:1014200018620C4B1A6012E00A4A7032126861F3BB
:101430000002084B70331A6009E0064A74321268E1
:1014400061F30002034B74331A6000E000BF00BF79
:1014500070470000003802402DE9FF5F04464FF05E
:10146000000AD34600200390029001900025002638
:10147000814600F0D1F90090009820B101281BD0DE
:10148000022852D124E03B480068C0F3803038B1D4
:1014900038480068C0F3003010B13748206001E0E0
:1014A000364820603348001D0068C0F302492068B8
:1014B00020FA09F020603BE0314820602D48001DF3
:1014C0000068C0F3C249206820FA09F020602FE0CC
:1014D00028489C380068C0F38070029025489C38EA
:1014E0000068C0F3881A23489C38006800F00F0B8E
:1014F00020489C380068C0F303402249085C0390F0
:10150000029810B91D48019001E01D480190039810
:101510000BFB00FC0198A0FB0A7001466246002309
:101520003846FEF7EDFE206002E01448206000BF60
:1015300000BF104898380068C0F303151248465D94
:101540002068F04060600B4898380068C0F382253E
:101550000E48465D6068F040E060064898380068D4
:10156000C0F342350A48465D6068F040A060BDE8BF
:10157000FF9F0000A0380240006CDC0200127A00DD
:10158000001BB700624A0008424A0008524A00089D
:101590005A4A000810B501460020094B03EB1142DE
:1015A000D2F8002801F01F040123A3401A4001F0E3
:1015B0001F040123A3409A4200D000E0012010BD87
:1015C0000030024030B50024002500E0641C1120EA
:1015D000FFF7E0FF012802D0B4F5405FF6D31120F9
:1015E000FFF7D8FF012801D0002500E0012528469B
:1015F00030BD00000CB5034629480068C0F3024026
:1016000001902748001F0068C0F38030009004203C
:1016100000F048F800BF00BF00BF00BF00BF00BF20
:1016200000BF00BF00BF00BF00BF00BF00BF00BFC2
:1016300000BF00BF00BF00BF00BF00BF00BF00BFB2
:1016400000BF00BF00BF00BF00BF00BF00BF00BFA2
:1016500000BF00BF00BF00BF00BF00BF00BF00BF92
:1016600000BF00BF0E48001F006820F4804000F556
:1016700080400B49091F08600846006863F30C307E
:1016800008609DF800100648001F006861F38E3066
:101690000349091F08609DF8040000F003F80CBD21
:1016A000A43802400349096860F31241014A1160FD
:1016B00070470000A438024010B501290FD1104B2B
:1016C00003EB1042D2F8002800F01F040123A340CE
:1016D0001A430B4C04EB1043C3F800280EE0084BF0
:1016E00003EB1042D2F8002800F01F040123A340AE
:1016F0009A43034C04EB1043C3F8002810BD0000CC
:1017000000300240F0B504460D4616461F4614B997
:101710000120FFF76FFF0B48006864F39E700949D2
:1017200008600846006865F38E1008600846006887
:1017300066F3030008600846006867F3134008601A
:10174000F0BD0000043802400349096860F31651F7
:10175000014A1160704700000438024000B50120C2
:10176000FFF732FE2148006820F00100401C1F49AD
:10177000086000BF1D480068C0F340000028F9D091
:101780001A480830006820F0030018490831086042
:1017900000BF164808300068C0F381000028F8D167
:1017A0004FF0804011490831086010480068104926
:1017B00008400E49086040F2C170091D08600B48DE
:1017C000A030006800F4A0400849A0310860084635
:1017D000006840F4702008604FF41F0003490C318A
:1017E00008600020FFF7F0FD00BD00000038024057
:1017F000FFFFF2FE00B503460120FFF7E5FD0548B7
:10180000006863F30100034908600020FFF7DCFD76
:1018100000BD00000838024002480068C0F38100A3
:101820007047000008380240026861F3000202605D
:1018300070470000B0F1805F04D920F07041034A86
:10184000116001E0024948607047000004640240F2
:101850000060024001460022B1F1805F02D90648D3
:10186000026801E00548026802EA010008B10120AF
:1018700070470020FCE70000006402400060024066
:1018800002684BF6EF731A40026002680B891A4334
:1018900002604B7C026863F30D320260CB7B02680E
:1018A00063F38B2202608B7B026863F30922026080
:1018B0004B7B026863F3C71202600B7B026863F321
:1018C000861202600B7C026863F3451202604B894A
:1018D000426863F30F0242600A6882604A68C2602D
:1018E000704700000021026822F00102026000221D
:1018F000026042608260C260014640F2FF620A40BC
:10190000B2F5C16F0DD2CAB2083A1423B2FBF3F29A
:1019100093000F229A400D4B5B681A430B4B5A60A1
:1019200012E040F2FF620A40B2F5D16F0CD2CAB2A7
:10193000083A1423B2FBF3F293000F229A40044BAF
:101940001B681A43024B1A60704700000060024097
:1019500004640240D0F8002161F30002C0F80021C5
:101960007047026861F306020260704710B50446D2
:101970000021184800F039FB00F0C8F8A0B2241A82
:101980000020154908704870DC2088700120C8705C
:1019900008464460042008720020C8600874487437
:1019A000012088740020C87401200875094800F0DF
:1019B00078FA00BF0121074800F0AAFA0028F9D000
:1019C0000121044800F0A2FA00F036F800F099F87E
:1019D00010BD0000001000A08407002010B50446D0
:1019E0000021134800F001FB0020124908704870E4
:1019F000084684700120C870002048600872C860E2
:101A000008744874012088740020C8740120087587
:101A1000074800F046FA00BF0121054800F078FAB7
:101A20000028F9D00121024800F070FA10BD000032
:101A3000001000A08407002010B5002400211D48DC
:101A400000F0D3FA00201C49087048700520887007
:101A50000120C8700020486008720120C860002082
:101A6000087448748874C874087500BF012111484F
:101A700000F04CFA10490F4800F013FA00BF0221A1
:101A80000C4800F045FA0028F9D00A4800F000FAA6
:101A900004460121074800F039FA04F0010000284B
:101AA000E4D10121034800F031FA012002F0C0FC2A
:101AB00010BD0000001000A0840700202DE9F041B7
:101AC00007460E461446F0B2C0F58075AC4200DC05
:101AD000254612E02A463146384600F01CF8A54259
:101AE00000D10BE02F442E44601B84B2B4F5807FFC
:101AF00002DD4FF4807500E02546EBE700BFBDE84E
:101B0000F08110B50420FFF769FF10BD10B5062065
:101B1000FFF764FF10BD70B504460D461646FFF78B
:101B2000F5FFFEF771FF32462146284600F008FA1D
:101B3000FFF782FF70BD000010B5054905A002F057
:101B400027FC0A49088002484860084610BD00008A
:101B50004C1400205669727475616C20436F6D508F
:101B60006F727420436F6E66696700003802002050
:101B7000004870470802002000487047000200201B
:101B800010B5054905A002F003FC0B490880024886
:101B90004860084610BD00004C140020566972745D
:101BA00075616C20436F6D506F727420496E74655F
:101BB00072666163650000003802002000487047CB
:101BC0002002002010B5054905A002F0E1FB0649FE
:101BD000088002484860084610BD00004C140020F0
:101BE0004172746572790000380200200048704725
:101BF0001802002010B5054905A002F0C9FB0849EC
:101C0000088002484860084610BD00004C140020BF
:101C10007A796E6F6F20687562322E300000000096
:101C200038020020004870473002002010B500F054
:101C300009F8014810BD0000280200200048704744
:101C40001002002070B50A480468001D0568001DD8
:101C50000668344454B108220649204602F04AF886
:101C6000042204491031284602F044F870BD0000F7
:101C7000E8F7FF1FE601002081627047816170472D
:101C80004FF6FF71016000218171017141710121E5
:101C9000C171704770B50A4600211488A3B233E0C1
:101CA00003F001046CB304684E000325B540AC4357
:101CB000046094794D00AC4005682C43046044688E
:101CC00001258D40AC434460446815798D402C4318
:101CD000446084684E000325B540AC438460D479E9
:101CE0004D00AC4085682C438460C4684E000325D9
:101CF000B540AC43C46054794D00AC40C5682C433A
:101D0000C4605B104C1CA1B2002BC9DC70BDF0B5E7
:101D1000002300244D07ED0E02FA05F3CD105DB14E
:101D2000456A4E07F70E0F26BE40B5434562456A29
:101D300045EA030444620AE0056A4E07F70E0F26DF
:101D4000BE40B5430562056A45EA03040462F0BD7E
:101D500002F0A0FD02F04AFC02F0DAFB02F010FEF5
:101D600002F04CFE02F022FD02F068FC02F04AFB99
:101D700002F06EFB02F01EFEFEF70AFF03E002F027
:101D800029FEFEF7E5FBFAE72DE9F0470B4614467E
:101D90004FF0000C00BF2C4A1268C2F302211D460E
:101DA00026460A46C2F10709B9F1040F02D94FF0DD
:101DB000040901E0C2F10709C84602F10409B9F1BA
:101DC000070F02D24FF0000901E0A2F103094F46CC
:101DD0004FF0010909FA08F9A9F1010909EA050911
:101DE00009FA07F94FF0010A0AFA07FAAAF1010AFB
:101DF0000AEA060A49EA0A09CC460146624600296F
:101E000004DB15072E0E114D6E5407E015072F0E3B
:101E10000D4D0C3501F00F06361FAF5500BF0146C2
:101E200000290DDB00BF00BF01F01F050122AA4001
:101E30004D09AD0005F1E025C5F8002100BF00BF48
:101E400000BFBDE8F08700000CED00E000E400E01A
:101E500000BF00F00702064B19684FF6FF03194058
:101E6000044B0B4343EA0221014B196000BF70474A
:101E70000CED00E00000FA05016C21F4807101F521
:101E8000807101647047026961F312420261704718
:101E9000014691F800017047026961F30202026194
:101EA000704710B50246002300204C6814600B7A7E
:101EB0000C7C43EA0443CC7843EA04630C7843EA9D
:101EC00004735360CC6894600C7D6000CC7C40EA65
:101ED00084008C7C40EAC4004C7C40EA44104C787E
:101EE00040EA04408C7840EA0460D06010BD026A89
:101EF00061F3000202627047026A61F30D3202620E
:101F00007047026A61F309220262704741627047BA
:101F10000246002001290CD0022902D004290CD14C
:101F200003E09369C3F3400008E0936903F0010004
:101F300004E0536A03F0010000E000BF00BF7047F7
:101F400070B586B006460C4615462248FFF7CAFC17
:101F50004FF48040ADF80C00A8B2ADF80E000020A0
:101F60008DF812008DF81300019401208DF81000F7
:101F7000A6F1E040029001208DF8110002208DF8BA
:101F8000150000208DF8140001A91248FFF778FC15
:101F9000012110480838FFF7DDFC28210D48FC30EE
:101FA000FFF7DFFC01210B48FFF73EFC00BF0A48AA
:101FB000FFF750FC0028FAD00748FFF73BFC002150
:101FC0000448FFF731FC00210448FFF790FF06B0FA
:101FD00070BD00000864024002000010001000A064
:101FE000026961F304120261704710B500220369AF
:101FF000C3F300538B4200D110BD00BF836903F0CF
:102000000103002BFAD0402200E000BF131EA2F112
:102010000104A2B2F9D1036923F4002303F50023DC
:10202000036100BF0369C3F30023002BFAD14022F0
:1020300000E000BF131EA2F10104A2B2F9D10369AE
:1020400061F31453036100BF0369C3F30023002B42
:10205000FAD1012905D100BFC36BC3F3C003002B24
:10206000FAD100BFC8E730B50246002400230020A3
:10207000CC788D7844EA05244D7844EAC5240D785F
:1020800044EA05341463CB798D7943EA05234D790D
:1020900043EAC5230D7943EA05335363487B0D7B3F
:1020A00040EA0520CD7A40EAC5308D7A40EA054005
:1020B0004D7A40EA05600D7A40EAC570906330BD04
:1020C0000021017041708170C17001714171817195
:1020D0000121C1717047026861F386120260704786
:1020E000426861F3820242607047C1607047C26912
:1020F00022F40062C2610A7862B9026822F40042E6
:102100000260026822F480420260026822F4806267
:10211000026036E00A78012A0ED1026822F40042F9
:102120000260026822F480420260026822F4806247
:1021300002F58062026024E00A78022A0ED1026869
:1021400022F4004202F500420260026822F480425A
:102150000260026822F48062026012E00A78032AB8
:102160000FD1026822F4004202F5004202600268C8
:1021700022F4804202F580420260026822F480620A
:102180000260CB79026863F3492202604A78012A2F
:1021900009D1CA79012A06D1026822F4807202F5B7
:1021A0008072026003E0026822F4807202604B7861
:1021B000026863F3820202608A78072A0DDC4268B3
:1021C00022F400724260426822F4807242608B788E
:1021D000026863F3C502026020E08A780A2A0ED101
:1021E000426822F4007202F500724260426822F4F2
:1021F00080724260026822F0380202600EE042689B
:1022000022F400724260426822F4807202F5807209
:1022100042608A78036862F3C5030360CB78026882
:1022200063F3C71202600B79026863F3CB2202608A
:102230004B79026863F3410202608B79026863F3B1
:1022400000020260704700002DE9FE4F00250026C5
:10225000A946AA46AB460020029001900024FFF751
:10226000DBFA0090009820B101281ED0022855D139
:1022700028E036480068C0F3803040B13348006839
:10228000C0F3003018B132483249086002E03248E9
:10229000304908602D48001D0068C0F302442D48F5
:1022A0000068E0402B4908603CE02C482949086060
:1022B0002648001D0068C0F3C24408460068E0409C
:1022C00008602FE021489C380068C0F3807A1F48DE
:1022D0009C380068C0F388151C489C38006800F0E2
:1022E0000F061A489C380068C0F303401C4911F8D7
:1022F0000090BAF1000F02D1DFF85CB001E0DFF826
:102300005CB006FB09FCABFB05700146624600238E
:102310003846FDF7F5FF0F49086003E00E480D4908
:10232000086000BF00BF094898380068C0F3031078
:1023300002900C490298085C0190064800680199D7
:10234000C84004490860BDE8FE8F0000A038024084
:10235000006CDC020400002000127A00001BB700B1
:10236000824A0008724A0008042808D14FF0E02190
:10237000096941F004014FF0E022116107E04FF0DC
:10238000E021096921F004014FF0E022116170475A
:1023900040F60401095821F0020240F604010A50F7
:1023A0007047024682F8241340F22D3081540023F6
:1023B000801C8354801C835440234FF44A70835202
:1023C0000823401E83544FF4A073C01C835201297C
:1023D00002D10223801C8354012340F23130835404
:1023E000002340F2253083540020704710B5044686
:1023F000204602F01DF810BD40F60401095821F0F6
:102400000201891C40F60402115070474FF410611C
:102410000958CA0AD2024FF410610A5040F604016A
:10242000095821F4807240F604010A5070470146B1
:1024300001F5306002680123B3EBD27F00D1704711
:10244000002202610123026963F3DC420261026936
:102450006FF3120218320261026922F0C04202F1E7
:10246000C042026100BFEAE710B58A7812BB0A7861
:1024700000F5106303EB4212126822F400140A788C
:1024800003EB42121460CA78032A02D0CA78022AE7
:1024900032D10A7800F5106303EB4212126822F081
:1024A000805202F180520B7800F5106404EB431364
:1024B0001A6021E00A7800F5306303EB42121268DB
:1024C00022F400140A7803EB42121460CA78032A3B
:1024D00002D0CA78022A0FD10A7800F5306303EBE4
:1024E0004212126822F0805202F180520B7800F5FD
:1024F000306404EB43131A6010BD10B58A78EABB50
:1025000040F61C0212580C780123A3409A4340F66F
:102510001C031A500A7800F5106303EB421212688C
:102520000123B3EBD27F1CD10A7800F5106303EBD3
:102530004212126822F0804202F180420B7800F5CC
:10254000106404EB43131A600A78234603EB42122B
:10255000126822F0006202F100620B7804EB431370
:102560001A600A7800F5106303EB4212126822F435
:1025700000440A7803EB421214603EE0FFE740F6A5
:102580001C0213580C780122A24023EA024340F6B1
:102590001C0213500A7800F5306303EB42121268F4
:1025A0000123B3EBD27F1CD10A7800F5306303EB33
:1025B0004212126822F0804202F180420B7800F54C
:1025C000306404EB43131A600A78234603EB42128B
:1025D000126822F0006202F100620B7804EB4313F0
:1025E0001A600A7800F5306303EB4212126822F495
:1025F00000440A7803EB4212146010BD10B5014686
:10260000002000BF37E000EB400202EBC00301F105
:102610000C0202F8230000EB400202EBC00301F1C0
:102620000C0202EB83025070002300EB400202EB2D
:10263000C00401F10C0202EB8402937000EB400233
:1026400002EBC00401F10C0202EB8402936000EB88
:10265000400202EBC00401F10C0202EB8402536160
:1026600000EB400202EBC00401F10C0202EB840219
:102670009361421CD0B20828C5DB002038E000EB93
:10268000400202EBC00301F5B67202F8230000EB32
:10269000400202EBC00301F5B67202EB83025070F8
:1026A000012300EB400202EBC00401F5B67202EB1D
:1026B00084029370002300EB400202EBC00401F59A
:1026C000B67202EB8402936000EB400202EBC0049E
:1026D00001F5B67202EB8402536100EB400202EB9B
:1026E000C00401F5B67202EB84029361421CD0B2C1
:1026F0000828C4DB10BD00F5106303EB41139A609A
:10270000704730B502464FF40165AB5840F63405CA
:10271000AC5824FA01F505F0010543EAC51302F5AA
:10272000106505EB4115AD6805EA030030BD30B515
:1027300000220B788BB98B68402B00D10DE08B68A1
:10274000202B01D1012208E08B68102B01D102223D
:1027500003E08B68082B00D10322CB78012B07D133
:1027600040F604031B5843F4004440F604031C5095
:102770008B78002B61D140F61C031B580D78012487
:10278000AC40234340F61C0423500B7873B90B78FC
:1027900000F5106404EB43131B6862F30A030C7822
:1027A00000F5106505EB441423600EE00D890B78ED
:1027B00000F5106404EB43131B6865F30A030C78FF
:1027C00000F5106505EB44142360CD780B7800F517
:1027D000106404EB43131B6865F393430C7800F516
:1027E000106505EB441423600D7800F5106404EBCC
:1027F00045131B6865F399532C4600F5106505EBEE
:10280000441423600B782C4604EB43131B6823F01D
:10281000805303F180530C7805EB441423600B784C
:102820002C4604EB43131B6823F4004404F50044D6
:102830000B7805EB43131C6053E040F61C031C5857
:102840000D780123AB4044EA034440F61C031C50BE
:102850000B7873B90B7800F5306404EB43131B68F5
:1028600062F30A030C7800F5306505EB441423602D
:102870000EE00D890B7800F5306404EB43131C68FF
:1028800065F30A040B7800F5306505EB43131C6013
:10289000CD780B7800F5306404EB43131B6865F3C7
:1028A00093430C7800F5306505EB441423600B78F6
:1028B0002C4604EB43131B6823F0805404F180542E
:1028C0000B7805EB43131C600B782C4604EB431389
:1028D0001B6823F4004303F500430C7805EB441414
:1028E000236030BD00F5306303EB41139A607047FD
:1028F000024602F5306000EB4110836840F6140098
:1029000080581840704710B58A7812BB0A7800F5D5
:10291000106303EB42121268D20F4AB90A7803EB34
:102920004212126822F080440A7803EB42121460CB
:102930000A7800F5106303EB4212126822F40012C9
:1029400002F500120B7800F5106404EB43131A60D3
:1029500021E00A7800F5306303EB42121268D20FCF
:102960004AB90A7803EB4212126822F080440A78CE
:1029700003EB421214600A7800F5306303EB421255
:10298000126822F4001202F500120B7800F5306490
:1029900004EB43131A6010BD0021026922F01002FB
:1029A0001032026105E00A46491C054B9A4200D9E3
:1029B00004E00269C2F30012002AF4D100BF70479C
:1029C000400D030010B50022036961F38A1303610F
:1029D000036923F020032033036105E01346521CF2
:1029E000054CA34200D904E00369C3F34013002B54
:1029F000F4D100BF10BD0000400D0300014640F6B9
:102A000018004258001D4058104080B270470146DF
:102A100040F618004258001D40581040000C704706
:102A20004161704701464A6988691040704730B576
:102A300004464FF6FF75A06B20F4803000F580301F
:102A4000A06300BF281EA5F10105FBD1204600F0C0
:102A50000BF830BD012A03D183690B43836102E087
:102A600083698B43836170470146002205E010466D
:102A7000521C0F4B984200D903E00869C00F002890
:102A8000F5D000BF0022086920F00100401C086159
:102A900005E01046521C064B984200D904E0086934
:102AA00000F001000028F4D100BF012070470000B1
:102AB000E09304000146012901D1024870474FF01C
:102AC000A040FBE70000044049B9C26822F0005270
:102AD000C260C26822F0804202F18042C2600129D5
:102AE00009D1C26822F08042C260C26822F000525E
:102AF00002F10052C260022907D1C26822F080426E
:102B0000C260C26822F00052C2607047816821F042
:102B1000010181607047816821F00101491C8160D9
:102B20007047D0F8001E21F00101C0F8001E704768
:102B3000F0B51746DD1C4FEAE57C05EB9C7C4FEABF
:102B4000AC060C46002205E04FF480552D58256058
:102B5000241D521CB242F7D3F0BDD0F8002861F317
:102B60000A12C0F80028704741627047F0B513465A
:102B700000240022426A19B942EA0345856215E041
:102B8000856A02EB1542002407E000F5827555F8CE
:102B9000245002EB1542651CECB24D1EA542F4DC3C
:102BA00042EA034700F5827646F82570F0BDD0F87A
:102BB000001E21F00101491CC0F8001E70470146AB
:102BC00040F60800405800F001007047F0B5044698
:102BD0001D4623465E68706A202902D0212924D12F
:102BE00011E01678577846EA0726977846EA0746AE
:102BF000D77846EA076646611779077657794776A8
:102C00009779877612E0067D1670868A360A5670A6
:102C10004669360C96704669360ED670067E167179
:102C2000467E5671867E967100E000BF00BFF0BD03
:102C30002DE9F04706460F460025A946B046D8F8CC
:102C40000400446AE07C10B90020BDE8F087002051
:102C5000E074B4F81090002504E06068405D785599
:102C6000681C85B2208AA842F7DCA08B83B20121C0
:102C70004046626800F0FFFC4846E6E72DE9F04771
:102C800004460D4616464FF0010927467868D0F8ED
:102C9000248098F8120048B1002088F812003346CA
:102CA0002A468121384600F072FD01E04FF000090C
:102CB0004846BDE8F0872DE9F04780460E46D8F833
:102CC000007006EB460000EBC60108F10C0000EBBB
:102CD0008104D4E90601451A4FF00009A068A84212
:102CE00000D2A568E81C4FEA900915E0D4E9060176
:102CF000451AA068A84200D2A568E81C4FEA9009CE
:102D0000ABB2B2B23846616900F021F8606928447C
:102D10006061E0692844E06107F5106000EB46104F
:102D2000806980B2484506D9D4E90610884202D2AB
:102D3000A0690028DAD145B940F63400C059012114
:102D4000B140884340F63401C851BDE8F087F0B582
:102D5000DE1C4FEAE67C06EB9C7C4FEAAC070D4696
:102D6000002409E000F5805606EB0236D5F800C0D5
:102D7000C6F800C02D1D641CBC42F3D3F0BD70B575
:102D80000446002504F5337694F80803022802D09F
:102D9000032817D100E000BF7088012811D100205E
:102DA00084F80B03D4F8140320F00200C4F81403D1
:102DB000606804F53371826820469047204600F031
:102DC0003CFA03E0204600F044FA00BF00BF28466A
:102DD00070BD2DE9F04104460D46276805F08000DE
:102DE00050B105F07F0000EB400101EBC00104F1A0
:102DF0000C0000EB810609E005F07F0000EB4001CC
:102E000001EBC00104F5B67000EB8106314638468F
:102E1000FFF72AFB00207073BDE8F08110B504466F
:102E20002068FFF7B5FA10BD70B505460E4606F0EE
:102E30007F0000EB400101EBC00105F10C0000EB4D
:102E40008104002E54D195F8040302283FD1A168D3
:102E5000606A884211D9A168606A401A6062A168FC
:102E6000606A884201D2606A00E0A06883B20021F3
:102E70002846626900F08BFC29E0A168206A88423C
:102E800017D1A168A06A884213D3B5F80613A06AC7
:102E900088420ED20020206200231A461946284696
:102EA00000F075FC00231A463146284600F0E3FB8B
:102EB0000DE06868C06838B195F80803032803D1AD
:102EC0006868C16828468847284600F096F995F852
:102ED0001C03C8B195F81C132868D0F8040861F3E6
:102EE00006102968C1F80408002085F81C030BE0CF
:102EF0006868406940B195F80803032804D1686800
:102F0000314642692846904770BD00002DE9FF5FB9
:102F100005468A46C5F800A0564606F50064B06C22
:102F200000F0C00B012085F808030E9830B9BBF102
:102F3000000F03D0002085F8050302E0012085F88A
:102F40000503002085F80A03029868600398A860CA
:102F5000002085F81C03284600F0C6F92846FFF734
:102F60004DFB3046FFF7D2FD3046FFF760FDD5F848
:102F70001803012807D1BBF1000F04D0B06840F05E
:102F80002600B06002E00020C5F81803002130469A
:102F9000FFF79AFD1920FFF729FA2868FFF7C1FD0E
:102FA000206820F4C05020600E9838B9BBF1000FA3
:102FB00004D0206820F0030020600DE0BBF1C00FBA
:102FC00005D1206820F00300401C206004E0206848
:102FD00020F00300C01C206010213046FFF7F2FCF7
:102FE0003046FFF7D9FC4FF0FF30A0610020E061D0
:102FF00020616061002705E0002106F5827040F83D
:1030000027107F1C082FF7D3284600F057FC002715
:1030100025E006F5106000EB4718D8F80000C00F57
:1030200098B10020C8F80000D8F8000020F08040D7
:1030300000F18040C8F80000D8F8000020F00060DF
:1030400000F10060C8F8000002E00020C8F80000AD
:103050000020C8F81000FF20C8F808007F1C082FC7
:10306000D7D3002725E006F5306000EB4719D9F8E3
:103070000000C00F98B10020C9F80000D9F8000086
:1030800020F0804000F18040C9F80000D9F800002D
:1030900020F0006000F10060C9F8000002E00020AC
:1030A000C9F800000020C9F81000FF20C9F8080086
:1030B0007F1C082FD7D3206920F4807000F5807022
:1030C00020610020B0616FF0804070610A48B061FB
:1030D000D5F8180310B1BBF1000F03D1B06940F06F
:1030E0001000B0612846FFF799FE3046FFF713FD48
:1030F000002004B0BDE8F09F0C383C8070B5054658
:103100000E4606F07F0000EB400101EBC00105F523
:10311000B67000EB810426BB95F8040303282CD17C
:10312000A168606A884211D9A168606A401A606229
:10313000A168606A884201D2606A00E0A06883B238
:1031400031462846626900F096FA16E06868006920
:1031500018B16868016928468847284600F06DF86C
:103160000BE06868806940B195F80803032804D132
:103170006868314682692846904770BD70B504463C
:103180000D4604F5357104F5337001F0C7F80120E0
:1031900084F8040340F2D220005BA4F8060394F8FC
:1031A000CC0200F01F0020B1012806D002280CD16B
:1031B00007E0204600F058F80BE0204600F0B9FD8B
:1031C00007E0204600F096F803E0204600F041F8C2
:1031D00000BF00BF70BDF0B505460E46144605F5AC
:1031E000B677BC627C62032085F80403234632462E
:1031F0000021284600F03FFAF0BD10B50446052036
:1032000084F8040300231A461946204600F033FAD6
:1032100010BD2DE9F04105460E46144605F10C0798
:10322000BC627C62022085F80403234632460021FA
:10323000284600F0ACFABDE8F08110B50446042041
:1032400084F8040300231A461946204600F09FFA2A
:1032500010BD10B504460021204601F03AF8802147
:10326000204601F036F810BD70B50446002504F57F
:103270003376307800F0600038B1606804F533715F
:10328000826820469047284670BD40F2CD20005D00
:103290000A2822D2DFE800F00509210D21111521AD
:1032A000191D204600F059FC1BE02046FFF767FD82
:1032B00017E0204600F0C4FF13E0204600F025FF91
:1032C0000FE0204600F092FB0BE0204600F063FB8D
:1032D00007E0204600F048FF03E02046FFF7B9FF73
:1032E00000BF00BF2846CFE710B504462068FFF7AF
:1032F00083F810BD2DE9F04104464FF0000804F5B5
:1033000033773D79387800F0600040B1606804F5AB
:1033100033718268204690474046BDE8F081787856
:1033200020B101285DD003287DD183E094F8080303
:10333000022802D003284ED127E005F07F0018B103
:103340002946204600F0C5FF05F0800050B105F089
:103350007F0000EB400101EBC00104F10C0000EB29
:10336000810609E005F07F0000EB400101EBC001A0
:1033700004F5B67000EB810600203061022206F1F0
:1033800010012046FFF745FF29E005F0800050B10D
:1033900005F07F0000EB400101EBC00104F10C00DF
:1033A00000EB810609E005F07F0000EB400101EB36
:1033B000C00104F5B67000EB8106707B012801D1D5
:1033C000306101E000203061022206F11001204648
:1033D000FFF71FFF03E02046FFF73BFF00BF00BFE2
:1033E00058E094F80803022802D003281CD107E013
:1033F0002DB1802D03D02946204600F06AFF17E04A
:10340000788878B905F07F0048B129462046FFF753
:10341000E0FC606804F533718268204690472046DE
:10342000FFF70BFF04E031E02046FFF712FF00BF7B
:1034300000BF2FE094F80803022802D003281FD110
:103440000BE035B1802D04D02946204600F041FF25
:1034500002E02046FFF7FDFE16E0788830B92DB176
:10346000802D03D02946204600F033FF606804F524
:1034700033718268204690472046FFF7DEFE03E066
:103480002046FFF7E6FE00BF00BF03E02046FFF73F
:10349000E0FE00BF00BF40463FE710B5044620688D
:1034A000FFF78DFB012802D12068FFF780FB10BDDC
:1034B00070B50446256840F608004059C0F3410045
:1034C00048B9002084F80503E86820F4705000F53E
:1034D0001050E86008E0012084F80503E86820F453
:1034E000705000F5A050E8600021204600F01EF862
:1034F0008021204600F01AF8402300221146204681
:1035000000F08CF8402300228021204600F086F84D
:103510002846FEF77BFF012084F8080360684068B6
:1035200018B1606841682046884770BD70B5044690
:103530000D4605F0800050B105F07F0000EB400122
:1035400001EBC00104F10C0000EB810609E005F07D
:103550007F0000EB400101EBC00104F5B67000EB09
:10356000810631462068FEF7C8FF70BD2DE9F041A5
:1035700006460F4635684FF6FF7807F07F0405F5DD
:10358000106000EB441000680121B1EBD07F43D103
:1035900005F5106000EB44100068C0F3C030D8B3EC
:1035A00005F5106000EB4410006820F0006000F1A9
:1035B000006005F5106101EB4411086005F510602D
:1035C00000EB4410006820F0804000F1804005F5D9
:1035D000106101EB4411086005F5106000EB441028
:1035E000006820F0006000F1006005F5106101EB5B
:1035F0004411086000BF05F5106000EB441000683E
:10360000C0F3807020B1B8F10000A8F10108F2D138
:103610002146304600F0B6F9BDE8F0812DE9F047CB
:1036200005460E4617469846D5F8009006F08000ED
:1036300060B906F07F0000EB400101EBC00105F529
:10364000B67000EB81040120A0700BE006F07F0053
:1036500000EB400101EBC00105F10C0000EB81041F
:103660000020A070C4F80880E77021464846FFF7A4
:103670005EF8BDE8F0872DE9F04305460C46164696
:103680002F6804F07F0808EB480909EBC80905F525
:10369000B67808EB890191F8008007F5306909EBED
:1036A000481007F5006C4E618B614FF00008C1F8BF
:1036B0001C8004F07F08B8F1000F05D1002B03DD5A
:1036C000D1F80880C1F81880D1F81880B8F1000F3F
:1036D00004D004F07F08B8F1000F10D1D1F80890A1
:1036E000D0F8108069F31208C0F810804FF001097B
:1036F000D0F8108069F3DC48C0F8108018E0D1F8E9
:103700000890D1F81880C844A8F10108B8FBF9F274
:10371000D1F8088008FB02F8D0F8109068F312097D
:10372000C0F81090D0F8108062F3DC48C0F8108028
:1037300091F80380B8F1010F17D1DCF80880C8F3C5
:103740000028B8F1000F08D1D0F8008028F0005808
:1037500008F10058C0F8008007E0D0F8008028F099
:10376000805808F18058C0F80080D0F8008028F018
:10377000806808F18068C0F80080D0F8008028F0E8
:10378000004808F10048C0F80080BDE8F0832DE94A
:10379000F84F06460F4692469B46D6F8008007F043
:1037A0007F0000EB400101EBC00106F10C0000EBD3
:1037B0008104207808F5106101EB401508F50069D7
:1037C00039463046FFF7D2FEC4F814A0C4F818B04A
:1037D0000020E061A06948B90121286961F3DC405B
:1037E000286128696FF3120028612FE007F07F003D
:1037F00090B9A168A069884201D9A068A061A169B7
:10380000286961F3120028610121286961F3DC4015
:103810002861A069206219E0A168A0690844401EDF
:10382000B0FBF1F00090A169286961F312002861F2
:103830000098296960F3DC412961E078012805D10D
:10384000286920F0C04000F100502861E07801288C
:1038500011D1D9F80800C0F3002030B9286820F051
:10386000005000F10050286005E0286820F08050EA
:1038700000F180502860286820F0806000F18060AE
:103880002860286820F0004000F100402860E078BF
:1038900001280AD0A06978B1D9F834002278012132
:1038A00091400843C9F8340006E0208B83B22278A7
:1038B00040466169FFF74BFABDE8F88F70B50546E1
:1038C0002C68B4F1A04F2BD180212046FFF74CF992
:1038D000182200212046FFF749F914220121204631
:1038E000FFF744F9142202212046FFF73FF9142282
:1038F00003212046FFF73AF9142204212046FFF75E
:1039000035F9142205212046FFF730F9142206214B
:103910002046FFF72BF9142207212046FFF726F94E
:10392000174884422BD181152046FFF71DF9A215B7
:1039300000212046FFF71AF9A21501212046FFF7C2
:1039400015F9A21502212046FFF710F900220321E4
:103950002046FFF70BF9002204212046FFF706F965
:10396000002205212046FFF701F90022062120460A
:10397000FFF7FCF8002207212046FFF7F7F870BD9B
:103980000000044070B504460D4605F01F01206894
:10399000FFF718F870BD70B50446002504F53376BE
:1039A000F088012803D02046FFF753FC1CE094F870
:1039B0000803022802D0032811D109E00020C4F82E
:1039C0000C03012204F543712046FFF722FC0AE0B4
:1039D000012204F544712046FFF71BFC03E020465A
:1039E000FFF737FC00BF00BF284670BD2DE9F04748
:1039F00004460027B846002540F2CE20005B0612A0
:103A0000082E7CD2DFE806F07B0409167B7B5F6B17
:103A1000A16808688047054676E094F8050320B958
:103A2000A168886A8047054603E0A16888688047E6
:103A3000054669E040F2CE2010F80490B9F1030F7A
:103A400023D009DCB9F1000F10D0B9F1010F12D069
:103A5000B9F1020F2CD113E0B9F1040F1AD0B9F16A
:103A6000050F1CD0B9F1EE0F22D11DE0A168086945
:103A70008047054625E0A16848698047054620E063
:103A8000A1688869804705461BE0A168C86980472E
:103A9000054616E0A168486A8047054611E0A1681E
:103AA000086A804705460CE02046FFF7D2FB08E095
:103AB000606804F533718268204690473846BDE857
:103AC000F08700BF20E094F8050320B9A16848689A
:103AD0008047054602E02046FFF7BBFB14E094F860
:103AE000050340B9A168C868804705460720696892
:103AF000487003E003E02046FFF7ABFB04E02046FC
:103B0000FFF7A7FB3846DAE700BFB5B12888A0B1B8
:103B100040F2D220005B80B1298840F2D220005BC5
:103B2000814201DA288802E040F2D220005B804620
:103B3000424620466968FFF76CFB3846BFE710B580
:103B4000024601F07F0000EB400404EBC00402F5E4
:103B5000B67000EB8403D86910BD70B5044600252B
:103B600094F80803022802D0032811D100E000BF16
:103B700094F80B0328B1D4F8140340F00200C4F801
:103B80001403022204F545712046FFF742FB03E0CF
:103B90002046FFF75EFB00BF00BF284670BD10B592
:103BA00004466068006A20B160680521026A204608
:103BB000904710BD10B504466068006A20B1606887
:103BC0000621026A2046904710BD2DE9F04180464B
:103BD000D8F8006000253046FEF710FF074646E0A3
:103BE00007F00100002840D029463046FEF789FD45
:103BF000044604F0010088B140F6340080590121E8
:103C0000A940884340F634018851012229463046B4
:103C1000FEF771FDE9B24046FFF706F904F008002F
:103C200020B1082229463046FEF765FD04F0100059
:103C300020B1102229463046FEF75DFD04F0400019
:103C400020B1402229463046FEF755FD04F002001F
:103C500020B1022229463046FEF74DFD04F08000D7
:103C600018B129464046FFF726F86D1C7F08002F43
:103C7000B6D1BDE8F0812DE9F84304460D4616465D
:103C80001F46DDF820804FF000093046FEF712FF96
:103C9000206029462046FEF784FB40F22F30005D6D
:103CA00038B12068806B20F4801000F58010216806
:103CB000886340F23130005D38B12068806B20F4B9
:103CC000001000F500102168886340F22530005D87
:103CD00018B10121C4F81C1302E00021C4F81C1320
:103CE000009543463A46201D2168FFF70FF94846E4
:103CF000BDE8F88330B50B46002100BF16E00A246A
:103D0000B4EB107F05D9302404EB107403F8114094
:103D100005E0412404EB10740A3C03F81140000153
:103D200000254C00641C1D554C1CE1B29142E6DBA1
:103D300030BD70B50446002504F5337694F80803C9
:103D4000012804D0022803D0032810D101E000BFCD
:103D500000BF606804F533718268204690470546CD
:103D6000F08818B915B92046FFF767FA03E0204636
:103D7000FFF76FFA00BF00BF284670BD2DE9F04184
:103D800005462E682F1D3046FEF74CFE044670692E
:103D900000F00100002864D104F0020018B10221F3
:103DA0003046FEF73DFE04F0100010B1384600F03A
:103DB0006BF904F4802010B13846FFF706FF04F4D5
:103DC000002010B1384600F04EF804F4805038B1AD
:103DD000384600F0C8F84FF480513046FEF720FE18
:103DE00004F0080030B1384600F0ACFA0821304643
:103DF000FEF716FE04F4005038B13846FFF758FBC2
:103E00004FF400513046FEF70BFE04F4801038B139
:103E10003846FFF7C4FE4FF480113046FEF700FE2F
:103E200004F4001038B13846FFF7C4FE4FF4001117
:103E30003046FEF7F5FD04F0004038B1384600F09A
:103E4000C5FA4FF000413046FEF7EAFD04F4006089
:103E500038B1384600F080FA4FF400613046FEF782
:103E6000DFFDBDE8F0812DE9F04705462F6800240D
:103E70003846FEF7CCFD804670E008F001000028CF
:103E800069D021463846FEF733FD064606F00100AC
:103E9000E0B1012221463846FEF724FD07F53060E7
:103EA00000EB4410D0F8089064B904EB440000EB38
:103EB000C40105F5B67000EB8100806910B928686F
:103EC000FEF7B5FAE1B22846FFF718F906F0080048
:103ED00048B3082221463846FEF704FD07F5306056
:103EE00000EB4410D0F8089009F40040B0F5004F02
:103EF00005D14FF4004221463846FEF7F3FCE1B20B
:103F00002846FFF73BF995F80A0360B195F80A13C4
:103F10002868D0F8000861F30A102968C1F8000881
:103F2000002085F80A0306F0100020B11022214677
:103F30003846FEF7D7FC06F0200020B120222146AB
:103F40003846FEF7CFFC06F0020020B102222146DF
:103F50003846FEF7C7FC641C4FEA5808B8F1000F5A
:103F60008BD1BDE8F0872DE9F04107463E6806F5A4
:103F700000650024686820F0010068603846FFF79B
:103F80009DFC10213046FEF71DFD00BF42E04FF6BC
:103F9000FF7106F5106000EB4410816006F51060BB
:103FA00000EB4410006820F4001106F5106000EBEF
:103FB0004410016006F5106000EB4410006820F02A
:103FC000006000F1006006F5106101EB441108602B
:103FD0004FF6FF7106F5306000EB4410816006F586
:103FE000306000EB4410006820F4001106F53060EA
:103FF00000EB4410016006F5306000EB44100068EF
:1040000020F0006000F1006006F5306101EB441122
:104010000860641C082CBAD34FF0FF30A8614FF041
:104020000110E861686920F00100401C686168695E
:1040300020F00200801C6861686920F008000830E8
:104040006861286920F00100401C2861286920F07F
:104050000200801C2861286920F0080008302861CF
:1040600000213046FEF779FD3046FEF7E0F90120E9
:1040700087F808037868006A20B178680121026A2D
:1040800038469047BDE8F0812DE9F0470746D7F85C
:104090000080002210214046FEF7DCFCD8F82060AA
:1040A000C6F30A15C6F3434906F00F0000EB4001C2
:1040B00001EBC00107F5B67000EB8104B9F1020F06
:1040C0000ED1DDB1ABB206F00F0240466169FEF7DA
:1040D0002FFD606928446061E0692844E0610DE0DB
:1040E000B9F1060F0AD1ABB206F00F0207F5357130
:1040F0004046FEF71DFDE0692844E06101221021E1
:104100004046FEF7A7FCBDE8F0872DE9F0410446E4
:10411000002704F53375A888F8B9E888E8B9A878C5
:1041200000F07F0694F80803032803D12046FFF728
:1041300090F815E084F80A6394F80A13204600F01A
:1041400077F81EB1022084F8080302E0012084F809
:1041500008032046FFF771F802E02046FFF779F8E0
:104160003846BDE8F081000070B50446002604F52D
:104170003375A8782D490870A888002850D1E888A0
:1041800000284DD194F80803022802D0032842D118
:1041900015E02648007870B124480078C4F8100370
:1041A000032084F808036068016820468847204699
:1041B000FFF743F802E02046FFF73FF82FE01B48E7
:1041C000007870B9022084F8080318480078C4F811
:1041D000100360684168204688472046FFF72DF8A5
:1041E00018E012490978D4F8100388420FD06068AB
:1041F0004168204688470D480078C4F8100360687D
:104200000168204688472046FFF717F802E020465D
:10421000FFF713F803E02046FFF71BF800BF02E0AA
:104220002046FFF716F8304670BD00000800002059
:1042300070B504460D4629462068FEF78EFC70BD19
:1042400070B50446002604F53375688801280BD143
:1042500084F80B03606804F5337182682046904748
:104260002046FEF7EAFF32E0688802282CD1287940
:1042700050BBA8880012062818D2DFE800F0170308
:10428000070B0F13012084F81C0318E0022084F8A8
:104290001C0314E0032084F81C0310E0042084F8BD
:1042A0001C030CE0052084F81C0308E0002084F8BF
:1042B0001C0303262046FEF7CCFF304670BD00BF2E
:1042C0002046FEF7BAFF02E02046FEF7C2FF304666
:1042D000F4E72DE9F04104460D46276805F080001B
:1042E00050B105F07F0000EB400101EBC00104F18B
:1042F0000C0000EB810609E005F07F0000EB4001B7
:1043000001EBC00104F5B67000EB8106314638467A
:10431000FEF7F9FA01207073BDE8F0810A780270A7
:104320004A7842708B78CA7803EB022242800B797C
:104330004A7903EB022282808B79CA7903EB02224D
:10434000C280704710B504466068C06918B16068E3
:10435000C1692046884710BD70B50446256840F6FF
:104360000800405900F0010088B194F8080384F86F
:104370000903042084F808032046FFF78EF86068DC
:10438000006A20B160680221026A2046904770BD31
:10439000F0B50346002002241A460CE0451CA8B2E2
:1043A00012F8017B2546661CB4B24F5500272546FE
:1043B000661CB4B24F551578002DEFD1022505EBE0
:1043C0004005A8B2087003254D70F0BD70B50446D5
:1043D000256840F60400405920F0010140F6040031
:1043E00041512068FEF79DFB94F8090384F8080307
:1043F0006068006A20B160680321026A2046904725
:1044000070BD000010B54FF0FF30FCF78DFF0020AD
:10441000FCF790FF0548FCF797FF0020FCF79AFF98
:104420000020FCF7A1FFFCF775FF10BDB71DC1040C
:1044300070B5044600F092FA0546601C00B1641C99
:1044400000BF00F08BFA401BA042FAD370BD000001
:104450001CB56846FDF714FC4FF400412948FDF7F0
:104460000BFC4FF484712848FDF706FC02208DF800
:10447000070000208DF8040001208DF80600C0031D
:10448000009000208DF8050069461E48FDF702FCEB
:1044900002208DF8070000208DF8040001208DF81F
:1044A00006004FF48470009000208DF805006946E6
:1044B0001548FDF7EFFB03208DF8060041F60900D3
:1044C000009000208DF8050069460E48FDF7E2FBDC
:1044D00003208DF80600D420009000208DF8050000
:1044E00069460948FDF7D6FB03208DF806004FF416
:1044F0000060009000208DF8050069460348FDF734
:10450000C9FB1CBD00000240000402400014024030
:1045100070B50320FDF79CFCFCF76CFD05460022FE
:104520001146FCF74CFA044621466FF00B00FCF7ED
:1045300069FDFCF75FFD054600221146FCF73FFAD6
:10454000044621466FF00A00FCF75CFDFCF752FDC3
:10455000054600221146FCF732FA044621466FF068
:104560000900FCF74FFDFCF745FD0546002211460A
:10457000FCF725FA044621466FF00400FCF742FDE3
:10458000FCF738FD054600221146FCF718FA0446F0
:1045900021466FF00300FCF735FDFCF72BFD0546C7
:1045A00000221146FCF70BFA044621466FF0010089
:1045B000FCF728FDFCF71EFD054600220F21FCF745
:1045C000FEF9044621464FF0FF30FCF71BFD0022A8
:1045D00011464D20FDF7D8FB70BD000010B5024814
:1045E000FFF7CCFB10BD00004002002010B50121F8
:1045F0004FF44010FDF760F801210D48FDF75CF81D
:1046000001210B48001DFDF757F8012108480B3028
:10461000FDF752F8012106481C30FDF74DF8012145
:104620000448FDF749F801210348FDF745F810BD9E
:1046300001003000010038000C0044001CB5684641
:10464000FDF71EFB01215548FDF736F80B2201212D
:104650005348FDF75CFB01208DF8070000208DF822
:10466000040002208DF80600009000208DF805005F
:1046700069464B48FDF70EFB0B2202214948FDF726
:1046800046FB01208DF8070000208DF80400022071
:104690008DF806000420009000208DF80500694682
:1046A0004048FDF7F7FA0B2200213D48FDF72FFBAC
:1046B00001208DF8070000208DF8040002208DF8FD
:1046C00006000120009000208DF80500694634485E
:1046D000FDF7E0FA0B2207213248FDF718FB012015
:1046E0008DF8070000208DF8040002208DF80600E8
:1046F0008020009000208DF8050069462948FDF7CC
:10470000C9FA0D2206212748FDF701FB01208DF88B
:10471000070000208DF8040002208DF806004020DC
:10472000009000208DF8050069461E48FDF7B2FA9A
:104730000B2201211B48FDF7EAFA01208DF8070042
:1047400000208DF8040002208DF806000090002063
:104750008DF8050069461348FDF79CFA00211248C0
:10476000FDF743FC04211048FDF796FB00210E489D
:10477000FDF736FC00210C48FDF785FB0A48FDF7E4
:104780007BFB00210848FDF7B7FB00210648FDF739
:10479000B8FB01210448FDF728FC1CBD18003000BF
:1047A0000004024000000240001000A01FB502A853
:1047B000FDF766FA6846FDF783FC0522114632488C
:1047C000FDF7A5FA02208DF80F0000208DF80C00EF
:1047D00002208DF80E002020029000208DF80D00A0
:1047E00002A92948FDF756FA052211462748FDF788
:1047F0008EFA02208DF80F0000208DF80C000220A8
:104800008DF80E002020029000208DF80D0002A9E6
:104810001E48FDF73FFA052204211B48FDF777FAF1
:1048200002208DF80F0000208DF80C0002208DF87A
:104830000E001020029000208DF80D0002A91248F1
:10484000FDF728FA03208DF8000001208DF8010003
:1048500000208DF804008DF803000A208DF8020076
:1048600000208DF805008DF806008DF807006946D8
:104870000748FDF73CFC01210548FDF731FC01210B
:104880000348FDF728FC1FBD000002400004024061
:104890000030014010B5FCF761FF4FF4AB702B49BD
:1048A000086001212A48FCF707FF2A48006920F028
:1048B0000300C01C2749086101210420FCF798FD72
:1048C00000BF2548FCF766FE0128FAD10121084601
:1048D000FCF78EFD00BFFCF775FE0028FBD0012120
:1048E0000020FCF785FD00BF0120FCF753FE0128E6
:1048F000FAD1022301226C210020FCF703FF0520DE
:10490000FCF722FF01210220FCF772FD00BF1920F5
:10491000FCF740FE0128FAD10020FCF72FFD04200F
:10492000FCF748FD0420FCF73BFD0120FCF74CFDA3
:104930000220FCF75FFF00BFFCF76EFF0228FBD1EF
:104940000020FCF741FDFDF77FFC10BD003C02405C
:104950001C00400000700040010074000148006825
:10496000704700000000002010B500F001F810BDF5
:1049700002480068401C01490860704700000020A0
:104980001FB500246846FCF767FD0198C4080020A5
:10499000FDF7EAFC4FF47A70B4FBF0F0401E4FF0E4
:1049A000E0214861002088610846006940F003006A
:1049B00008611FBD08B50448044B01220021009086
:1049C0000348FFF758F908BDC8000020A0000020E8
:1049D0004002002070B50024002505490548FEF777
:1049E00027F9054908800248FBF77AFE70BD0000F0
:1049F000EA070020440200204800002070476B2195
:104A0000017000214170022181700821C1703221A2
:104A1000017100214171022181710021C1710121C7
:104A20000172042141721F2181720121C172022190
:104A300001731F21417370474FF04070E1EE100A7F
:104A40007047000000000000000001020304060798
:104A50000809000000000102030400000000010238
:104A6000030401020406080A0C0E10121416181A88
:104A70001C1E0000000000000000010203040607E5
:104A8000080901020406080A0C0E10121416181A5E
:104A90001C1E000054696D652C2C416C61726D20E8
:104AA00076616C75652C2C416C61726D2057617953
:104AB0000D0A0000D44A0008000000204002000057
:104AC0001C020008DC4B000840020020705500006A
:104AD000780200085193127A3221A7303A6769664A
:104AE000313910DA3210A23313944AD2081201126B
:104AF000AB14220123EF010202212101014A3001FE
:104B00009C2E302E64011034808D5B1208138D11A1
:104B10001408E9101C083F1204190C1A0D041A6934
:104B2000041A19101AEB041A450C13EC0B14207913
:104B30001B1408251C1B0871081AED041ABD041A61
:104B4000C5041AF5041A2D181A81081A39041A3DD9
:104B50000C13120123020216408638405726020128
:104B60000203011C0902430B111DC0320904C01AC3
:104B7000020B130524161001052401100901042459
:104B80000202052406170107058203081CFF090419
:104B900041320A2E0705810240072A0107093844DD
:104BA000113A024419070943882B0A064A111A4090
:104BB000D711071A040309041A03321222F433200E
:104BC000434B0801085A4C081A90081986111AE03C
:0C4BD00008321A1AE408296F1AD4088170
:04000005080001E10D
:00000001FF
