:020000040800F2
:10000000F08A0020C1020008750C0008450A0008AB
:10001000710C0008FB0600087912000800000000BF
:10002000000000000000000000000000BD110008FA
:100030005D08000800000000BF0C0008BF110008A8
:10004000DB020008DB020008DB020008DB0200081C
:10005000DB020008DB020008DB020008DB0200080C
:10006000DB020008DB020008DB020008DB020008FC
:10007000DB020008DB020008DB020008DB020008EC
:10008000DB020008DB020008DB020008DB020008DC
:10009000DB020008DB020008DB020008DB020008CC
:1000A000DB020008DB020008DB020008DB020008BC
:1000B000DB020008DB020008DB020008DB020008AC
:1000C000DB020008DB020008DB020008DB0200089C
:1000D000DB020008DB020008DB020008DB0200088C
:1000E000DB020008DB020008DB0200080000000061
:1000F000DB020008DB020008000000000000000036
:10010000000000000000000000000000DB0200080A
:10011000DB020008DB020008DB020008DB0200084B
:10012000DB020008DB020008DB020008DB0200083B
:10013000DB020008000000000000000000000000DA
:10014000000000000000000000000000DB020008CA
:10015000DB020008DB02000800000000DB020008F0
:10016000DB020008DB020008DB020008DB020008FB
:10017000DB020008B70C00080000000000000000CF
:1001800000000000DB020008DB020008DB020008C0
:1001900000000000DB02000800000000000000007A
:1001A000000000000000000000000000000000004F
:1001B000DB02000800000000DB0200080000000075
:1001C000000000000000000000000000000000002F
:1001D000000000000000000000000000DB0200083A
:1001E00000F002F800F05CF80AA090E8000C8244ED
:1001F0008344AAF10107DA4501D100F051F8AFF2CA
:10020000090EBAE80F0013F0010F18BFFB1A43F0F4
:100210000103184734720000547200000A444FF082
:10022000000C10F8013B13F0070408BF10F8014B55
:100230001D1108BF10F8015B641E05D010F8016B9A
:10024000641E01F8016BF9D113F0080F1EBF10F8FE
:10025000014BAD1C0C1B09D16D1E58BF01F801CB21
:10026000FAD505E014F8016B01F8016B6D1EF9D5A4
:100270009142D6D3704700000023002400250026B9
:10028000103A28BF78C1FBD8520728BF30C148BFF9
:100290000B6070471FB507F043F81FBD10B510BDC8
:1002A00000F0F1F91146FFF7F5FF03F0DAFD00F079
:1002B0000FFA03B4FFF7F2FF03BC00F017FA0000D7
:1002C0000948804709480047FEE7FEE7FEE7FEE7EA
:1002D000FEE7FEE7FEE7FEE7FEE7FEE70448054926
:1002E000054A064B70470000C9110008E1010008EB
:1002F000F0480020F08A0020F04A0020F04A002058
:1003000053EA020C00F069802DE9F04B4FF0000633
:10031000002B1FBFB3FA83F503FA05F424FA05F6A0
:100320005E4012BF1643B2FA82F502FA05F4C5F137
:1003300020051EBF22FA05FC44EA0C04203556EACB
:10034000044C4FEA144418BF641C4FF000084FF0EF
:100350000009904271EB030C39D3002919BFB1FA9F
:1003600081F701FA07F6B0FA80F700FA07F6C7F14D
:1003700020071EBF20FA07FC46EA0C062037B6FB12
:10038000F4FCA7EB0507103F07F01F0BCBF120068D
:100390000CFA0BFB2CFA06F644BFB3460026202FBE
:1003A000A4BF5E464FF0000B5BEA060C08BF4FF09F
:1003B000010B19EB0B09ABFB027C48EB0608C01BD9
:1003C00006FB02CC0BFB03CC71EB0C01C1E70B4627
:1003D000024641464846BDE8F08B13B54FF0000099
:1003E0004FF00001AFF30080BDE81C407047401E95
:1003F000CAB210F8011F8A4202D00029F9D10020A8
:10040000704740EA010310B59B070FD1042A0DD3B2
:1004100010C808C9121F9C42F8D020BA19BA8842E5
:1004200001D9012010BD4FF0FF3010BD1AB1D30724
:1004300003D0521C07E0002010BD10F8013B11F85A
:10044000014B1B1B07D110F8013B11F8014B1B1B83
:1004500001D1921EF1D1184610BD40EA010370B5DA
:100460009B072ED14FF00136042A2AD308C810C9A1
:100470009D1B9D43121F15EAC61517D0D8B2E1B2D5
:10048000401A50EA056110D198B2A1B2401A50EA60
:1004900005410AD123F07F4024F07F41401A50EA01
:1004A000052102D1180EA0EB146070BDA342DBD071
:1004B00018BA21BA884201D9012070BD4FF0FF302F
:1004C00070BD0AB9002070BD10F8013B11F8014B56
:1004D00063B1A3420AD1521E08D010F8013B11F8B3
:1004E000014B1BB1A34201D1521EEDD1181B70BDAF
:1004F000032A40F2308010F0030C00F0158011F850
:10050000013BBCF1020F624498BF11F801CB00F827
:10051000013B38BF11F8013BA2F1040298BF00F87B
:1005200001CB38BF00F8013B11F0030300F0258038
:10053000083AC0F0088051F8043B083A51F804CB5F
:10054000A0E80810F5E7121D5CBF51F8043B40F825
:10055000043BAFF30080D20724BF11F8013B11F830
:1005600001CB48BF11F8012B24BF00F8013B00F874
:1005700001CB48BF00F8012B704710B5203AC0F0FE
:100580000B80B1E81850203AA0E81850B1E8185094
:10059000A0E81850BFF4F5AF5FEA027C24BFB1E8D1
:1005A0001850A0E8185044BF18C918C0BDE8104042
:1005B0005FEA827C24BF51F8043B40F8043B08BF4B
:1005C0007047D20728BF31F8023B48BF11F8012B12
:1005D00028BF20F8023B48BF00F8012B704702F00B
:1005E000FF0343EA032242EA024200F002B84FF05E
:1005F00000020429C0F0128010F0030C00F01B80F0
:10060000CCF1040CBCF1020F18BF00F8012BA8BFFD
:1006100020F8022BA1EB0C0100F00DB85FEAC17CC1
:1006200024BF00F8012B00F8012B48BF00F8012B74
:1006300070474FF0000200B51346944696462039A5
:1006400022BFA0E80C50A0E80C50B1F12001BFF48B
:10065000F7AF090728BFA0E80C5048BF0CC05DF8F1
:1006600004EB890028BF40F8042B08BF704748BF3F
:1006700020F8022B11F0804F18BF00F8012B7047B3
:10068000704770477047754600F02CF8AE4605007D
:100690006946534620F00700854618B020B5FFF79D
:1006A0001DFEBDE820404FF000064FF000074FF060
:1006B00000084FF0000B21F00701AC46ACE8C00980
:1006C000ACE8C009ACE8C009ACE8C0098D46704789
:1006D00010B50446AFF300802046BDE81040FFF798
:1006E000E8BD0000004870479048002001491820EC
:1006F000ABBEFEE726000200704700BFFEE7000029
:1007000010B54A480078012806D010280BD01328CD
:1007100043D0162872D172E0454800F0AFFD0020AA
:10072000424908707FE0042242494348FFF795FEA2
:1007300040B902224049891E404802F00BFC404962
:1007400008701CE004223B493E48FFF786FE40B992
:1007500002223C49891E394802F0FCFB38490870E6
:100760000DE0042233493848FFF777FE38B90222FA
:100770003549891E314802F0EDFB31490870304897
:10078000007830B900F02EFB00203049086000F0FE
:100790009BFF00202549087045E02948007840B9B2
:1007A0002B4B4FF480522349244802F066FE244923
:1007B000087023480078C0B9244800682549098892
:1007C000084422490860084601681C4801F04BFFB4
:1007D0001B4908701F480488E01704EB90708110D3
:1007E000144800F05FFF1C4908601548007808B9FC
:1007F00000F0AAFA00200D49087014E00FE00F483D
:1008000001F014FF0E4908700846007818B900F08E
:1008100069FA00F059FF00200449087003E0002045
:100820000249087000BF00BF10BD00005A00002040
:100830005B000020353B00201A000020981A0020A1
:10084000120000202A0000203A0000205000002062
:10085000C02A00204C0000205400002070470000F7
:100860001248C078132812D004DC012807D01028C1
:1008700019D108E016280ED0302814D10FE001203D
:100880000B49087010E01020094908700CE0132093
:100890000749087008E016200549087004E0302078
:1008A0000349087000E000BF00BF7047303B0020E4
:1008B0005A00002010B501222DA12E4802F01AFB8B
:1008C0002D490870084600780D2817D101202B49C2
:1008D000087003032A4A26A001F096FF26490870F3
:1008E000012223A1002002F005FB23490870012208
:1008F0001FA1204802F0FEFA1F4908700122214979
:10090000214802F027FB1C490870204B3C221C495F
:100910001D4802F050FC184908701B4801F086FE83
:1009200013A11B4802F011FC134908700024194957
:10093000174802F027FD104908700AE0641C04EB18
:100940004400144A02EBC001114802F01BFD0A49A1
:10095000087004EB44000F4901EBC000407A002806
:10096000ECD10B4801F073FE074801F05FFE10BDAB
:10097000303A0000BC07002012000020E02A0020CE
:10098000F02A002018000020981A0020C02A002019
:10099000F0170020A819002070B505461F480088F0
:1009A000002838DD1E480078AB2803D01DA000F0D9
:1009B00065FC70BD1A4880781949497840EA0120E1
:1009C000002814DD164880781549497840EA01204E
:1009D0001349C978014412488078114A527840EA94
:1009E0000220001D0E4A105C0844C4B209E00C4805
:1009F00080780B49497840EA01200949C9780844C0
:100A0000C4B207480079A04203D00AA000F036FC27
:100A1000CFE7FFF725FF00BFCBE700004C00002029
:100A2000303B0020484541445F4552524F525F4998
:100A3000415000004352435F4552524F525F49417B
:100A40005000000000BFFEE710B510488089401E2E
:100A500083B20E484089401E82B20021084600F051
:100A600019F800F03FFC002406E00848808881B2B5
:100A7000074800F06BFC641C0448408903498989DD
:100A80004843A042F1D800F041FC10BD840700208B
:100A9000003001402DE9F04104460D4616461F4640
:100AA00000F034FC2A2000F09BF81049897B214497
:100AB00088B200F0C5F80D49897B314488B200F056
:100AC000BFF82B2000F08CF80849C97B294488B274
:100AD00000F0B6F80549C97B394488B200F0B0F897
:100AE0002C2000F07DF8BDE8F08100008407002094
:100AF00030B500230021002200F47804230A00F41A
:100B00007C446109C0F3C40243EA01041443014D6B
:100B10006C6030BD8407002030B500230021002226
:100B200000F47804230A00F47C446109C0F3C40291
:100B300043EA01041443014D2C6030BD84070020BA
:100B400010B504462548447284B9362000F048F8B0
:100B5000702000F083F80020204988732320C87398
:100B60004FF4A0704881AA20888136E0022C10D171
:100B7000362000F035F8002000F070F823201749E7
:100B800088730020C873AA2048814FF4A070888120
:100B900023E0012C10D1362000F022F8A02000F034
:100BA0005DF800200D4988732320C8734FF4A070AE
:100BB0004881AA20888110E0032C0ED1362000F055
:100BC0000FF8C02000F04AF8002004498873C87369
:100BD000AA2048814FF4A070888110BD84070020AE
:100BE00070B50546002400BF02E000BF601C84B25F
:100BF000962CFADB0821104803F0A2F8002402E04A
:100C000000BF601C84B2962CFADB29460B4800F02A
:100C10008FFB002402E000BF601C84B2962CFADB3C
:100C20000821054803F08EF8002402E000BF601C94
:100C300084B2962CFADB70BD000402400030014003
:100C400010B504462112044800F072FBE1B20248DC
:100C500000F06EFB10BD00000030014010B50446EE
:100C60002146024800F064FB10BD00000030014046
:100C700000BFFEE77047F0B503460C4603F00701DE
:100C8000C1F10700042801D9042001E0C1F10700E7
:100C90000646081D072801D2002000E0C81E0546B0
:100CA0000120B040401E2040A8400127AF407F1ED9
:100CB00017403843F0BD10B506F004F910BD704779
:100CC00010B5064806F00FFB0449054803F005FD82
:100CD0000121034803F0C3FC10BD0000AC07002055
:100CE000001000A000B591B0402101A8FFF7A1FCC1
:100CF000AB208DF8040000208DF8050002208DF84F
:100D0000060016208DF807009DF806009DF80510D6
:100D100040EA01209DF8071001449DF806009DF867
:100D2000052040EA0220C0B2001D01AA105C084460
:100D3000C0B28DF8080000208DF8090001A800F06D
:100D40009DFA11B000BD000000B591B0402101A88E
:100D5000FFF76FFCAB208DF8040000208DF8050034
:100D600006208DF8060013208DF807001B48008828
:100D700000128DF80D00194800788DF80E00184803
:100D80000068000E8DF8090015480068000C8DF809
:100D90000A0013480088000A8DF80B0010480078FC
:100DA0008DF80C009DF806009DF8051040EA012022
:100DB0009DF8071001449DF806009DF8052040EAC3
:100DC0000220001D01AA105C0844C0B28DF8080082
:100DD00001A800F053FA11B000BD00004C00002043
:100DE0005400002000B591B0402101A8FFF721FC7C
:100DF000AB208DF8040000208DF8050001208DF84F
:100E0000060010208DF807009DF806009DF80510DB
:100E100040EA01209DF8071001449DF806009DF866
:100E2000052040EA0220C0B2001D01AA105C08445F
:100E3000C0B28DF8080001208DF8090001A800F06B
:100E40001DFA11B000BD000010B54FF48071D848F4
:100E500002F078FF4FF40041D64802F073FF0A20F9
:100E600005F05AFF4FF40041D24802F069FF6420B8
:100E700005F052FF4FF40041CE4802F063FF7820A6
:100E800005F04AFFFD20FFF7ABFE0620FFF7E6FE68
:100E90000820FFF7E3FE6120FFF7A2FE0720FFF71F
:100EA000DDFE0720FFF7DAFE7320FFF799FE7020C2
:100EB000FFF7D4FE7320FFF793FE0020FFF7CEFE6E
:100EC0006220FFF78DFE0020FFF7C8FE4420FFF7E9
:100ED000C5FE4020FFF7C2FE6320FFF781FE4120E0
:100EE000FFF7BCFE0720FFF7B9FE1220FFF7B6FEA2
:100EF0001220FFF7B3FE6520FFF772FE0820FFF710
:100F0000ADFE1720FFF7AAFE2120FFF7A7FE6620FF
:100F1000FFF766FE0820FFF7A1FE1720FFF79EFEF1
:100F20002120FFF79BFE6720FFF75AFE2020FFF7E6
:100F300095FE4020FFF792FE6820FFF751FE9020BB
:100F4000FFF78CFE3020FFF789FE2720FFF786FE93
:100F50002C20FFF783FEB120FFF742FE0F20FFF7A2
:100F60007DFE0220FFF77AFE0120FFF777FEB42016
:100F7000FFF736FE0120FFF771FEB520FFF730FEC8
:100F80000220FFF76BFE0220FFF768FE0A20FFF742
:100F900065FE1420FFF762FEB620FFF721FE042055
:100FA000FFF75CFE0120FFF759FE9F20FFF756FE7A
:100FB0000020FFF753FE0220FFF750FEDF20FFF76F
:100FC0000FFE1120FFF74AFEE220FFF709FE232063
:100FD000FFF744FE2220FFF741FE2320FFF73EFEED
:100FE0003520FFF73BFE3820FFF738FE3F20FFF7A4
:100FF00035FEE520FFF7F4FD3F20FFF72FFE302000
:10100000FFF72CFE2D20FFF729FE1D20FFF726FEFF
:101010002020FFF723FE2220FFF720FEE120FFF72C
:10102000DFFD3020FFF71AFE7820FFF717FEE420DF
:10103000FFF7D6FD6920FFF711FE2F20FFF70EFE08
:10104000E020FFF7CDFD0520FFF708FE0520FFF7A4
:1010500005FE1020FFF702FE1220FFF7FFFD112012
:10106000FFF7FCFD0D20FFF7F9FD0E20FFF7F6FD61
:101070001720FFF7F3FDE320FFF7B2FD1320FFF782
:10108000EDFD1320FFF7EAFD1320FFF7E7FD0C202D
:10109000FFF7E4FD0F20FFF7E1FD0720FFF7DEFD7E
:1010A0000520FFF7DBFD0520FFF7D8FDE620FFF761
:1010B00097FD0020FFF7D2FDFF20FFF7CFFDE720CF
:1010C000FFF78EFD0120FFF7C9FD0420FFF7C6FDE5
:1010D0000320FFF7C3FD0320FFF7C0FD0020FFF74B
:1010E000BDFD1220FFF7BAFDE820FFF779FD0020D3
:1010F000FFF7B4FD7020FFF7B1FD0020FFF7AEFD54
:10110000EC20FFF76DFD5220FFF7A8FDF120FFF75F
:1011100067FD0120FFF7A2FD0120FFF79FFD0220E0
:10112000FFF79CFDF620FFF75BFD0120FFF796FD22
:101130003020FFF793FD0020FFF790FD0020FFF720
:101140008DFDFD20FFF74CFDFA20FFF787FDFC2009
:10115000FFF784FD3A20FFF743FD5520FFF77EFDA2
:101160003520FFF73DFD0020FFF778FD3620FFF723
:1011700037FD0020FFF772FD2120FFF731FD112020
:10118000FFF72EFD782005F0C7FD2920FFF728FD89
:101190000A2005F0C1FD0220FFF7D2FC4FF6FF70D8
:1011A000FFF7BAFC0448FFF7A3FCFFF74DFC10BDA6
:1011B0000004024000000240FF808000704710B52C
:1011C00006F046F810BD000010B52848006840F44D
:1011D000700026490860012000F09EFC2448006849
:1011E00020F00100401C2249086000BF2048006830
:1011F000C0F340000028F9D01D480830006820F0F6
:1012000003001B490831086000BF19480830006816
:10121000C0F381000028F8D14FF080401449083114
:10122000086013480068134908401149086040F2FB
:10123000C170091D08600E48A030006800F4A0408D
:101240000B49A03108600846006840F4702008602F
:101250004FF41F0006490C310860002000F05CFCD0
:101260004FF0006001498039086010BD88ED00E052
:1012700000380240FFFFF2FE00BFFEE770B50446F3
:101280000025084D00BF40222146074804F00EF912
:10129000012800D103E0281EA5F10105F3D100BF0C
:1012A00070BD0000404B4C00540200200248006812
:1012B000C0F30220704700000CED00E010B50028DC
:1012C00004DB0A07130E054A135406E00A07140E3E
:1012D000034A00F00F031B1FD45410BD00E400E0CC
:1012E00018ED00E010B50021074803F07BFA06482E
:1012F000006820F4006000F50060034908600121E7
:10130000014803F06FFA10BD0030014010B5002114
:10131000064803F067FA0548006820F400600349B6
:1013200008600121014803F05DFA10BD0030014062
:1013300070B504460D4600BFA06800F0020000280A
:10134000FAD02946204603F057FA70BD70B504461E
:101350000D4600BFA06800F002000028FAD0294620
:10136000204603F049FA70BD014601208874002030
:10137000C8740860074800684861064882798A7620
:1013800002790A7642794A760348486003488860C1
:1013900000207047A8000020503F00205047002048
:1013A0002DE9F0410446884600202071401E20624D
:1013B0004146204602F0EEFE10B10420BDE8F08167
:1013C00004F2322002F028FD074694F83450EB2D49
:1013D00003D0E92D01D0E82D43D14AF655208742AC
:1013E00008D1082223A104F18600FFF70AF808B902
:1013F0000020E3E704F13F0002F00EFD0646412025
:10140000055D701E304060BBB6F5007F29DBB6F588
:10141000805F26DC2DB3681E284010BB04F142001B
:1014200002F0FAFCE8B14420005D401E012818D803
:1014300004F1450002F0F0FC98B104F1470002F01D
:10144000EBFC802806DA04F1540002F0EBFCB0F566
:10145000803F06D304F14A0002F0DEFC08B1002010
:10146000ACE74AF65520874201D10220A6E70320C7
:10147000A4E7000046415433322020200000000041
:1014800070B50446002526468221304604F066FCED
:101490008121304604F062FC0121304604F05EFCFC
:1014A000284670BD2DE9F0410446002726467068A5
:1014B000456A0021304604F05AFF8046287B2028E8
:1014C00006D11FFA88F3297B2046AA6803F096FF0D
:1014D0003846BDE8F08101460020704702460020F2
:1014E00007290AD2DFE801F0090405060907080008
:1014F00004E003E002E001E000E000BF00BF70474D
:101500002DE9F04104460E4625466868476A4FF0CB
:1015100000083146284604F04DFE0120B8744046CC
:10152000BDE8F0812DE9F041054600272E467068A0
:10153000446A2046FFF718FF96F8050380B94FF478
:101540000070E061034602220121304604F07EFC77
:101550004FF4007302228121304604F077FC0DE045
:101560004020E061402302220121304604F06EFC5D
:10157000402302228121304604F068FC0823032224
:101580008221304604F062FC96F8050338B94FF426
:10159000007301213046626804F085FC05E04023B9
:1015A00001213046626804F07EFC3846BDE8F081D7
:1015B0002DE9F04104460F464FF0000825466868C3
:1015C000466A3946284604F0D2FE30820120F07483
:1015D0004046BDE8F0812DE9F04106460C464FF04B
:1015E000000837467868456A207800F06000E8B166
:1015F00020283ED1E088C0B1207800F0800058B1AA
:10160000E38861783046AA6803F0F8FEE28838463D
:10161000A96804F016FA08E060782873E088E88189
:10162000EA893846A96804F0EEF926E060780628D1
:101630000AD004DC012814D0032814D112E00A28AF
:1016400006D00B280FD109E0384604F01AFA0EE054
:1016500001222946384604F0F4F908E06088286041
:1016600005E004E003E0384604F00BFA00BF00BFD9
:1016700003E0384604F005FA00BF00BF4046BDE86D
:10168000F0810146002070470246891E9069801E45
:10169000884201D8002070475389106B03FB01007A
:1016A000F9E7000010B502460B46002100BF04E038
:1016B00052F82100034C2060491C9942F8D301489C
:1016C000006810BD003002400348806820F001002F
:1016D000401C0149886070470030024001490861A0
:1016E00070470000003002400349896860F3C4017C
:1016F000014A916070470000003002400149486192
:1017000070470000003002400349896860F34611C9
:10171000014A916070470000003002400349896827
:1017200060F3C711014A9160704700000030024029
:101730002DE9F04782468846DAF80040B8F1000FFC
:1017400006D1276917B1A069B84215D8012713E05F
:101750004146504602F0C6F90546022D02D201204C
:10176000BDE8F087681C08B92846F9E7A069A842D7
:1017700001D92846F4E74746606908B90020EFE739
:101780000026474518D17E1CA069B04200D8022629
:101790003146504602F0A6F90546012D01D0681CDD
:1017A00008B92846DCE73DB12569022D03D3A069BD
:1017B000A84200D92F460026E6B93E4600BF761C57
:1017C000A069B04204D80226BE4201D90020C7E772
:1017D0003146504602F086F9054605B909E0012D6B
:1017E00001D0681C08B92846BAE7BE42E7D10020FC
:1017F000B6E700BF4FF0FF323146204602F05CFDF5
:101800008146B9F1000F08D1B8F1000F05D032467A
:101810004146204602F050FD8146B9F1000F0FD13C
:1018200026616069A0B1D4E90510801E81420FD8FD
:101830006069401E6061607940F00100607107E0FE
:10184000B9F1010F02D14FF0FF3000E00120064650
:10185000304685E72DE9F35F8946D9F80080009886
:1018600000F1200520220B212846FEF7B8FE0020BB
:10187000074606464FF0080B00BF3046761C18F8A6
:101880000040202C00DC50E02F2C01D05C2C0AD131
:1018900000E0761C18F806002F28FAD018F8060089
:1018A0005C28F6D041E02E2C01D05F450BD3BBF174
:1018B0000B0F01D02E2C02D00620BDE8FC9F08277C
:1018C0004FF00B0BD9E7802C03DB04F07F0023499A
:1018D0000C5C204600F050FBA8B13046761C18F88E
:1018E00000A0504600F04EFB18B1ABF10100B84229
:1018F00001D80620E1E738467F1C2C5438467F1C6F
:1019000005F800A010E0214615A0FEF770FD08B113
:101910000620D2E7612C04DB7A2C02DCA4F1200043
:10192000C4B238467F1C2C54A7E700BF08EB060062
:10193000C9F800000FB90620BFE72878E52801D1D3
:1019400005202870202C03DD18F80600202801DC73
:10195000042000E00020E8720020AEE77C7300085D
:101960002A2B2C3A3B3C3D3E5B5D7C223F7F0000B6
:101970002DE9FF4F85B09A4603AA0121059800F092
:10198000CDFC18B1012009B0BDE8F08FDDF80C9056
:101990004FF03F08082701E07806070E37B1B9FB82
:1019A000F7F0B0FBF8F0B0F5806FF5D807B9FF2776
:1019B0004FF480515046FEF71AFE0AF5DF764FF0DD
:1019C000000B444669E0069850F82B50642D07D868
:1019D00001D1484603E06420B9FBF0F068430546B6
:1019E0006019484501D8601901D3A9EB040505B970
:1019F00059E0214606F1080002F0B2FF294606F13F
:101A00000C0002F0ADFF07983071B4FBF8F0B0FBAA
:101A1000F7F00490B4FBF8F0B0FBF7F107FB11000E
:101A2000C0B20290B4FBF8F008FB1040401CC0B2FA
:101A3000019002987070C021049801EA9000019909
:101A40000843B0700498F0706019401EB0FBF8F0C5
:101A5000B0FBF7F004906019401EB0FBF8F0B0FB4B
:101A6000F7F107FB1100C0B202906019401EB0FBF5
:101A7000F8F108FB1100401CC0B20190029870718F
:101A8000C021049801EA900001990843B0710498BC
:101A9000F07110360BF1010B2C44BBF1040F02D294
:101AA0000CB14C458FD300BF4AF655210AF5FF70A3
:101AB00002F050FF012300225146059800F0C5FCBA
:101AC00008B101205FE700205DE7000000B5034694
:101AD000012000F021F80548006863F3071003496E
:101AE0000860002000F018F800BD0000083802402F
:101AF0000349096860F38C21014A116070470000B6
:101B0000083802400349096860F34F31014A116007
:101B10007047000008380240012807D107490968CA
:101B200021F030013031054A116005E003490968B0
:101B300021F03001014A116070470000A4380240D2
:101B400005282BD2DFE800F0030A11182100154AFE
:101B5000126861F30002134B1A6020E0114A126808
:101B600061F310420F4B1A6019E00E4A126861F3DC
:101B700018620C4B1A6012E00A4A7032126861F364
:101B80000002084B70331A6009E0064A743212688A
:101B900061F30002034B74331A6000E000BF00BF22
:101BA00070470000003802402DE9FF5F04464FF007
:101BB000000AD346002003900290019000250026E1
:101BC000814600F0D1F90090009820B101281BD087
:101BD000022852D124E03B480068C0F3803038B17D
:101BE00038480068C0F3003010B13748206001E089
:101BF000364820603348001D0068C0F30249206861
:101C000020FA09F020603BE0314820602D48001D9B
:101C10000068C0F3C249206820FA09F020602FE074
:101C200028489C380068C0F38070029025489C3892
:101C30000068C0F3881A23489C38006800F00F0B36
:101C400020489C380068C0F303402249085C039098
:101C5000029810B91D48019001E01D4801900398B9
:101C60000BFB00FC0198A0FB0A70014662460023B2
:101C70003846FEF745FB206002E01448206000BFB4
:101C800000BF104898380068C0F303151248465D3D
:101C90002068F04060600B4898380068C0F38225E7
:101CA0000E48465D6068F040E0600648983800687D
:101CB000C0F342350A48465D6068F040A060BDE868
:101CC000FF9F0000A0380240006CDC0200127A0086
:101CD000001BB7004A7300082A7300083A73000813
:101CE0004273000810B501460020094B03EB114276
:101CF000D2F8002801F01F040123A3401A4001F08C
:101D00001F040123A3409A4200D000E0012010BD2F
:101D10000030024030B50024002500E0641C112092
:101D2000FFF7E0FF012802D0B4F5405FF6D31120A1
:101D3000FFF7D8FF012801D0002500E00125284643
:101D400030BD00000CB5034629480068C0F30240CE
:101D500001902748001F0068C0F3803000900420E5
:101D600000F048F800BF00BF00BF00BF00BF00BFC9
:101D700000BF00BF00BF00BF00BF00BF00BF00BF6B
:101D800000BF00BF00BF00BF00BF00BF00BF00BF5B
:101D900000BF00BF00BF00BF00BF00BF00BF00BF4B
:101DA00000BF00BF00BF00BF00BF00BF00BF00BF3B
:101DB00000BF00BF0E48001F006820F4804000F5FF
:101DC00080400B49091F08600846006863F30C3027
:101DD00008609DF800100648001F006861F38E300F
:101DE0000349091F08609DF8040000F003F80CBDCA
:101DF000A43802400349096860F31241014A1160A6
:101E000070470000A438024010B501290FD1104BD3
:101E100003EB1042D2F8002800F01F040123A34076
:101E20001A430B4C04EB1043C3F800280EE0084B98
:101E300003EB1042D2F8002800F01F040123A34056
:101E40009A43034C04EB1043C3F8002810BD000074
:101E500000300240F0B504460D4616461F4614B940
:101E60000120FFF76FFF0B48006864F39E7009497B
:101E700008600846006865F38E1008600846006830
:101E800066F3030008600846006867F313400860C3
:101E9000F0BD0000043802400349096860F31651A0
:101EA000014A1160704700000438024000B501206B
:101EB000FFF732FE2148006820F00100401C1F4956
:101EC000086000BF1D480068C0F340000028F9D03A
:101ED0001A480830006820F00300184908310860EB
:101EE00000BF164808300068C0F381000028F8D110
:101EF0004FF08040114908310860104800681049CF
:101F000008400E49086040F2C170091D08600B4886
:101F1000A030006800F4A0400849A03108600846DD
:101F2000006840F4702008604FF41F0003490C3132
:101F300008600020FFF7F0FD00BD000000380240FF
:101F4000FFFFF2FE00B503460120FFF7E5FD05485F
:101F5000006863F30100034908600020FFF7DCFD1F
:101F600000BD00000838024002480068C0F381004C
:101F70007047000008380240014609B10020704750
:101F80000020FCE7014609B1002070470020FCE773
:101F90002DE9F04104460E46D4F800800021204689
:101FA00000F053F90546EDB9002700BF4046A1698E
:101FB00002F0F0F8054605B113E0E0690078E52885
:101FC00002D0E069007820B9781C0746B04201D100
:101FD00007E000270121204600F06FF80546002D9C
:101FE000E4D000BF042D00D107252846BDE8F081CC
:101FF0002DE9F04704468946204602F017FD10B14E
:102000000120BDE8F08749462046FFF73DFB064624
:1020100026624FF4805104F13400FEF70AFB04F10C
:1020200034080127002500E03D446089A84207D913
:10203000721960783B46414600F007FA0028F3D059
:102040006089A84201D00120DBE70020D9E72DE913
:10205000F041044627680021204600F0F6F80546C6
:1020600015B12846BDE8F08100BF3846A16902F0ED
:1020700091F8054605B11DE0E06906780EB9042522
:1020800018E0E069C07A00F03F00A071E069C07A12
:1020900000F0080038B90B2204F12001E069FEF7D6
:1020A000B0F900B906E00021204600F006F8054628
:1020B000002DDAD000BF2846D4E72DE9F0410446D0
:1020C00088462668206900F12007B7F5001F01D374
:1020D0000020A061A06910B90420BDE8F081B0899A
:1020E000B7FBF0F100FB1170002847D1A069401C3C
:1020F000A061606938B93089B0EB571F3ED8002025
:10210000A0610420E9E7B089B7FBF0F07189491EAE
:10211000084098BB2046616901F0E4FC0546012DAA
:1021200001D80220D9E7681C08B90120D5E7B069B9
:10213000A8421DD8B8F1000F03D10020A0610420EF
:10214000CBE720466169FFF7F3FA05460DB9072092
:10215000C3E7012D01D10220BFE7681C08B90120A7
:10216000BBE729463046FFF743FF08B10120B4E73B
:10217000656129463046FFF787FAA0612761B0897B
:10218000B7FBF0F100FB117106F134000844E06187
:102190000020A2E72DE9F047044688460425D4F83C
:1021A000009027E04846A16901F0F4FF054605B11B
:1021B00023E0E06906780EB904251EE0E069C07AE4
:1021C00000F03F07A771E52E0DD02E2E0BD00F2F5C
:1021D00009D027F02000082801D1012000E00020CC
:1021E000404500D109E000212046FFF766FF054683
:1021F00005B102E0A0690028D4D100BF0DB10020D4
:10220000A0612846BDE8F08770B504462668012124
:102210002046FFF7BDFE0546ADB93046A16901F085
:10222000B9FF05467DB92021E069FEF7E0F9E069D4
:10223000216A0160616A4160218D018194F82A1050
:10224000817201203071284670BD2DE9F0410446AD
:102250000E462568B6F5001F02D206F01F0010B129
:102260000220BDE8F0812661A7681FB928780328FD
:1022700000DBEF6A47B92889B0EB561F01D802206E
:10228000EFE7E86AA0611DE06889A98900FB01F811
:1022900011E03946204601F025FC0746781C08B9B4
:1022A0000120DEE7022F02D3A869B84201D802203C
:1022B000D7E7A6EB08064645EBD239462846FFF796
:1022C000E3F9A0616761A06908B90220C9E7A8899C
:1022D000B6FBF0F0A1690844A061A889B6FBF0F153
:1022E00000FB116105F134000844E0610020B8E70B
:1022F00070B50446012514B1012C0AD104E0002078
:1023000000F083F8054606E0012000F07EF805465F
:1023100001E0012500BF00BF284670BD10B503468F
:10232000042013B1012B3AD11CE0052916D2DFE8B5
:1023300001F003050A0F1300002011E04FF4F854D8
:10234000146000200CE04FF480541480002007E05B
:1023500001241460002003E0002001E0042000BFFD
:1023600000BF1EE0052916D2DFE801F003050A0FC1
:102370001300002011E04FF48074146000200CE082
:102380004FF480541480002007E0012414600020E2
:1023900003E0002001E0042000BF00BF01E00420B2
:1023A00000BF00BF10BD2DE9F04106460F461446A0
:1023B0001D464FF00408FEF783FC16B1012E1DD117
:1023C0000DE000BF15B94FF4805100E029030A4623
:1023D0002003394602F09CF84FF0000811E004F5A4
:1023E000F85415B94FF4805100E029030A46200340
:1023F000394602F08DF84FF0000802E04FF0040873
:1024000000BF00BF4046BDE8F08170B5044601251D
:1024100014B1012C14D109E001F0AEF941F6EF013D
:10242000884201D1022500E001250BE001F0A4F96A
:1024300041F6EF01884201D1022500E0012501E0CB
:10244000012500BF00BF284670BD2DE9F04780463A
:102450000D4614461E464FF0040916B90420BDE887
:10246000F087B8F1000F03D0B8F1010F2AD113E0C3
:102470000CE02703384601F047F94FF48052394603
:10248000284601F01BFA641C05F58055301EA6F1A4
:102490000106EED1814618E004F5F8540CE027035C
:1024A000384601F031F94FF480523946284601F0A0
:1024B00005FA641C05F58055301EA6F10106EED123
:1024C000814602E04FF0040900BF00BF4846C6E75E
:1024D000026861F300020260704700210160416000
:1024E00001814181017341738173C173017441742E
:1024F00070470000B0F1805F04D920F07041034ABA
:10250000116001E002494860704700000464024025
:102510000060024001460022B1F1805F02D9064806
:10252000026801E00548026802EA010008B10120E2
:1025300070470020FCE70000006402400060024099
:1025400002684BF6EF731A40026002680B891A4367
:1025500002604B7C026863F30D320260CB7B026841
:1025600063F38B2202608B7B026863F309220260B3
:102570004B7B026863F3C71202600B7B026863F354
:10258000861202600B7C026863F3451202604B897D
:10259000426863F30F0242600A6882604A68C26060
:1025A000704700000021026822F001020260002250
:1025B000026042608260C260014640F2FF620A40EF
:1025C000B2F5C16F0DD2CAB2083A1423B2FBF3F2CE
:1025D00093000F229A400D4B5B681A430B4B5A60D5
:1025E00012E040F2FF620A40B2F5D16F0CD2CAB2DB
:1025F000083A1423B2FBF3F293000F229A40044BE3
:102600001B681A43024B1A607047000000600240CA
:1026100004640240D0F8002161F30002C0F80021F8
:102620007047026861F306020260704738B50546DC
:10263000284600F0D2FE04463CB96946284604F01C
:10264000F8FA04460CB900202860204638BD38B599
:1026500004466946204604F0ECFA05460DB9002010
:102660002060284638BD2DE9F84F04460E466946DD
:10267000204604F0DEFA8246BAF1000F01D194F848
:1026800011A0BAF1000F02D05046BDE8F88FE06803
:10269000B04204D2207C00F0020000B9E668D4F811
:1026A00014904FF00008C4F81480002E72D00098E7
:1026B00040890099898900FB01F7B9F1000F11D019
:1026C000701EB0FBF7F1A9F10100B0FBF7F08142F9
:1026D00008D3A9F10100791E884360616069361A48
:1026E000A56912E0A5687DB900212046FFF720F812
:1026F0000546012D02D102206074C6E7681C10B99E
:1027000001206074C1E7A560A561002D42D024E0DE
:10271000F61B606938446061207C00F0020040B123
:1027200000BF29462046FFF703F8054635B90026C5
:1027300015E02946204601F0D5F90546681C10B978
:1027400001206074A1E7012D03D900988069A84297
:1027500002D80220607498E7A561BE42D8D800BFB5
:1027600060693044606100988089B6FBF0F100FB3D
:10277000116078B129460098FEF786FF8046B8F1CF
:10278000000F02D1022060747FE700988089B6FBB9
:10279000F0F08044E1686069884205D96069E060D2
:1027A000207C40F040002074606900998989B0FB6A
:1027B000F1F201FB120020B3E069404521D0207CFA
:1027C00000F0800078B1E26900994878012304F1B3
:1027D0002801FFF73AFE10B10120607455E7207C14
:1027E00000F07F002074009948780123424604F1EC
:1027F0002801FFF7D8FD10B10120607445E7C4F847
:102800001C80504641E700002DE9FF4F99B00E466D
:1028100019A801F051FA03900398002803DA0B205D
:102820001DB0BDE8F08FFE49039851F8200028B193
:102830000021FB4A039852F8200001700398C0B2AF
:102840001690002015901698FFF752FD02900298FE
:1028500000F0010008B10320E2E7029800F0040054
:1028600008B10A20DCE706B9EE4E706812901298A3
:1028700020B912AA03211698FFF750FD129840B113
:102880001298B0F5004F04D81298401E12990840D3
:1028900008B10120129014AA02211698FFF73EFDFC
:1028A00008B10120BCE7BDF85000B0F5805F0BDC3B
:1028B000BDF85000B0F5007F06DBBDF85000401EAB
:1028C000BDF85010084008B10120A9E7307800F0A9
:1028D0000F0018907078012804DB7078022801DC62
:1028E000707800E001200590B16889B1B168B1F558
:1028F000004F0DD8BDF85000C11700EBD161491150
:10290000B268B2FBF1F301FB132109B9B16801E030
:102910004FF400710491F068B0F1807F05D8F06841
:10292000411E084008B9F06800E000200690BDF89C
:1029300050100698B0FBF1F00690BDF850101C98AE
:10294000B0FBF1F01390139808B9112068E71B9CB5
:102950000CB9112064E74FF0000ACDF83CA000BF8D
:102960000FAA01211698FFF7D9FC08B1012057E7FB
:10297000189800F0080040B90F983F2805D94FF08B
:102980003F0A0F98A0EB0A000F900F98802801D201
:102990000E2045E700BF00BF0698802801D980209F
:1029A0000690189800F0020028B1189800F0010075
:1029B00008B9032707E0189800F0010008B91320B0
:1029C0002EE7022700BF00BF01F026F90F99084447
:1029D000109000BF069D032F2DD195B90F984FEA97
:1029E00050494FF0000B012502E00BF1010B6D0087
:1029F0008D4830F81B0020B18B4830F81B0048454B
:102A0000F3D90F98B0FBF5F8082000EB8800BDF86B
:102A100050100844401EB0FBF1F0089020200990AF
:102A2000002007904FF6F570804502D97F48804519
:102A300039D90E20F4E695B90F984FEA10394FF0C6
:102A4000000B012502E00BF1010B6D00784830F816
:102A50001B0020B1764830F81B004845F3D90F9889
:102A6000B0FBF5F840F6F570804503D9042000EB83
:102A7000480906E0012708EB4800401C032101EB50
:102A80005009BDF850004844401EBDF85010B0FB3E
:102A9000F1F008900120099004984001BDF8501011
:102AA000B0FBF1F00790099850440E90059A0899F0
:102AB0000E9801FB0201079808440D9012990D9899
:102AC0000844401E491E20EA01010D98A1EB0009AF
:102AD000032F06D10998484409900E9848440E9057
:102AE00013E00598B9FBF0F100FB119038B1A9F1A2
:102AF00001090998401C09900E98401C0E900598F9
:102B0000B9FBF0F10898084408900D9800EB051007
:102B1000A0EB0A000F99884201D90E2080E60F9998
:102B200009980A1A0599089800FB11210798081AB4
:102B3000B0FBF5F8032F0BD14FF6F570804507D8A1
:102B4000069818B96808069000B135E00E2067E6CF
:102B5000022F28D14FF6F570804517D9069830B965
:102B60004020B0EB450F02D36800069024E018988F
:102B700000F0020008B103271EE0069820B96800A3
:102B80000690802800D817E00E2049E640F6F57040
:102B9000804508D8069820B968000690802800D89B
:102BA0000AE00E203CE6012F05D140F6F570804585
:102BB00001D90E2034E600E00CE700BFBDF850104C
:102BC0002046FDF714FD1BA001682160416861608B
:102BD00001892181807AA072BDF8501004F10B00A8
:102BE00001F0B8FE6573099881B204F10E0001F09E
:102BF000B1FE05982074032F01D1002000E0049855
:102C000081B204F1110001F0A5FE0F98B0F5803FEC
:102C100016D20F9881B204F1130001F09BFE14E06C
:102C20009C000020187400080A740008F5FFFF0FCC
:102C3000FC730008EBFE904D53444F53352E30008B
:102C400004F120000F9901F08BFEF82060753F2100
:102C500004F1180001F07EFEFF2104F11A0001F0DA
:102C600079FE514604F11C0001F07AFE032F25D1B4
:102C700004F14300109901F073FE04F12400089957
:102C800001F06EFE022104F12C0001F069FE012129
:102C900004F1300001F05EFE062104F1320001F083
:102CA00059FE802084F84000292084F84200132235
:102CB00083A104F14700FDF71BFC16E004F1270097
:102CC000109901F04DFE089881B204F1160001F050
:102CD00041FE802084F82400292084F82600132255
:102CE0007CA104F12B00FDF703FC4AF6552104F505
:102CF000FF7001F02FFE0123524621461698FFF780
:102D0000A4FB08B101208BE5032F33D101230AF185
:102D1000060221461698FFF798FBBDF85010204692
:102D2000FDF765FC7049204601F01AFE6F4904F575
:102D3000F27001F015FEA8F1010104F5F47001F044
:102D40000FFE022104F5F67001F00AFE4AF6552145
:102D500004F5FF7001F0FEFD01230AF10702214690
:102D60001698FFF772FB01230AF10102214616981B
:102D7000FFF76BFBBDF85020139800FB02F12046D3
:102D8000FDF735FC0E980C904FF0000B40E0032F40
:102D90000FD16FF00701204601F0E2FD391F201D21
:102DA00001F0DEFD6FF0704104F1080001F0D8FD84
:102DB00009E0012F01D14E4801E06FF00700014604
:102DC000204601F0CDFD0898119000BF139911988D
:102DD000884201D9139800E0119881464B4621465C
:102DE0000C9A1698FFF731FB08B1012018E5BDF8E1
:102DF00050102046FDF7FBFB0C9848440C901198AE
:102E0000A0EB0900119011980028DFD10BF1010B04
:102E100005988345BBD3032F01D1284600E00798CE
:102E2000119000BF13991198884201D9139800E0BE
:102E3000119881464B4621460C9A1698FFF705FBE0
:102E400008B10120ECE40C9848440C901198A0EBD8
:102E50000900119011980028E4D100BF032F02D17E
:102E60000C2017900DE00F98B0F5803F02D306209C
:102E7000179006E0022F02D10420179001E00120F4
:102E8000179000BF189800F0080070B90F980A90CA
:102E900000200B9023460AA9DDE91602FEF768FD23
:102EA0000190019808B10198BAE4002211461698E1
:102EB000FFF734FA08B10120B2E40020B0E40000CA
:102EC0004E4F204E414D4520202020464154333264
:102ED000202020004E4F204E414D452020202046EE
:102EE00041542020202020005252614172724161E1
:102EF000F8FFFF00F7B582B016460398019001A8CD
:102F000000F0DAFE0446002C02DA0B2005B0F0BD1A
:102F10000F4850F8245025B100200D4941F82400F5
:102F20002870029840B102994C70002002990870F4
:102F30000749029841F824000EB90020E6E7002274
:102F400002A903A800F0ACFF07463846DEE7000000
:102F50009C0000202DE9F74F8EB0044616461CB9A0
:102F6000092011B0BDE8F08F06F03F06324602A9F5
:102F70000FA800F095FF0546002D7DD10298039023
:102F800003A80F9900F0D7FC05462DB99DF837002E
:102F900000F0800000B1062506F01C00002850D08B
:102FA00045B1042D03D103A8FFF72EF9054646F0DD
:102FB00008060AE006F0040008B1082505E09DF8BF
:102FC000120000F0110000B10725002D4AD106F0D3
:102FD0000800002846D000F01FFE01900A9901F178
:102FE0000E00019901F0BCFC0A99029800F026FF3E
:102FF000814620200A99C87200220A99029801F09D
:10300000BBFC0A9901F11C00002101F0A9FC012080
:1030100002990871B9F1000F24D00298D0F820A0CD
:103020000022494603A801F085FB0546D5B9514663
:10303000029801F0AFF80546A9F101000299086174
:1030400010E07DB99DF8120000F0100008B10425D1
:1030500008E006F0020028B19DF8120000F001001F
:1030600000B107255DB906F0080008B146F040063A
:103070000298006A206200E051E00A986062002D28
:103080005ED10A99029800F0D9FEA0600A9901F178
:103090001C0000F0C7FEE060029820600298C08823
:1030A000A080267400206074E06160614FF480515C
:1030B00004F12800FDF7BDFA06F0200078B3E068BF
:1030C00068B3E0686061029840890299898900FBD1
:1030D00001FBA768D4F80C800CE03946204600F0CC
:1030E00001FD0746012F00D80225781C00B90125F3
:1030F000A8EB0B080DB9D845EFD8A7617DB90298A8
:103100008089B8FBF0F100FB118040B1394602988C
:10311000FEF7BAFA8246BAF1000F01D102250FE09C
:1031200002988089B8FBF0F05044E061E2690299AE
:103130004878012304F12801FFF735F900B1012592
:103140000DB10020206028460BE733B581B004465E
:103150000CB909203EBD0022694602A800F0A0FE7D
:1031600005461DBB009820602046029900F0E3FB55
:103170000546C5B92B20005D00F0800050B9A0794C
:1031800000F0100028B1E169009800F057FEA0603F
:1031900000E005253DB90098C088A08000212046A8
:1031A000FFF753F80546042D00D105250DB1002089
:1031B00020602846CEE72DE9FF4F85B0044615462E
:1031C0009A46DDF818B00020CAF8000003A920468E
:1031D00003F02FFD0490049810B9607C049018B19E
:1031E000049809B0BDE8F08F207C00F0010008B918
:1031F0000720F6E76169E068401A0190019885426E
:1032000000D9019DB9E0606903998989B0FBF1F2A9
:1032100001FB1200002876D1606903998989B0FB0F
:10322000F1F003994989491E00EA0109B9F1000F3B
:1032300017D1606910B9A068029004E02046A16926
:1032400000F050FC02900298022802D20220607422
:10325000C7E70298401C10B901206074C1E70298CA
:10326000A061A1690398FEF70FFA064616B902207D
:103270006074B6E74E4403988089B5FBF0F8B8F166
:10328000000F2DD009EB080003994989884203D922
:1032900003984089A0EB09080399487843463246D1
:1032A0005946FFF780F810B10120607499E7207C3F
:1032B00000F0800078B1E069801B40450BD2E169E5
:1032C000891B039B9B8901FB03B003998A8904F145
:1032D0002801FDF70DF90398808900FB08F742E00B
:1032E000E069B04220D0207C00F0800080B1E2692B
:1032F00003994878012304F12801FFF7A6F818B1D3
:10330000012060746DE710E0207C00F07F002074E5
:10331000039948780123324604F12801FFF743F866
:1033200010B1012060745CE7E661606903998989E6
:10333000B0FBF1F201FB1200039989890F1AAF4229
:1033400000D92F46606903998989B0FBF1F201FB2E
:10335000120104F1280008443A46014600905846FC
:10336000FDF7C6F800BFED1BDAF800003844CAF8D4
:103370000000BB44606938446061002D7FF443AFB6
:1033800000202EE7F8B506460D466946304603F0A4
:1033900050FC0446DCB92DB900213046FEF755FF3C
:1033A000044614E000213046FEF7F4FE0446042CE7
:1033B00000D100245CB92946304600F031FC0021E0
:1033C0003046FEF77AFE0446042C00D1002415B1E5
:1033D0000CB1002068722046F8BDF8B50446694675
:1033E000204603F026FC0646002E44D1207C00F047
:1033F000400000283FD0207C00F0800070B1E269DE
:1034000000994878012304F12801FFF71EF808B15C
:103410000120F8BD207C00F07F002074216A009814
:1034200000F0B8FE064636BB656AE87A40F0200038
:10343000E8722946A268206801F09EFA05F11C0096
:10344000E16801F08DFA00F0E7FB0746394605F127
:10345000160001F085FA002105F1120001F07AFA58
:10346000012000990871009801F098FA0646207C26
:1034700000F0BF0020743046CBE72DE9FF4F85B048
:10348000044615469B46069802900020CBF80000A3
:1034900003A9204603F0CDFB0490049810B9607C8A
:1034A000049018B1049809B0BDE8F08F207C00F0BA
:1034B000020008B90720F6E700BF60692844616987
:1034C000884202D26069C0F1FF35D6E06069039995
:1034D0008989B0FBF1F201FB120000287DD16069FF
:1034E00003998989B0FBF1F003994989491E00EAE3
:1034F000010ABAF1000F1ED1606938B9A76857B93F
:1035000000212046FEF714F9074604E02046A16991
:10351000FEF70EF9074607B9B2E0012F02D10220EB
:103520006074C0E7781C10B901206074BBE7A76124
:10353000A06800B9A760207C00F0800078B1E26943
:1035400003994878012304F12801FEF77EFF10B1AA
:1035500001206074A7E7207C00F07F002074A1693F
:103560000398FEF791F8064616B9022060749AE7B0
:10357000564403988089B5FBF0F9B9F1000F31D0BA
:103580000AEB090003994989884203D903984089C5
:10359000A0EB0A09039948784B4632460299FEF798
:1035A00054FF10B1012060747DE7E069801B48453D
:1035B00011D2E069831B0398B0F80CC0029803FB9A
:1035C0000C010398828904F12800FCF791FF207C0C
:1035D00000F07F002074039800E017E0808900FB72
:1035E00009F835E0E069B0420FD0E16860698842CF
:1035F0000BD2039948780123324604F12801FEF7E3
:10360000D2FE10B1012060744DE7E6616069039954
:103610008989B0FBF1F201FB120003998989A1EBC2
:103620000008A84500D9A846606903998989B0FBBC
:10363000F1F201FB120104F1280008444246019016
:103640000299FCF755FF207C40F08000207400BFF9
:10365000A5EB0805DBF800004044CBF80000029819
:1036600040440290606940446061E168606988425A
:1036700001D9606900E0E068E060002D7FF426AFCA
:1036800000BF207C40F04000207400200BE72DE9B3
:10369000FF4107460D4600213846FDF781FE0646EC
:1036A000022E06D0032E00D21DB9304604B0BDE86C
:1036B000F08100BF00240AE007F5F97101EB041165
:1036C00001F1080000F0AEFB4DF82400641C042C4E
:1036D000F2D30DB1681E00E00020044600BF5DF883
:1036E000240028B15DF824103846FDF759FE00E0AB
:1036F000032006462DB9022E03D3601C044604287D
:10370000EDD33046D2E7000010B50446002118483A
:1037100000F0A5FF00F0FAF8C4F30B00241A002013
:10372000144908704870212088700120C87008462C
:103730004460042008720020C860087448740120A6
:1037400088740020C87401200875094800F091FEB3
:1037500000BF0121064800F0C3FE0028F9D0012176
:10376000034800F0BBFE00F067F800F0CAF810BD97
:10377000001000A09407002008B5002000906846C3
:1037800003F076FABDF8000041F2EF61884204D1FF
:103790004FF40000104908601AE0BDF8000041F243
:1037A000EF71884204D14FF080700B4908600FE040
:1037B000BDF8000041F6EF01884204D14FF00070DF
:1037C0000549086004E0002003490860012008BDA5
:1037D000BDF80000FBE700000C00002010B5044617
:1037E0000021134800F03BFF002012490870487088
:1037F000084684700120C870002048600872C860C4
:1038000008744874012088740020C8740120087569
:10381000074800F02EFE00BF0121054800F060FEC1
:103820000028F9D00121024800F058FE10BD000028
:10383000001000A09407002010B5002400211D48AE
:1038400000F00DFF00201C490870487005208870AA
:103850000120C8700020486008720120C860002064
:10386000087448748874C874087500BF0121114831
:1038700000F034FE10490F4800F0FBFD00BF0221AC
:103880000C4800F02DFE0028F9D00A4800F0E8FDB1
:1038900004460121074800F021FE04F00100002841
:1038A000E4D10121034800F019FE012003F034FAAD
:1038B00010BD0000001000A0940700202DE9F04189
:1038C00007460E461446F0B2C0F58075AC4200DCE7
:1038D000254612E02A463146384600F01CF8A5423B
:1038E00000D10BE02F442E44601B84B2B4F5807FDE
:1038F00002DD4FF4807500E02546EBE700BFBDE830
:10390000F08110B50420FFF769FF10BD10B5062047
:10391000FFF764FF10BD70B504460D461646FFF76D
:10392000F5FFFDF7CDF932462146284600F042FE6C
:10393000FFF782FF70BD2DE9F3410446276802E0DE
:103940000198401C0190019800782F28F8D0019828
:1039500000785C28F4D00020A0600198007820282E
:1039600008D280212B20015500212046FEF76DFC56
:10397000054631E000BF01A92046FDF76BFF054673
:1039800005B128E02046FEF762FB05462B20065DC8
:103990003DB1042D04D100BF06F0040000B9052597
:1039A00019E006F0040000B115E0A07900F0100065
:1039B00008B905250FE0B9892069B0FBF1F201FBD8
:1039C000120107F1340001EB00084146384600F0CF
:1039D00035FAA060CFE700BF2846BDE8FC810000B3
:1039E00010B5054905A003F0EBF80A490880024824
:1039F0004860084610BD0000904700205669727468
:103A000075616C20436F6D506F727420436F6E66EA
:103A10006967000048020020004870471802002033
:103A2000004870471002002010B5054905A003F0BA
:103A3000C7F80B49088002484860084610BD0000DE
:103A4000904700205669727475616C20436F6D5009
:103A50006F727420496E7465726661636500000060
:103A600048020020004870473002002010B5054988
:103A700005A003F0A5F806490880024848600846FA
:103A800010BD0000904700204172746572790000FB
:103A900048020020004870472802002010B5054960
:103AA00005A003F08DF808490880024848600846E0
:103AB00010BD0000904700207A796E6F6F20687506
:103AC00062322E300000000048020020004870479B
:103AD0004002002010B500F019F9014810BD0000A7
:103AE000380200202DE9F05F81460D46D9F80040EC
:103AF000022D02D3A069A84202D84FF0010887E046
:103B00004FF0FF382078012804D002283AD003284B
:103B10007AD156E02E4606EB5606A089B6FBF0F0A9
:103B2000A16A00EB010A5146204600F033FB00B1C8
:103B30006DE03046761CA189B0FBF1F201FB120169
:103B400004F13400475CA089B6FBF0F0A16A00EBF9
:103B5000010A5146204600F01DFB00B157E0A08944
:103B6000B6FBF0F100FB116104F13400405C47EA60
:103B7000002705F0010008B1380901E0C7F30B0088
:103B8000804644E0B4F80CA00AEBDA704010B5FBB4
:103B9000F0F0A16A00EB010B5946204600F0FAFA5A
:103BA00000B134E06800A189B0FBF1F201FB120121
:103BB00004F1340001EB000A504600F02DF9804674
:103BC00025E0B4F80CA04FEAEA700AEB9070801080
:103BD000B5FBF0F0A16A00EB010B5946204600F05E
:103BE000D9FA00B113E0A800A189B0FBF1F201FB02
:103BF000120104F1340001EB000A504600F012F902
:103C000020F0704803E0FFE74FF0010800BF00BF5D
:103C10004046BDE8F09F0000004870470000F05AA1
:103C20002DE9F04105460C46A86908B9BDE8F081C8
:103C3000002637461CE03046761CEA6912F8008000
:103C4000B8F1200F00D113E0B8F1050F01D14FF00A
:103C5000E508092E05D12E2238467F1C04F1090102
:103C60000A5438467F1C04F1090101F8008000BFA6
:103C70000B2EE0D3002104F10900C155E869C07A98
:103C800000F03F002072E96901F11C0000F0CAF861
:103C90002060E96901F1160000F0BEF8E080E969F2
:103CA00001F1180000F0B8F8A08000BFBEE70000E6
:103CB000004870472002002030B5044620680146C5
:103CC000024611B94FF0FF3030BD00BF12F8013B82
:103CD000212B01D33A2BF9D13A2B14D102250878A4
:103CE000302808DB0878392805DC881C904202D18E
:103CF0000878A0F13005022D02DB4FF0FF30E3E73A
:103D000022602846E0E70020DEE7000070B50A48A0
:103D10000468001D0568001D0668344454B108227B
:103D20000649204602F0FEFB0422044910312846D1
:103D300002F0F8FB70BD0000E8F7FF1FF60100205D
:103D400081627047816170474FF6FF710160002109
:103D50008171017141710121C171704770B50A46CD
:103D600000211488A3B233E003F001046CB30468AB
:103D70004E000325B540AC43046094794D00AC403F
:103D800005682C430460446801258D40AC434460C1
:103D9000446815798D402C43446084684E000325A7
:103DA000B540AC438460D4794D00AC4085682C4369
:103DB0008460C4684E000325B540AC43C4605479A8
:103DC0004D00AC40C5682C43C4605B104C1CA1B2D4
:103DD000002BC9DC70BDF0B5002300244D07ED0EAB
:103DE00002FA05F3CD105DB1456A4E07F70E0F26B6
:103DF000BE40B5434562456A45EA030444620AE0B1
:103E0000056A4E07F70E0F26BE40B5430562056AE8
:103E100045EA03040462F0BD014648780A7842EAA4
:103E2000002070470146C8788A7842EA00204A7824
:103E300042EA00200A7842EA0020704770B5054641
:103E40000C4604F11A00FFF7E7FF0646287803281E
:103E500005D104F11400FFF7DFFF46EA00463046C3
:103E600070BD03F08BF903F035F802F0C5FF03F0E5
:103E7000FBF903F037FA03F00DF903F053F802F001
:103E800035FF02F059FF03F009FAFCF7DDFFFCF7FC
:103E900011FD03E003F012FAFCF732FCFAE7000030
:103EA0002DE9F74F84B00021059801600498FFF7D1
:103EB00003FF03900398002803DA0B2007B0BDE846
:103EC000F08FAE49039851F820400CB90C20F5E76B
:103ED00005980460069800F0FE000690207878B1FE
:103EE0006078FEF792FA074607F0010040B906989D
:103EF00020B107F0040008B10A20DFE70020DDE769
:103F0000002020706078FEF7F3F9074607F0010003
:103F100008B10320D2E7069820B107F0040008B1E9
:103F20000A20CBE7607804F10C020221FEF7F6F9D3
:103F300008B10120C2E7A089B0F5805F07DCA08945
:103F4000B0F5007F03DBA089411E084008B10120C5
:103F5000B4E700212046FFF79AFB0546042D01D166
:103F60000120ABE7022D01D30D20A7E7D4F8209064
:103F700004F13F00FFF750FFA189884201D00D20D6
:103F80009CE704F14A00FFF747FF064626B904F113
:103F90005800FFF747FF0646E6614420005DE070E9
:103FA000E078012804D0E078022801D00D2085E7D0
:103FB000E07846434120005D6081608918B16089E6
:103FC000411E084008B10D2078E704F14500FFF7D5
:103FD00023FF2081A089C11700EBD16149112289FB
:103FE00092FBF1F301FB132109B10D2066E704F107
:103FF0004700FFF711FF8246BAF1000F04D104F128
:104000005400FFF70FFF824604F14200FFF704FF60
:104010008346BBF1000F01D10D204FE7A089C117E6
:1040200000EBD1614911228992FBF1F10BEB060201
:104030001144029102998A4501D20D203EE702986F
:10404000AAEB00006189B0FBF1F8B8F1000F01D1D3
:104050000D2033E700254A48804500D803254FF658
:10406000F570804500D8022540F6F570804500D8EF
:1040700001250DB90D2021E708F10200A061C4F867
:10408000249009EB0B00A062029848442063032DA2
:1040900013D104F15E00FFF7BFFE08B10D200DE75C
:1040A000208908B10D2009E704F16000FFF7BAFE8E
:1040B000E062A0698000019014E0208908B90D2019
:1040C000FCE6A06A3044E062022D02D1A069400003
:1040D00007E0207E00F00100A16901EB410100EB47
:1040E00051000190A089401E01990844A189B0FBAC
:1040F000F1F0E169884201D90D20DFE64FF0FF3091
:104100006061206180206071032D2CD104F1640076
:10411000FFF782FE012826D109F10101204600F0B7
:1041200039F800BB0020607104F13400FFF77AFE1B
:104130001449884217D104F50670FFF773FE12493F
:10414000884210D104F50C70FFF76CFE0F498842CD
:1041500009D104F50770FFF765FE606104F508708A
:10416000FFF760FE2061257009480088401C80B27E
:1041700007490880E0800020A0E600009C000020A5
:10418000F5FFFF0F5252614172724161000055AA62
:10419000A400002070B504460D460026206AA842FF
:1041A00010D0204600F042FC06465EB9607801233C
:1041B0002A4604F13401FEF7F6F810B14FF0FF354E
:1041C00001262562304670BD2DE9F0470B461446A6
:1041D0004FF0000C00BF2C4A1268C2F302211D46AA
:1041E00026460A46C2F10709B9F1040F02D94FF079
:1041F000040901E0C2F10709C84602F10409B9F156
:10420000070F02D24FF0000901E0A2F103094F4667
:104210004FF0010909FA08F9A9F1010909EA0509AC
:1042200009FA07F94FF0010A0AFA07FAAAF1010A96
:104230000AEA060A49EA0A09CC460146624600290A
:1042400004DB15072E0E114D6E5407E015072F0ED7
:104250000D4D0C3501F00F06361FAF5500BF01465E
:1042600000290DDB00BF00BF01F01F050122AA409D
:104270004D09AD0005F1E025C5F8002100BF00BFE4
:1042800000BFBDE8F08700000CED00E000E400E0B6
:1042900000BF00F00702064B19684FF6FF031940F4
:1042A000044B0B4343EA0221014B196000BF7047E6
:1042B0000CED00E00000FA052DE9F05F04460D4624
:1042C00016464FF00209022D72D3A069A8426FD999
:1042D0002078012804D0022857D0032811D179E092
:1042E0002F4607EB5707A089B7FBF0F0A16A00EB58
:1042F000010A51462046FFF74DFF8146B9F1000FF4
:1043000000D09DE038467F1CA189B0FBF1F201FB93
:10431000120104F1340001EB000805F0010028B19E
:10432000F1B298F8000061F31F1000E0304688F801
:10433000000001202071A089B7FBF0F0A16A00EB1A
:10434000010A51462046FFF725FF8146B9F1000FCB
:1043500000D075E0A089B7FBF0F100FB117104F10A
:10436000340001EB000805F0010010B1C6F307109E
:1043700006E098F8000000F0F000C6F303210843BF
:1043800088F80000012020715AE0B4F80CA00AEB74
:10439000DA704010B5FBF0F0A16A00EB010B594652
:1043A0002046FFF7F7FE8146B9F1000F01D047E044
:1043B00047E06800A189B0FBF1F201FB120104F1B2
:1043C000340001EB000AB1B2504600F0C3FA0120FC
:1043D000207135E0B4F80CA04FEAEA700AEB907057
:1043E0008010B5FBF0F0A16A00EB010B59462046A6
:1043F000FFF7D0FE8146B9F1000F00D020E0A80001
:10440000A189B0FBF1F201FB120104F1340001EBD0
:10441000000A5046FFF706FD66F31B000646A8009B
:10442000A189B0FBF1F201FB120104F1340001EBB0
:10443000000A3146504600F093FA0120207100BF77
:1044400000BF4846BDE8F09F016C21F4807101F582
:10445000807101647047026961F312420261704722
:10446000014691F800017047026961F3020202619E
:10447000704710B50246002300204C6814600B7A88
:104480000C7C43EA0443CC7843EA04630C7843EAA7
:1044900004735360CC6894600C7D6000CC7C40EA6F
:1044A00084008C7C40EAC4004C7C40EA44104C7888
:1044B00040EA04408C7840EA0460D06010BD026A93
:1044C00061F3000202627047026A61F30D32026218
:1044D0007047026A61F309220262704741627047C5
:1044E0000246002001290CD0022902D004290CD157
:1044F00003E09369C3F3400008E0936903F001000F
:1045000004E0536A03F0010000E000BF00BF704701
:1045100070B586B006460C4615462348FEF742F8AD
:1045200001A8FDF7DAFF4FF48040ADF80C00A8B207
:10453000ADF80E0000208DF812008DF81300A6F1E2
:10454000E040019001208DF8100002948DF81100D8
:1045500002208DF8150000208DF8140001A91248E2
:10456000FDF7EEFF012110480838FEF753F8282127
:104570000D48FC30FEF755F801210B48FDF7A8FF68
:1045800000BF0A48FDF7C6FF0028FAD00748FDF72C
:10459000B1FF00210448FDF79BFF00210448FFF70D
:1045A0008EFF06B070BD00000864024002000010DB
:1045B000001000A070B586B006460C46154622488D
:1045C000FDF7F0FF4FF48040ADF80C00A8B2ADF855
:1045D0000E0000208DF812008DF8130001940120C8
:1045E0008DF81000A6F1E040029001208DF8110036
:1045F00002208DF8150000208DF8140001A9124842
:10460000FDF79EFF012110480838FEF703F8282126
:104610000D48FC30FEF705F801210B48FDF758FF67
:1046200000BF0A48FDF776FF0028FAD00748FDF7DB
:1046300061FF00210448FDF74BFF00210448FFF70C
:104640003EFF06B070BD000008640240020000108A
:10465000001000A0026961F304120261704710B5F6
:1046600000220369C3F300538B4200D110BD00BF89
:10467000836903F00103002BFAD0402200E000BF61
:10468000131EA2F10104A2B2F9D1036923F400239D
:1046900003F50023036100BF0369C3F30023002B6C
:1046A000FAD1402200E000BF131EA2F10104A2B221
:1046B000F9D1036961F31453036100BF0369C3F3C4
:1046C0000023002BFAD1012905D100BFC36BC3F32E
:1046D000C003002BFAD100BFC8E730B50246002462
:1046E00000230020CC788D7844EA05244D7844EAF4
:1046F000C5240D7844EA05341463CB798D7943EAF7
:1047000005234D7943EAC5230D7943EA0533536305
:10471000487B0D7B40EA0520CD7A40EAC5308D7A92
:1047200040EA05404D7A40EA05600D7A40EAC570DE
:10473000906330BD2DE9F04781460E4617464FF095
:104740000008D9F80040022E02D3A069B04202D876
:104750000220BDE8F08767B100BF4FF0FF32394655
:104760002046FFF7A9FD8046B8F1000F01D0404672
:10477000EFE700BF31464846FFF7B4F9054605B9F3
:1047800022E0012D01D10220E3E7681C08B90120D5
:10479000DFE7002231462046FFF78EFD8046B8F164
:1047A000000F01D04046D4E7D4E90510801E8142B5
:1047B00006D26069401C6061607940F00100607160
:1047C0002E46A069B042D5D800BF0020C1E7002125
:1047D000017041708170C17001714171817101215D
:1047E000C1717047026861F38612026070474268C7
:1047F00061F3820242607047C1607047C26922F46F
:104800000062C2610A7862B9026822F40042026062
:10481000026822F480420260026822F48062026030
:1048200036E00A78012A0ED1026822F400420260C2
:10483000026822F480420260026822F4806202F57B
:104840008062026024E00A78022A0ED1026822F413
:10485000004202F500420260026822F480420260D7
:10486000026822F48062026012E00A78032A0FD103
:10487000026822F4004202F500420260026822F45B
:10488000804202F580420260026822F48062026087
:10489000CB79026863F3492202604A78012A09D180
:1048A000CA79012A06D1026822F4807202F5807268
:1048B000026003E0026822F4807202604B780268B2
:1048C00063F3820202608A78072A0DDC426822F4D0
:1048D00000724260426822F4807242608B78026803
:1048E00063F3C502026020E08A780A2A0ED142688A
:1048F00022F4007202F500724260426822F4807273
:104900004260026822F0380202600EE0426822F43F
:1049100000724260426822F4807202F58072426046
:104920008A78036862F3C5030360CB78026863F397
:10493000C71202600B79026863F3CB2202604B79E5
:10494000026863F3410202608B79026863F300023C
:104950000260704700F8011B091200F8011B704744
:1049600000F8011B090A00F8011B090A00F8011BE5
:10497000090A00F8011B704770B506460C4615463B
:10498000A9B204F11A00FFF7E5FF3078032804D13B
:10499000290C04F11400FFF7DDFF70BD70B504466B
:1049A000204600F043F80546002D37D160790128F4
:1049B0002DD1002060712078032828D14FF4805138
:1049C00004F13400FBF735FE154904F13400FFF71C
:1049D000C7FF144904F50670FFF7C2FF04F507701E
:1049E0006169FFF7BDFF04F508702169FFF7B8FFA3
:1049F0000D4904F50C70FFF7B3FF616A491C0A46C4
:104A000021626078012304F13401FDF71EFD607816
:104A100000221146FDF782FC00B10125284670BD39
:104A20005252614172724161000055AA70B504464C
:104A300000252079E8B16078012304F13401226A6D
:104A4000FDF703FDA0B900202071A16A206A401A79
:104A5000E16988420DD2E07802280AD1D4E9073111
:104A6000CA186078012304F13401FDF7EEFC00E080
:104A70000125284670BD00002DE9FE4F00250026C7
:104A8000A946AA46AB460020029001900024FDF7FB
:104A90006BFA0090009820B101281ED0022855D151
:104AA00028E036480068C0F3803040B133480068E1
:104AB000C0F3003018B132483249086002E0324891
:104AC000304908602D48001D0068C0F302442D489D
:104AD0000068E0402B4908603CE02C482949086008
:104AE0002648001D0068C0F3C24408460068E04044
:104AF00008602FE021489C380068C0F3807A1F4886
:104B00009C380068C0F388151C489C38006800F089
:104B10000F061A489C380068C0F303401C4911F87E
:104B20000090BAF1000F02D1DFF85CB001E0DFF8CD
:104B30005CB006FB09FCABFB057001466246002336
:104B40003846FBF7DDFB0F49086003E00E480D49CE
:104B5000086000BF00BF094898380068C0F3031020
:104B600002900C490298085C01900648006801997F
:104B7000C84004490860BDE8FE8F0000A03802402C
:104B8000006CDC020400002000127A00001BB70059
:104B90006A7300085A730008042808D14FF0E02116
:104BA000096941F004014FF0E022116107E04FF084
:104BB000E021096921F004014FF0E0221161704702
:104BC00040F60401095821F0020240F604010A509F
:104BD0007047024682F8241340F22D30815400239E
:104BE000801C8354801C835440234FF44A708352AA
:104BF0000823401E83544FF4A073C01C8352012924
:104C000002D10223801C8354012340F231308354AB
:104C1000002340F2253083540020704710B504462D
:104C2000204602F079F810BD40F60401095821F041
:104C30000201891C40F60402115070474FF41061C4
:104C40000958CA0AD2024FF410610A5040F6040112
:104C5000095821F4807240F604010A507047014659
:104C600001F5306002680123B3EBD27F00D17047B9
:104C7000002202610123026963F3DC4202610269DE
:104C80006FF3120218320261026922F0C04202F18F
:104C9000C042026100BFEAE710B58A7812BB0A7809
:104CA00000F5106303EB4212126822F400140A7834
:104CB00003EB42121460CA78032A02D0CA78022A8F
:104CC00032D10A7800F5106303EB4212126822F029
:104CD000805202F180520B7800F5106404EB43130C
:104CE0001A6021E00A7800F5306303EB4212126883
:104CF00022F400140A7803EB42121460CA78032AE3
:104D000002D0CA78022A0FD10A7800F5306303EB8B
:104D10004212126822F0805202F180520B7800F5A4
:104D2000306404EB43131A6010BD10B58A78EABBF7
:104D300040F61C0212580C780123A3409A4340F617
:104D40001C031A500A7800F5106303EB4212126834
:104D50000123B3EBD27F1CD10A7800F5106303EB7B
:104D60004212126822F0804202F180420B7800F574
:104D7000106404EB43131A600A78234603EB4212D3
:104D8000126822F0006202F100620B7804EB431318
:104D90001A600A7800F5106303EB4212126822F4DD
:104DA00000440A7803EB421214603EE0FFE740F64D
:104DB0001C0213580C780122A24023EA024340F659
:104DC0001C0213500A7800F5306303EB421212689C
:104DD0000123B3EBD27F1CD10A7800F5306303EBDB
:104DE0004212126822F0804202F180420B7800F5F4
:104DF000306404EB43131A600A78234603EB421233
:104E0000126822F0006202F100620B7804EB431397
:104E10001A600A7800F5306303EB4212126822F43C
:104E200000440A7803EB4212146010BD10B501462D
:104E3000002000BF37E000EB400202EBC00301F1AD
:104E40000C0202F8230000EB400202EBC00301F168
:104E50000C0202EB83025070002300EB400202EBD5
:104E6000C00401F10C0202EB8402937000EB4002DB
:104E700002EBC00401F10C0202EB8402936000EB30
:104E8000400202EBC00401F10C0202EB8402536108
:104E900000EB400202EBC00401F10C0202EB8402C1
:104EA0009361421CD0B20828C5DB002038E000EB3B
:104EB000400202EBC00301F5B67202F8230000EBDA
:104EC000400202EBC00301F5B67202EB83025070A0
:104ED000012300EB400202EBC00401F5B67202EBC5
:104EE00084029370002300EB400202EBC00401F542
:104EF000B67202EB8402936000EB400202EBC00446
:104F000001F5B67202EB8402536100EB400202EB42
:104F1000C00401F5B67202EB84029361421CD0B268
:104F20000828C4DB10BD00F5106303EB41139A6041
:104F3000704730B502464FF40165AB5840F6340572
:104F4000AC5824FA01F505F0010543EAC51302F552
:104F5000106505EB4115AD6805EA030030BD30B5BD
:104F600000220B788BB98B68402B00D10DE08B6849
:104F7000202B01D1012208E08B68102B01D10222E5
:104F800003E08B68082B00D10322CB78012B07D1DB
:104F900040F604031B5843F4004440F604031C503D
:104FA0008B78002B61D140F61C031B580D7801242F
:104FB000AC40234340F61C0423500B7873B90B78A4
:104FC00000F5106404EB43131B6862F30A030C78CA
:104FD00000F5106505EB441423600EE00D890B7895
:104FE00000F5106404EB43131B6865F30A030C78A7
:104FF00000F5106505EB44142360CD780B7800F5BF
:10500000106404EB43131B6865F393430C7800F5BD
:10501000106505EB441423600D7800F5106404EB73
:1050200045131B6865F399532C4600F5106505EB95
:10503000441423600B782C4604EB43131B6823F0C5
:10504000805303F180530C7805EB441423600B78F4
:105050002C4604EB43131B6823F4004404F500447E
:105060000B7805EB43131C6053E040F61C031C58FF
:105070000D780123AB4044EA034440F61C031C5066
:105080000B7873B90B7800F5306404EB43131B689D
:1050900062F30A030C7800F5306505EB44142360D5
:1050A0000EE00D890B7800F5306404EB43131C68A7
:1050B00065F30A040B7800F5306505EB43131C60BB
:1050C000CD780B7800F5306404EB43131B6865F36F
:1050D00093430C7800F5306505EB441423600B789E
:1050E0002C4604EB43131B6823F0805404F18054D6
:1050F0000B7805EB43131C600B782C4604EB431331
:105100001B6823F4004303F500430C7805EB4414BB
:10511000236030BD00F5306303EB41139A607047A4
:10512000024602F5306000EB4110836840F614003F
:1051300080581840704710B58A7812BB0A7800F57D
:10514000106303EB42121268D20F4AB90A7803EBDC
:105150004212126822F080440A7803EB4212146073
:105160000A7800F5106303EB4212126822F4001271
:1051700002F500120B7800F5106404EB43131A607B
:1051800021E00A7800F5306303EB42121268D20F77
:105190004AB90A7803EB4212126822F080440A7876
:1051A00003EB421214600A7800F5306303EB4212FD
:1051B000126822F4001202F500120B7800F5306438
:1051C00004EB43131A6010BD0021026922F01002A3
:1051D0001032026105E00A46491C054B9A4200D98B
:1051E00004E00269C2F30012002AF4D100BF704744
:1051F000400D030010B50022036961F38A130361B7
:10520000036923F020032033036105E01346521C99
:10521000054CA34200D904E00369C3F34013002BFB
:10522000F4D100BF10BD0000400D0300014640F660
:1052300018004258001D4058104080B27047014687
:1052400040F618004258001D40581040000C7047AE
:105250004161704701464A6988691040704730B51E
:1052600004464FF6FF75A06B20F4803000F58030C7
:10527000A06300BF281EA5F10105FBD1204600F068
:105280000BF830BD012A03D183690B43836102E02F
:1052900083698B43836170470146002205E0104615
:1052A000521C0F4B984200D903E00869C00F002838
:1052B000F5D000BF0022086920F00100401C086101
:1052C00005E01046521C064B984200D904E00869DC
:1052D00000F001000028F4D100BF01207047000059
:1052E000E09304000146012901D1024870474FF0C4
:1052F000A040FBE70000044049B9C26822F0005218
:10530000C260C26822F0804202F18042C26001297C
:1053100009D1C26822F08042C260C26822F0005205
:1053200002F10052C260022907D1C26822F0804215
:10533000C260C26822F00052C2607047816821F0EA
:10534000010181607047816821F00101491C816081
:105350007047D0F8001E21F00101C0F8001E704710
:10536000F0B51746DD1C4FEAE57C05EB9C7C4FEA67
:10537000AC060C46002205E04FF480552D58256000
:10538000241D521CB242F7D3F0BDD0F8002861F3BF
:105390000A12C0F80028704741627047F0B5134602
:1053A00000240022426A19B942EA0345856215E0E9
:1053B000856A02EB1542002407E000F5827555F876
:1053C000245002EB1542651CECB24D1EA542F4DCE4
:1053D00042EA034700F5827646F82570F0BDD0F822
:1053E000001E21F00101491CC0F8001E7047014653
:1053F00040F60800405800F001007047F0B5044640
:105400001D4623465E68706A202902D0212924D1D6
:1054100011E01678577846EA0726977846EA074655
:10542000D77846EA0766466117790776577947764F
:105430009779877612E0067D1670868A360A56704E
:105440004669360C96704669360ED670067E167121
:10545000467E5671867E967100E000BF00BFF0BDAB
:105460002DE9F04706460F460025A946B046D8F874
:105470000400446AE07C10B90020BDE8F0870020F9
:10548000E074B4F81090002504E06068405D785541
:10549000681C85B2208AA842F7DCA08B83B2012168
:1054A0004046626800F0FFFC4846E6E72DE9F04719
:1054B00004460D4616464FF0010927467868D0F895
:1054C000248098F8120048B1002088F81200334672
:1054D0002A468121384600F072FD01E04FF00009B4
:1054E0004846BDE8F0872DE9F04780460E46D8F8DB
:1054F000007006EB460000EBC60108F10C0000EB63
:105500008104D4E90601451A4FF00009A068A842B9
:1055100000D2A568E81C4FEA900915E0D4E906011D
:10552000451AA068A84200D2A568E81C4FEA900975
:10553000ABB2B2B23846616900F021F86069284424
:105540006061E0692844E06107F5106000EB4610F7
:10555000806980B2484506D9D4E90610884202D253
:10556000A0690028DAD145B940F63400C0590121BC
:10557000B140884340F63401C851BDE8F087F0B52A
:10558000DE1C4FEAE67C06EB9C7C4FEAAC070D463E
:10559000002409E000F5805606EB0236D5F800C07D
:1055A000C6F800C02D1D641CBC42F3D3F0BD70B51D
:1055B0000446002504F5337694F80803022802D047
:1055C000032817D100E000BF7088012811D1002006
:1055D00084F80B03D4F8140320F00200C4F8140379
:1055E000606804F53371826820469047204600F0D9
:1055F0003CFA03E0204600F044FA00BF00BF284612
:1056000070BD2DE9F04104460D46276805F0800085
:1056100050B105F07F0000EB400101EBC00104F147
:105620000C0000EB810609E005F07F0000EB400173
:1056300001EBC00104F5B67000EB81063146384637
:10564000FFF72AFB00207073BDE8F08110B5044617
:105650002068FFF7B5FA10BD70B505460E4606F096
:105660007F0000EB400101EBC00105F10C0000EBF5
:105670008104002E54D195F8040302283FD1A1687B
:10568000606A884211D9A168606A401A6062A168A4
:10569000606A884201D2606A00E0A06883B200219B
:1056A0002846626900F08BFC29E0A168206A8842E4
:1056B00017D1A168A06A884213D3B5F80613A06A6F
:1056C00088420ED20020206200231A46194628463E
:1056D00000F075FC00231A463146284600F0E3FB33
:1056E0000DE06868C06838B195F80803032803D155
:1056F0006868C16828468847284600F096F995F8FA
:105700001C03C8B195F81C132868D0F8040861F38D
:1057100006102968C1F80408002085F81C030BE076
:105720006868406940B195F80803032804D16868A7
:10573000314642692846904770BD00002DE9FF5F61
:1057400005468A46C5F800A0564606F50064B06CCA
:1057500000F0C00B012085F808030E9830B9BBF1AA
:10576000000F03D0002085F8050302E0012085F832
:105770000503002085F80A03029868600398A86072
:10578000002085F81C03284600F0C6F92846FFF7DC
:105790004DFB3046FFF7D2FD3046FFF760FDD5F8F0
:1057A0001803012807D1BBF1000F04D0B06840F006
:1057B0002600B06002E00020C5F818030021304642
:1057C000FFF79AFD1920FFF729FA2868FFF7C1FDB6
:1057D000206820F4C05020600E9838B9BBF1000F4B
:1057E00004D0206820F0030020600DE0BBF1C00F62
:1057F00005D1206820F00300401C206004E02068F0
:1058000020F00300C01C206010213046FFF7F2FC9E
:105810003046FFF7D9FC4FF0FF30A0610020E06177
:1058200020616061002705E0002106F5827040F8E4
:1058300027107F1C082FF7D3284600F057FC0027BD
:1058400025E006F5106000EB4718D8F80000C00FFF
:1058500098B10020C8F80000D8F8000020F080407F
:1058600000F18040C8F80000D8F8000020F0006087
:1058700000F10060C8F8000002E00020C8F8000055
:105880000020C8F81000FF20C8F808007F1C082F6F
:10589000D7D3002725E006F5306000EB4719D9F88B
:1058A0000000C00F98B10020C9F80000D9F800002E
:1058B00020F0804000F18040C9F80000D9F80000D5
:1058C00020F0006000F10060C9F8000002E0002054
:1058D000C9F800000020C9F81000FF20C9F808002E
:1058E0007F1C082FD7D3206920F4807000F58070CA
:1058F00020610020B0616FF0804070610A48B061A3
:10590000D5F8180310B1BBF1000F03D1B06940F016
:105910001000B0612846FFF799FE3046FFF713FDEF
:10592000002004B0BDE8F09F0C383C8070B50546FF
:105930000E4606F07F0000EB400101EBC00105F5CB
:10594000B67000EB810426BB95F8040303282CD124
:10595000A168606A884211D9A168606A401A6062D1
:10596000A168606A884201D2606A00E0A06883B2E0
:1059700031462846626900F096FA16E068680069C8
:1059800018B16868016928468847284600F06DF814
:105990000BE06868806940B195F80803032804D1DA
:1059A0006868314682692846904770BD70B50446E4
:1059B0000D4604F5357104F5337001F0C7F8012088
:1059C00084F8040340F2D220005BA4F8060394F8A4
:1059D000CC0200F01F0020B1012806D002280CD113
:1059E00007E0204600F058F80BE0204600F0B9FD33
:1059F00007E0204600F096F803E0204600F041F86A
:105A000000BF00BF70BDF0B505460E46144605F553
:105A1000B677BC627C62032085F8040323463246D5
:105A20000021284600F03FFAF0BD10B504460520DD
:105A300084F8040300231A461946204600F033FA7E
:105A400010BD2DE9F04105460E46144605F10C0740
:105A5000BC627C62022085F80403234632460021A2
:105A6000284600F0ACFABDE8F08110B504460420E9
:105A700084F8040300231A461946204600F09FFAD2
:105A800010BD10B504460021204601F03AF88021EF
:105A9000204601F036F810BD70B50446002504F527
:105AA0003376307800F0600038B1606804F5337107
:105AB000826820469047284670BD40F2CD20005DA8
:105AC0000A2822D2DFE800F00509210D2111152155
:105AD000191D204600F059FC1BE02046FFF767FD2A
