:020000040800F2
:10000000A80D0020ED020008C9090008A10400089D
:10001000C509000899040008410F0008000000000D
:10002000000000000000000000000000610E000859
:100030009D04000800000000AD0A0008650E0008DD
:100040000703000807030008070300080703000868
:100050000703000807030008070300080703000858
:100060000703000807030008070300080703000848
:100070000703000807030008070300080703000838
:100080000703000807030008070300080703000828
:100090000703000807030008070300080703000818
:1000A0000703000807030008070300080703000808
:1000B00007030008070300080703000807030008F8
:1000C00007030008070300080703000807030008E8
:1000D00007030008070300080703000807030008D8
:1000E00007030008070300080703000800000000DA
:1000F00007030008070300080000000000000000DC
:1001000000000000000000000000000007030008DD
:100110000703000807030008070300080703000897
:100120000703000807030008070300080703000887
:1001300007030008000000000000000000000000AD
:10014000000000000000000000000000070300089D
:100150000703000807030008000000000703000869
:100160000703000807030008070300080703000847
:1001700007030008A50A00080000000000000000B6
:100180000000000007030008070300080703000839
:10019000000000000703000800000000000000004D
:1001A000000000000000000000000000000000004F
:1001B000070300080000000007030008000000001B
:1001C000000000000000000000000000000000002F
:1001D000000000000000000000000000070300080D
:1001E00000F002F800F072F814A696E8000CB24491
:1001F000B344DA4501D100F069F8BAE80F000FA660
:1002000096E83000A5EB040504EB0607AAEB07040B
:10021000A7F101074FEA15154FEA3414A4F10104C0
:10022000AC4201D300F052F813F0010F18BFFB1AD3
:1002300043F0010300F001F8DBE71847A054000089
:10024000C05400000A444FF0000C10F8013B13F0BA
:10025000070408BF10F8014B1D1108BF10F8015B1F
:10026000641E05D010F8016B641E01F8016BF9D112
:1002700013F0080F1EBF10F8014BAD1C0C1B09D169
:100280006D1E58BF01F801CBFAD505E014F8016BDB
:1002900001F8016B6D1EF9D59142D6D3704700006D
:1002A000704700000023002400250026103A28BFD4
:1002B00078C1FBD8520728BF30C148BF0B607047D8
:1002C0001FB505F0B8F91FBD10B510BD00F0A9F8B5
:1002D0001146FFF7F5FF01F0B7FD00F0C7F803B4D2
:1002E000FFF7F2FF03BC00F0CFF800000948804799
:1002F00009480047FEE7FEE7FEE7FEE7FEE7FEE708
:10030000FEE7FEE7FEE7FEE704480549054A064B1F
:10031000704700006D0E0008E1010008A8070020EA
:10032000A80D0020A8090020A809002053EA020C0B
:1003300000F069802DE9F04B4FF00006002B1FBF45
:10034000B3FA83F503FA05F424FA05F65E4012BF0A
:100350001643B2FA82F502FA05F4C5F120051EBF74
:1003600022FA05FC44EA0C04203556EA044C4FEA14
:10037000144418BF641C4FF000084FF0000990426D
:1003800071EB030C39D3002919BFB1FA81F701FAD7
:1003900007F6B0FA80F700FA07F6C7F120071EBF8C
:1003A00020FA07FC46EA0C062037B6FBF4FCA7EB64
:1003B0000507103F07F01F0BCBF120062CFA06F6BD
:1003C0000CFA0BFB44BFB3460026202FA4BF5E46A9
:1003D0004FF0000B5BEA060C08BF4FF0010B19EB66
:1003E0000B0948EB0608ABFB027C06FB02CC0BFBBF
:1003F00003CCC01B71EB0C01C1E70B460246414622
:100400004846BDE8F08B13B5084318BF4FF0FF30E6
:100410000146AFF30080BDE81C407047704770474D
:100420007047754600F02CF8AE4605006946534605
:1004300020F00700854618B020B5FFF765FFBDE83E
:1004400020404FF000064FF000074FF000084FF03B
:10045000000BAC46ACE8C009ACE8C009ACE8C00988
:10046000ACE8C00921F007018D46704710B504467D
:10047000AFF300802046BDE81040FFF730BF00001A
:1004800000487047E001002001491820ABBEFEE79C
:100490002600020070470000FFE7FEE770470000FB
:1004A000FFE7FEE780B582B040F24020C2F20000D4
:1004B00041890139808901388AB283B200210091D3
:1004C000084600F0F7F800F0C7FD00980190FFE73C
:1004D000019840F24022C2F20002518992895143B0
:1004E000884210D2FFE740F24020C2F2000081882B
:1004F00043F20000C4F2010000F0EAFDFFE70198BA
:1005000001300190E4E700F0BBFD02B080BD0000C7
:1005100080B584B0452000F0D1F9FFE743F2080030
:10052000C4F2010000688007002801D4FFE7F5E766
:1005300043F20001C4F201010191086820F040007B
:10054000086043F20402C4F20102106820F4007053
:100550001060106820F4807010600868032262F355
:10056000C5000860086840F0400008600022C4F23E
:100570000202106820F440701060106840F480702F
:1005800010602822C4F2020210201060086820F0D7
:1005900040000860086840F400400860086820F4E3
:1005A00080400860086820F480600860086840F0B7
:1005B0004000086000208DF80E00ADF80C0002909D
:1005C000FFE70298012814DCFFE743F20800C4F2B9
:1005D00001000068C00758B1FFE743F20C00C4F205
:1005E00001000068029A511C029103A98854FFE798
:1005F000E7E7BFF34F8FFFE743F20800C4F20100C3
:100600000068C00708B9FFE7F6E743F20C00C4F240
:10061000010000688DF80E00FFE743F20800C4F205
:10062000010000688007002801D4FFE7F5E71821E2
:10063000C4F20201102008600021C4F2020108681F
:1006400020F440700860086840F40070086043F2CD
:100650000001C4F20101086820F040000860086849
:1006600040F400400860086840F480400860086872
:1006700020F48060086043F20402C4F201021068B2
:1006800040F400701060106820F4807010600868FA
:1006900020F038000860086840F0400008609DF8CD
:1006A0000D109DF80E00002818BF012040EA4100FF
:1006B00004B080BD80B584B0ADF80E00ADF80C106C
:1006C000ADF80A20ADF8083000F0DAFC2A2000F07E
:1006D000F5F8BDF80E0040F24021C2F20001019190
:1006E000897B084480B200F04BF90199BDF80A00FB
:1006F000897B084480B200F043F92B2000F0DEF83B
:100700000199BDF80C00C97B084480B200F038F9AB
:100710000199BDF80800C97B084480B200F030F9A7
:100720002C2000F0CBF804B080BD000083B0029014
:100730000020ADF80600ADF80400ADF80200029804
:1007400000F47800000AADF80600029800F47C403E
:100750004009ADF804009DF80800C008ADF802009B
:10076000BDF80600BDF804100843BDF802100843A8
:1007700040F24021C2F20001486003B0704700001F
:1007800083B002900020ADF80600ADF80400ADF88B
:100790000200029800F47800000AADF80600029802
:1007A00000F47C404009ADF804009DF80800C00842
:1007B000ADF80200BDF80600BDF804100843BDF80E
:1007C0000210084340F24021C2F20001086003B069
:1007D0007047000080B582B08DF807009DF80700D3
:1007E00040F24021C2F2000148729DF80700A0B912
:1007F000FFE7362000F062F8702000F0D5F840F2F4
:100800004021C2F20001002088732320C8734FF4F6
:10081000A0704881AA2088814DE09DF80700022839
:1008200015D1FFE7362000F049F80020009000F0D5
:10083000BBF8009840F24021C2F2000123228A73E3
:10084000C873AA2048814FF4A070888132E09DF8D7
:100850000700012814D1FFE7362000F02FF8A02070
:1008600000F0A2F840F24021C2F20001002088739B
:100870002320C8734FF4A0704881AA20888118E013
:100880009DF80700032813D1FFE7362000F016F883
:10089000C02000F089F840F24021C2F2000100209F
:1008A0008873C873AA2048814FF4A0708881FFE73D
:1008B000FFE7FFE7FFE702B080BD000080B582B030
:1008C0008DF807000020ADF80400ADF80400FFE744
:1008D000BDF80400952808DCFFE700BFFFE7BDF87E
:1008E00004000130ADF80400F2E740F20040C4F229
:1008F0000200082101F0CAF90020ADF80400FFE76A
:10090000BDF80400952808DCFFE700BFFFE7BDF84D
:1009100004000130ADF80400F2E79DF8071043F23F
:100920000000C4F2010000F0BFFB0020ADF804009D
:10093000FFE7BDF80400952808DCFFE700BFFFE7EC
:10094000BDF804000130ADF80400F2E740F20040C9
:10095000C4F20200082101F0A3F90020ADF8040060
:10096000FFE7BDF80400952808DCFFE700BFFFE7BC
:10097000BDF804000130ADF80400F2E702B080BD1C
:1009800080B582B0ADF806009DF8071043F2000074
:10099000C4F20100009000F087FB00989DF806105B
:1009A00000F082FB02B080BD80B582B08DF80700F8
:1009B0009DF8071043F20000C4F2010000F074FB40
:1009C00002B080BDFFE7FEE77047000088B00790E7
:1009D00006910592079800F0070004900498C0F172
:1009E0000700052803D3FFE70420019004E00498E2
:1009F000C0F107000190FFE70198039004980430CC
:100A0000062803D8FFE70020009003E0049803388D
:100A10000090FFE70098029006980399012202FADD
:100A200001F101390840029B984005999A40013A2A
:100A30001140084308B0704788B0079006910592AE
:100A4000079800F0070004900498C0F107000528FB
:100A500003D3FFE70420019004E00498C0F10700ED
:100A60000190FFE70198039004980430062803D80A
:100A7000FFE70020009003E0049803380090FFE7B0
:100A80000098029006980399012202FA01F10139B7
:100A90000840029B984005999A40013A114008434A
:100AA00008B0704780B504F099FB80BD7047000026
:100AB00080B59CB040F20040C4F202004FF4807157
:100AC00001F0EEF80020C4F2020000904FF4004163
:100AD000019101F0E5F80A201A9004F09DFA0098BF
:100AE000019901F0D3F8642004F096FA0098019976
:100AF00001F0D6F87820199004F08EFAFD201490B9
:100B0000FFF7DCFE0620FFF74FFF08200390FFF7FA
:100B10004BFF6120FFF7D2FE07200C90FFF744FF48
:100B20000C98FFF741FF73200290FFF7C7FE70207B
:100B30001190FFF739FF0298FFF7C0FE00201690D2
:100B4000FFF732FF6220FFF7B9FE1698FFF72CFF80
:100B50004420FFF729FF40200490FFF725FF632082
:100B6000FFF7ACFE4120FFF71FFF0C98FFF71CFFBB
:100B700012201090FFF718FF1098FFF715FF65205F
:100B8000FFF79CFE0398FFF70FFF17200990FFF770
:100B90000BFF21201790FFF707FF6620FFF78EFE5F
:100BA0000398FFF701FF0998FFF7FEFE1798FFF77C
:100BB000FBFE6720FFF782FE20200790FFF7F4FE80
:100BC0000498FFF7F1FE6820FFF778FE9020FFF70A
:100BD000EBFE30201390FFF7E7FE2720FFF7E4FE3F
:100BE0002C20FFF7E1FEB120FFF768FE0F200B90ED
:100BF000FFF7DAFE02201B90FFF7D6FE01201290CD
:100C0000FFF7D2FEB420FFF759FE1298FFF7CCFE93
:100C1000B520FFF753FE1B98FFF7C6FE1B98FFF7A2
:100C2000C3FE1A98FFF7C0FE1420FFF7BDFEB620E2
:100C3000FFF744FE04200E90FFF7B6FE1298FFF770
:100C4000B3FE9F20FFF7B0FE1698FFF7ADFE1B988E
:100C5000FFF7AAFEDF20FFF731FE11201890FFF703
:100C6000A3FEE220FFF72AFE23200590FFF79CFE5B
:100C700022200890FFF798FE0598FFF795FE352093
:100C80001590FFF791FE3820FFF78EFE3F2006906B
:100C9000FFF78AFEE520FFF711FE0698FFF784FEB6
:100CA0001398FFF781FE2D20FFF77EFE1D20FFF732
:100CB0007BFE0798FFF778FE0898FFF775FEE120A6
:100CC000FFF7FCFD1398FFF76FFE1998FFF76CFE16
:100CD000E420FFF7F3FD6920FFF766FE2F20FFF702
:100CE00063FEE020FFF7EAFD05200D90FFF75CFEB4
:100CF0000D98FFF759FE1020FFF756FE1098FFF7EA
:100D000053FE1898FFF750FE0D20FFF74DFE0E2002
:100D1000FFF74AFE0998FFF747FEE320FFF7CEFDF5
:100D200013200A90FFF740FE0A98FFF73DFE0A984D
:100D3000FFF73AFE0C20FFF737FE0B98FFF734FE63
:100D40000C98FFF731FE0D98FFF72EFE0D98FFF778
:100D50002BFEE620FFF7B2FD1698FFF725FEFF20D9
:100D6000FFF722FEE720FFF7A9FD1298FFF71CFE10
:100D70000E98FFF719FE03200F90FFF715FE0F984E
:100D8000FFF712FE1698FFF70FFE1098FFF70CFE04
:100D9000E820FFF793FD1698FFF706FE1198FFF77E
:100DA00003FE1698FFF700FEEC20FFF787FD5220A8
:100DB000FFF7FAFDF120FFF781FD1298FFF7F4FD30
:100DC0001298FFF7F1FD1B98FFF7EEFDF620FFF7F5
:100DD00075FD1298FFF7E8FD1398FFF7E5FD1698EB
:100DE000FFF7E2FD1698FFF7DFFD1498FFF766FDA9
:100DF000FA20FFF7D9FDFC20FFF7D6FD3A20FFF7D8
:100E00005DFD5520FFF7D0FD1598FFF757FD1698AB
:100E1000FFF7CAFD3620FFF751FD1698FFF7C4FD16
:100E20001798FFF74BFD1898FFF748FD199804F045
:100E3000F3F82920FFF742FD1A9804F0EDF81B980B
:100E4000FFF7C8FC4FF6FF70FFF79AFC48F2FF006F
:100E5000C0F28000FFF76AFCFFF724FB1CB080BDE6
:100E60007047000080B504F093FB80BD80B54EF65E
:100E70008851CEF20001086840F47000086001203B
:100E800000F01CFB43F60001C4F20201086840F0C8
:100E900001000860FFE743F60000C4F202000068AA
:100EA0004008C00708B9FFE7F5E743F60801C4F2B8
:100EB0000201086820F003000860FFE743F608001D
:100EC000C4F2020000688008800708B1FFE7F5E778
:100ED00043F60801C4F202014FF08040086043F677
:100EE0000001C4F2020108684FF6FF72CFF6F26209
:100EF0001040086043F60401C4F2020140F2C170E0
:100F0000086043F6A001C4F20201086800F4A040A2
:100F10000860086840F47020086043F60C01C4F2D1
:100F200002014FF41F000860002000F0C7FA4EF6DF
:100F30000851CEF200014FF00060086080BD000053
:100F4000FFE7FEE781B08DF803009DF9030000285C
:100F50000ED4FFE79DF9031001F01F02012090401D
:100F60004A094EF20011CEF2000141F82200FFE7DB
:100F700001B070474EF60C50CEF200000068C0F38E
:100F8000022070474EF60C50CEF200000068C0F30D
:100F90000220704782B08DF8070000919DF907008C
:100FA00000280AD4FFE7009800019DF907104EF2CF
:100FB0000042CEF2000288540BE0009800019DF838
:100FC000071001F00F014EF61452CEF200028854C1
:100FD000FFE702B07047000082B08DF80700009173
:100FE0009DF9070000280AD4FFE7009800019DF949
:100FF00007104EF20042CEF2000288540BE0009837
:1010000000019DF8071001F00F014EF61452CEF2C8
:1010100000028854FFE702B07047000083B00290DE
:10102000029800F0070000904EF60C51CEF200013D
:101030000868019001984FF6FF0210400190019856
:10104000009A40EA02200022C0F2FA5210430190B6
:101050000198086003B0704780B582B043F2000089
:10106000C4F201000190002101F028F80198016804
:1010700041F400610160012101F020F802B080BD5F
:1010800080B582B043F20000C4F20100019000215B
:1010900001F014F80198016821F400610160012158
:1010A00001F00CF802B080BD80B582B001908DF8DF
:1010B0000310FFE7019880688007002801D4FFE74C
:1010C000F8E701989DF8031001F01CF802B080BD0C
:1010D00080B582B00190ADF80210FFE701988068FA
:1010E0008007002801D4FFE7F8E70198BDF8021057
:1010F00001F008F802B080BD80B584B003900020F4
:101100008DF80B00039801900198812102F08EFD6B
:101110000198012102F08AFD9DF80B0004B080BD0A
:1011200080B586B0059000218DF8131005980390C6
:1011300003984068406A0290039803F04DF90190CB
:10114000029890F80C0109280CD1FFE70598029944
:101150008C31BDF8042001F053FE0299002081F883
:101160000C01FFE79DF8130006B080BD82B001902E
:1011700000208DF803009DF8030002B070470000C6
:1011800083B002908DF8071000208DF806009DF8BE
:10119000070001460091012808D0FFE700980228C7
:1011A00005D0FFE70098032802D002E002E001E04A
:1011B00000E0FFE79DF8060003B0704784B003909D
:1011C0008DF80B1000208DF80A0003990191019908
:1011D0004968496A0091009981F80D019DF80A005B
:1011E00004B0704780B588B00790002003908DF858
:1011F0001B000798059005984068406A0490059880
:101200008121032200924023029302F0A7FD009A5D
:10121000029B05980121019102F0A0FD0199029B1A
:101220000598049A02F0D8FD0398049981F80D01FD
:101230009DF81B0008B080BD80B586B005908DF884
:10124000131000208DF81200059803900398406851
:10125000406A029003989DF8131003F0BDF80190C6
:1012600005980299BDF8042001F0CAFD0398029A7E
:10127000BDF80430012102F0AFFD9DF8120006B068
:1012800080BD000080B58CB00B900A9100208DF8D5
:1012900027000B98089008984068406A07900A98C1
:1012A000007800F0600001460491002848D0FFE774
:1012B0000498202840F0AE80FFE70A984078013873
:1012C000014603910A2836D80399DFE801F02C196A
:1012D0000C3434343434201306000A98807807998B
:1012E000C1F880002BE0089807998031012202F0B4
:1012F00075FA24E00A98C0780799C1F884001EE0C6
:10130000089807998431012202F068FA17E00799DA
:10131000092081F80C01089807998C310A9AD28823
:1013200002F02CFA0BE008980799CC310A9AD2887F
:1013300002F054FA03E0089802F07EFAFFE76DE04D
:101340000A9840780138014602910A285DD802992E
:10135000DFE801F0595B5A5B5B065B5B5B4C53005B
:101360000A98C07822281BD1FFE70A98C0887F28F6
:1013700003DBFFE77E20019003E00A98C08801901C
:10138000FFE70198ADF81A0040F2D400C2F2000065
:10139000059008980599BDF81A2002F01FFA24E07C
:1013A0000A98C07821281BD1FFE70A98C0880A282C
:1013B00003DBFFE70920009003E00A98C088009053
:1013C000FFE70098ADF81A0040F27C00C2F200007E
:1013D000059008980599BDF81A2002F0FFF903E07E
:1013E000089802F029FAFFE7FFE712E0089807994A
:1013F0008831012202F0F2F90BE00A98408807993F
:10140000C1F8880005E004E003E0089802F014FA4F
:10141000FFE703E0089802F00FFAFFE79DF82700C6
:101420000CB080BD82B0019000208DF803009DF8C3
:10143000030002B07047000080B582B08DF807004D
:10144000012000F03BF89DF8072043F60801C4F2A4
:101450000201086802F00F0220F0F00040EA0210DA
:101460000860002000F02AF802B080BD81B08DF83D
:1014700003009DF8032043F60801C4F20201086846
:1014800002F0070220F4E05040EA8220086001B038
:101490007047000081B08DF803009DF8032043F6EB
:1014A0000801C4F20201086802F0070220F460405B
:1014B00040EA4230086001B07047000081B08DF80A
:1014C00003009DF80300012809D1FFE743F6A401BA
:1014D000C4F20201086840F03000086008E043F6FA
:1014E000A401C4F20201086820F030000860FFE7A0
:1014F00001B0704782B08DF807008DF806109DF896
:10150000070001460091042844D80099DFE801F063
:10151000030E1D2C37009DF8062043F60001C4F28F
:101520000201086862F30000086034E09DF80620BC
:1015300043F60001C4F20201086802F0010220F43F
:10154000803040EA0240086025E09DF8062043F61E
:101550000001C4F20201086802F0010220F080706C
:1015600040EA0260086016E09DF8062043F670012C
:10157000C4F20201086862F3000008600BE09DF805
:10158000062043F67401C4F20201086862F3000009
:10159000086000E0FFE702B07047000080B58CB043
:1015A0000B90002000900A900990089007900690F8
:1015B00005900490039000F079FA8DF80B009DF8E7
:1015C0000B000146019140B1FFE70198012832D09C
:1015D000FFE70198022842D076E043F6A000C4F26B
:1015E00002000068800BC00780B1FFE743F6A0004F
:1015F000C4F202000068000BC00738B1FFE70B9986
:1016000046F60040C0F2DC20086006E00B9941F28B
:101610000020C0F27A000860FFE743F6A400C4F29D
:1016200002000068C0F3024003900B990868039A17
:10163000D04008604FE00B9941F60030C0F2B7008F
:10164000086043F6A400C4F202000068C0F3C24080
:1016500003900B990868039AD04008603BE043F67A
:101660000400C4F202000168C1F3807107910168AF
:10167000C1F388110A91016801F00F010991006816
:10168000C0F3034145F26060C0F60000405C089082
:10169000079830B9FFE741F20020C0F27A000690C7
:1016A00005E041F60030C0F2B7000690FFE706986B
:1016B0000A99A0FB0101099A089B5A430023FEF7EF
:1016C00035FE0B99086006E00B9941F20020C0F24C
:1016D0007A000860FFE743F60800C4F202000168E0
:1016E000C1F303110591059A45F27061C0F600013E
:1016F000895C04910B9A1168049BD9405160016880
:10170000C1F382210591059A45F25061C0F60001AE
:10171000895C04910B9A5168049BD940D1600068A0
:10172000C0F342300590059945F25860C0F60000BC
:10173000405C04900B994868049AD04088600CB0D3
:1017400080BD000082B0019000208DF80300BDF83C
:10175000060043F60001C4F202014058019901F06D
:101760001F01C840C00720B9FFE700208DF8030023
:1017700003E001208DF80300FFE79DF8030002B0AD
:101780007047000080B584B0002003908DF80B00F6
:10179000FFE71120FFF7D6FF014600200129019045
:1017A00008D0FFE703990020B1F5405F38BF012062
:1017B0000190FFE70198C00720B1FFE703980130CF
:1017C0000390E6E71120FFF7BDFF012804D0FFE7F3
:1017D00000208DF80B0003E001208DF80B00FFE7DF
:1017E0009DF80B0004B080BD80B582B08DF8070075
:1017F00043F6A400C4F202000068C0F302408DF872
:10180000060043F6A000C4F2020000900068C0F396
:1018100080308DF80500042000F048F8009900BFE2
:1018200000BF00BF00BF00BF00BF00BF00BF00BFC0
:1018300000BF00BF00BF00BF00BF00BF00BF00BFB0
:1018400000BF00BF00BF00BF00BF00BF00BF00BFA0
:1018500000BF00BF00BF00BF00BF00BF00BF00BF90
:1018600000BF00BF00BF00BF00BF00BF00BF0868CF
:1018700040F4804008609DF80720086802F00102EB
:1018800020F4805040EA023008609DF80520086886
:1018900002F0010220F4804040EA823008609DF8A6
:1018A000060000F003F802B080BD000081B08DF8A2
:1018B00003009DF8032043F6A401C4F20201086866
:1018C00002F0070220F4E02040EA0240086001B084
:1018D0007047000082B001908DF803109DF803005E
:1018E00001280FD1FFE7019800F01F02012101FA42
:1018F00002F3010C43F60002C4F2020288581843B6
:1019000088500EE0019800F01F02012101FA02F355
:10191000010C43F60002C4F2020288589843885032
:10192000FFE702B07047000080B582B08DF8070075
:10193000ADF80410ADF802208DF801309DF80700D5
:1019400020B9FFE70120FFF74FFFFFE79DF80720D1
:1019500043F60401C4F20201086802F0010220F01B
:10196000804040EA82700860BDF8042008686FF388
:101970005F2247F6C073984340EA82100860BDF8C2
:101980000220086862F3030008609DF801200868DF
:1019900002F00F0220F4702040EA0240086002B01A
:1019A00080BD000081B08DF803009DF8032043F650
:1019B0000401C4F20201086802F0070220F4E0000A
:1019C00040EA0250086001B07047000080B5012075
:1019D000FFF774FD43F60001C4F20201086840F00D
:1019E00001000860FFE743F60000C4F2020000684F
:1019F0004008C00708B9FFE7F5E743F60801C4F25D
:101A00000201086820F003000860FFE743F60800C1
:101A1000C4F2020000688008800708B1FFE7F5E71C
:101A200043F60801C4F202014FF08040086043F61B
:101A30000001C4F2020108684FF6FF72CFF6F262AD
:101A40001040086043F60401C4F2020140F2C17084
:101A5000086043F6A001C4F20201086800F4A04047
:101A60000860086840F47020086043F60C01C4F276
:101A700002014FF41F0008600020FFF71FFD80BD2A
:101A800080B582B08DF807000120FFF717FD9DF8A3
:101A9000072043F60801C4F20201086862F301005E
:101AA00008600020FFF70AFD02B080BD43F6080081
:101AB000C4F202000068C0F38100704780B586B0B0
:101AC00005900491ADF80E2001208DF80D000598C9
:101AD000029002984068406A0190029801F0BCFBB5
:101AE000032814D1FFE7019890F80D0178B9FFE7BA
:101AF0000199012081F80D010298049ABDF80E3079
:101B0000812102F0FBF900208DF80D00FFE79DF820
:101B10000D0006B080BD000080B582B045F2A06027
:101B2000C0F6000040F26031C2F20001019103F002
:101B300013FA0199024640F29C70C2F20000028042
:101B4000416002B080BD000040F20000C2F200001F
:101B50007047000040F26C00C2F2000070470000C5
:101B600080B582B045F28B60C0F6000040F2603173
:101B7000C2F20001019103F0EFF90199024640F22F
:101B80009C70C2F200000280416002B080BD000083
:101B900040F2CC10C2F200007047000080B582B065
:101BA00045F2B260C0F6000040F26031C2F20001BE
:101BB000019103F0D1F90199024640F29C70C2F202
:101BC00000000280416002B080BD000040F21000C1
:101BD000C2F200007047000080B582B045F280601C
:101BE000C0F6000040F26031C2F20001019103F042
:101BF000B3F90199024640F29C70C2F200000280E3
:101C0000416002B080BD000040F27400C2F20000EA
:101C10007047000080B500F00BF840F2D410C2F21B
:101C2000000080BD40F20800C2F2000070470000D2
:101C300080B584B04FF2E870C1F6FF700068039081
:101C40004FF2EC70C1F6FF70006802904FF2F07036
:101C5000C1F6FF7000680190019903980844039051
:101C6000039888B1FFE7039840F28C01C2F20001AB
:101C700000910231082202F0D7FC0099029812313B
:101C8000042202F0D1FCFFE704B080BD82B00190D5
:101C9000ADF80210BDF802000199886202B07047E9
:101CA00082B00190ADF80210BDF802000199886180
:101CB00002B0704781B0009000994FF6FF70086045
:101CC0000099002088710099087100994871009965
:101CD0000120C87101B0704783B0029001910020CB
:101CE000ADF8000001980068ADF80200FFE7BDF80C
:101CF0000200012862DBFFE7BDF80200C0070028F0
:101D000051D0FFE7BDF800004100032000FA01F3C5
:101D1000029A11689943116001998979BDF80020F0
:101D2000520001FA02F3029A116819431160BDF8DA
:101D30000020012101FA02F3029A5168994351608F
:101D400001990979BDF8002001FA02F3029A51685D
:101D500019435160BDF80010490000FA01F3029ADE
:101D60009168994391600199C979BDF800205200AA
:101D700001FA02F3029A916819439160BDF80010CC
:101D8000490000FA01F20299C8689043C8600198BE
:101D90004079BDF80010490000FA01F20299C868C4
:101DA0001043C860FFE7BDF802004008ADF802002C
:101DB000BDF800000130ADF8000098E703B07047AF
:101DC00084B003908DF80B108DF80A20002001904C
:101DD00000909DF80A109DF80B2002F00702920077
:101DE000914001919DF80B10B0EBD10F15D0FFE79A
:101DF0009DF80B0000F0070081000F2000FA01F2AF
:101E00000399486A904348620398406A01990843DD
:101E1000009000980399486214E09DF80B0000F0D0
:101E2000070081000F2000FA01F20399086A90432D
:101E300008620398006A019908430090009803998A
:101E40000862FFE704B0704780B582B000200190BF
:101E500003F024FB03F0CAF903F066F903F0A4FBD6
:101E600003F0E8FB03F09EFA03F0E8F903F0EEF864
:101E700003F0C8FBFEF71CFEFFE703F0D9FB4FF4AD
:101E80007F00FEF753FCFFE7FEF742FBB0F5A27FB1
:101E900001DAFFE7F8E7FEF705FB012003F0BCF8E5
:101EA000FF20FEF743FCFFE7FEF732FBB0F5A27F11
:101EB00001DAFFE7F8E7FEF7F5FA012003F0ACF8E6
:101EC000DBE7000080B584B08DF80F00029101922D
:101ED00000200090FFF756F80299019AFEF7ACFD3A
:101EE00000909DF90F000099FFF776F89DF90F001B
:101EF000FFF728F804B080BD80B582B08DF80700E8
:101F00009DF80700FFF78AF802B080BD81B000900D
:101F10000099086C40F48070086401B070470000BC
:101F200082B001908DF803109DF803200199086993
:101F300002F0070220F4E02040EA0240086102B00B
:101F40007047000082B001908DF803109DF80320C7
:101F50000199086962F30200086102B0704700004D
:101F600082B001908DF803109DF803200199086A52
:101F700002F0030220F4405040EA0230086202B04E
:101F80007047000082B001908DF803109DF8032087
:101F90000199086A02F0030220F4407040EA02202E
:101FA000086202B07047000082B001908DF8031003
:101FB0009DF803200199086902F0010220F0100049
:101FC00040EA0210086102B07047000082B0019040
:101FD0008DF803100020ADF800009DF80300019972
:101FE0000969C1F30051884201D1FFE74EE0FFE7E4
:101FF00001988069C00708B9FFE7F9E74020ADF80C
:102000000000FFE7BDF80000411EADF8001010B160
:10201000FFE700BFF6E70199086940F40020086176
:10202000FFE701980069000AC00708B1FFE7F8E779
:102030004020ADF80000FFE7BDF80000411EADF8FC
:10204000001010B1FFE700BFF6E79DF803200199EB
:10205000086902F0010220F4801040EA0250086191
:10206000FFE701980069000AC00708B1FFE7F8E739
:102070009DF80300012809D1FFE7FFE70198C06B35
:10208000C008C00708B1FFE7F8E7FFE702B07047F4
:1020900081B0009000990020087000994870009964
:1020A00088700099C870009908710099487100996A
:1020B000887100990120C87101B0704782B0019009
:1020C0008DF803109DF803200199086802F00102C1
:1020D00020F0400040EA8210086002B07047000023
:1020E00082B001908DF803109DF803200199486893
:1020F00002F0010220F0040040EA8200486002B0D1
:102100007047000082B00190ADF80210BDF80200E7
:102110000199C86002B0704782B0019000910199A6
:10212000C86920F40060C8610098007880B9FFE7B2
:102130000199086820F4004008600199086820F4BB
:10214000804008600199086820F48060086041E0E0
:1021500000980078012810D1FFE70199086820F461
:10216000004008600199086820F4804008600199E7
:10217000086840F4806008602BE00098007802282E
:1021800010D1FFE70199086840F400400860019908
:10219000086820F4804008600199086820F4806095
:1021A000086015E000980078032810D1FFE7019936
:1021B000086840F4004008600199086840F48040D5
:1021C00008600199086820F480600860FFE7FFE775
:1021D000FFE7FFE70098C2790199086802F0010261
:1021E00020F4007040EA42200860009840780128FE
:1021F0000BD1FFE70098C079012806D1FFE70199CC
:10220000086840F48070086005E00199086820F4CF
:1022100080700860FFE7009842780199086802F032
:10222000010220F0040040EA8200086000988078F3
:10223000072816DCFFE70199486820F40070486021
:102240000199486820F4807048600098827801996C
:10225000086802F0070220F0380040EAC200086077
:102260002BE0009880780A2810D1FFE70199486890
:1022700040F4007048600199486820F4807048601C
:102280000199086820F03800086015E00199486855
:1022900020F4007048600199486840F480704860FC
:1022A0000098807800F007020199086820F0380053
:1022B00040EAC2000860FFE7FFE70098C278019992
:1022C000086802F0010220F0800040EAC2100860B5
:1022D000009802790199086802F0010220F4006078
:1022E00040EAC2200860009842790199086802F02B
:1022F000010220F0020040EA420008600098827962
:102300000199086862F30000086002B0704700009D
:1023100080B58CB0002001900B900A900990089035
:102320000790069005900490FFF7C0FB8DF80F0012
:102330009DF80F000146029140B1FFE70298012885
:102340003BD0FFE7029802284DD084E043F6A0007E
:10235000C4F202000068800BC00798B1FFE743F6A3
:10236000A000C4F202000068000BC00750B1FFE7F4
:1023700040F2DC11C2F2000146F60040C0F2DC205F
:10238000086009E040F2DC11C2F2000141F20020D5
:10239000C0F27A000860FFE743F6A400C4F202002E
:1023A0000068C0F30240049040F2DC11C2F2000168
:1023B0000868049AD040086057E040F2DC11C2F28D
:1023C000000141F60030C0F2B700086043F6A400F7
:1023D000C4F202000068C0F3C24004900868049A86
:1023E000D040086041E043F60400C4F202000168F6
:1023F000C1F3807108910168C1F388110B910168E4
:1024000001F00F010A910068C0F3034145F2B96081
:10241000C0F60000405C0990089830B9FFE741F22F
:102420000020C0F27A00079005E041F60030C0F2CB
:10243000B7000790FFE707980B99A0FB01010A9AE4
:10244000099B5A430023FDF771FF40F2DC11C2F2F1
:102450000001086009E040F2DC11C2F2000141F223
:102460000020C0F27A000860FFE743F60800C4F2DB
:1024700002000068C0F303100690069945F2C96097
:10248000C0F60000405C059040F2DC11C2F2000191
:102490000868059AD04008600CB080BD81B08DF806
:1024A00003009DF80300042809D1FFE74EF2100154
:1024B000CEF20001086840F00400086008E04EF227
:1024C0001001CEF20001086820F004000860FFE768
:1024D00001B0704781B000900099D1F8040820F055
:1024E0000200C1F8040801B07047000082B00190FA
:1024F0008DF803109DF80300019981F824039DF8DD
:102500000300019981F82D030199002081F82F0320
:10251000019981F8310301994020A1F8280301991C
:10252000082081F8270301994FF4A070A1F82A032D
:102530009DF80300012805D1FFE70199022081F8E9
:102540002C03FFE70199012081F831030199002054
:1025500081F8250302B0704780B582B001900198E0
:1025600002F05AFD02B080BD81B000900099D1F810
:10257000040840F00200C1F8040801B070470000F0
:1025800081B000900099D1F8000940F2FF729043A9
:10259000C1F800090099D1F8040820F48070C1F84E
:1025A000040801B07047000082B00190019800F566
:1025B00030600090009801680120B0EBD17F01D11C
:1025C000FFE714E0009900200861009908690122E2
:1025D00062F3DC40086100990869182262F3120076
:1025E00008610099086940F0C0400861FFE702B047
:1025F0007047000082B0019000910098807810BB75
:10260000FFE701980099097800EB4111D1F8000922
:1026100020F40010C1F800090098C078032805D004
:10262000FFE70098C07802280CD1FFE701980099D5
:10263000097800EB4111D1F8000940F08050C1F851
:102640000009FFE721E001980099097800EB4111AA
:10265000D1F8000B20F40010C1F8000B0098C078EE
:10266000032805D0FFE70098C07802280CD1FFE7C7
:1026700001980099097800EB4111D1F8000B40F066
:102680008050C1F8000BFFE7FFE702B07047000081
:1026900082B00190009100988078C8BBFFE7009855
:1026A0000178012000FA01F3019AD2F81C1899432D
:1026B000C2F81C180199009A127801EB4211D1F866
:1026C0000019B0EBD17F17D1FFE701980099097885
:1026D00000EB4111D1F8000940F08040C1F8000939
:1026E00001980099097800EB4111D1F8000940F0F8
:1026F0000060C1F80009FFE701980099097800EB34
:102700004111D1F8000920F40040C1F8000939E076
:1027100000980178012000FA01F3019AD2F81C1800
:1027200021EA0341C2F81C180199009A127801EBC2
:102730004211D1F8001BB0EBD17F17D1FFE7019810
:102740000099097800EB4111D1F8000B40F080406E
:10275000C1F8000B01980099097800EB4111D1F8FC
:10276000000B40F00060C1F8000BFFE701980099F2
:10277000097800EB4111D1F8000B20F40040C1F8BA
:10278000000BFFE702B0704782B0019000208DF887
:1027900003008DF80300FFE79DF8030007282DDCF8
:1027A000FFE79DF8030001992C2210FB021108732A
:1027B0009DF80300019910FB0211487301999DF8DF
:1027C000030010FB021100208873019B9DF8031089
:1027D00011FB02314861019B9DF8031011FB02318E
:1027E0000862019B9DF8031011FB02314862FFE76C
:1027F0009DF8030001308DF80300CDE700208DF82F
:102800000300FFE79DF80300072834DCFFE79DF88D
:10281000030001992C2210FB021181F86C019DF834
:102820000300019910FB021181F86D0101999DF8D7
:10283000030010FB0211012081F86E0101999DF83F
:10284000030010FB02110020C1F87401019B9DF8E8
:10285000031011FB0231C1F88001019B9DF80310A8
:1028600011FB0231C1F88401FFE79DF8030001303C
:102870008DF80300C6E702B07047000083B00290F5
:102880000191009200980299019A01EB4211C1F85E
:10289000080903B07047000085B0049003910498C4
:1028A000D0F8100801900498D0F8340800900098EF
:1028B0000399C84000F00101019840EAC11001905D
:1028C0000498039900EB4110D0F8080901990840D9
:1028D0000290029805B0704783B0029001910020E9
:1028E0008DF803000198007840BBFFE701988068ED
:1028F000402804D1FFE700208DF803001DE0019877
:102900008068202804D1FFE701208DF8030013E040
:1029100001988068102804D1FFE702208DF8030099
:1029200009E001988068082804D1FFE703208DF8AA
:102930000300FFE7FFE7FFE7FFE7FFE70198C07845
:10294000012808D1FFE70299D1F8040840F40040BB
:10295000C1F80408FFE701988078002862D1FFE7FA
:1029600001980178012000FA01F20299D1F81C08BF
:102970001043C1F81C080198007880B9FFE79DF862
:10298000032002980199097800EB4111D1F8000960
:1029900040F2FF7398431044C1F800090CE001991C
:1029A0008A680298097800EB4111D1F8000962F3B6
:1029B0000A00C1F80009FFE701980178C27802987F
:1029C00000EB4111D1F8000902F0030220F440208D
:1029D00040EA8240C1F8000901980278029800EBB1
:1029E0004211D1F8000902F00F0220F0707040EAA5
:1029F0008250C1F8000902980199097800EB411151
:102A0000D1F8000940F08050C1F8000902980199FE
:102A1000097800EB4111D1F8000940F40040C1F8F9
:102A2000000953E001980178012000FA01F20299AF
:102A3000D1F81C0840EA0240C1F81C08019800784F
:102A400080B9FFE79DF8032002980199097800EB0F
:102A50004111D1F8000B40F2FF7398431044C1F8C4
:102A6000000B0CE001998A680298097800EB41118B
:102A7000D1F8000B62F30A00C1F8000BFFE70198E0
:102A80000178C278029800EB4111D1F8000B02F0F6
:102A9000030220F4402040EA8240C1F8000B029873
:102AA0000199097800EB4111D1F8000B40F08050FA
:102AB000C1F8000B02980199097800EB4111D1F897
:102AC000000B40F40040C1F8000BFFE703B0704773
:102AD00083B002900191009200980299019A01EB53
:102AE0004211C1F8080B03B07047000083B0029098
:102AF00001910298019900EB4110D0F8080B009069
:102B000000980299D1F81418084003B070470000EB
:102B100082B0019000910098807820BBFFE7019877
:102B20000099097800EB4110D0F800190020B0EBB3
:102B3000D17F0CD1FFE701980099097800EB411192
:102B4000D1F8000920F08040C1F80009FFE70198A2
:102B50000099097800EB4111D1F8000940F4001008
:102B6000C1F8000923E001980099097800EB4110B1
:102B7000D0F8001B0020B0EBD17F0CD1FFE701980B
:102B80000099097800EB4111D1F8000B20F080404A
:102B9000C1F8000BFFE701980099097800EB41119B
:102BA000D1F8000B40F40010C1F8000BFFE702B0B1
:102BB0007047000082B001900020009001990869E0
:102BC00040F010000861FFE7019800690009C007A4
:102BD00060B1FFE70098411C009140F64151C0F2FE
:102BE0000301884201D3FFE700E0EDE702B0704740
:102BF00083B00290019100200090019A0299086927
:102C000002F01F0220F4F86040EA82100861029985
:102C1000086940F020000861FFE702980069400958
:102C2000C00760B1FFE70098411C009140F6415198
:102C3000C0F20301884201D3FFE700E0EDE703B0F3
:102C40007047000082B001900198D0F818080090F9
:102C500000980199D1F81C18084080B202B0704762
:102C600082B001900198D0F818080090009801995E
:102C7000D1F81C180840000C02B0704782B00190D7
:102C8000009100980199486102B0704782B00190AC
:102C9000019840690090009801998969084002B044
:102CA0007047000080B582B001904FF6FF70009031
:102CB0000199886B40F480308863FFE70098411EDB
:102CC000009108B1FFE7F9E7019800F01FF802B0A2
:102CD00080BD000082B00190ADF802108DF8012097
:102CE0009DF80100012807D1FFE7BDF802200199F6
:102CF00088691043886106E0BDF80220019988695F
:102D000090438861FFE702B07047000082B00190F5
:102D100000200090FFE7019801690020B0EBD17F0F
:102D20000CD1FFE70098411C009149F2E131C0F25B
:102D30000401884201D3FFE700E0ECE700200090A7
:102D40000199086940F001000861FFE701980069F6
:102D5000C00760B1FFE70098411C009149F2E131E2
:102D6000C0F20401884201D3FFE700E0EEE7012052
:102D700002B0704782B08DF803009DF8030001286F
:102D800005D1FFE70020C4F20400019003E04FF0FA
:102D9000A0400190FFE7019802B0704782B0019017
:102DA0000091009858B9FFE70199C86820F00050D9
:102DB000C8600199C86840F08040C860FFE700988B
:102DC00001280BD1FFE70199C86820F08040C86056
:102DD0000199C86840F00050C860FFE700980228D9
:102DE0000BD1FFE70199C86820F08040C8600199C5
:102DF000C86820F00050C860FFE702B070470000CC
:102E000080B588B007900691ADF81620079803901A
:102E100003984068406A0290069800780146019144
:102E200002280CD0FFE7019803280FD0FFE7019894
:102E3000042812D0FFE70198F02815D031E002985D
:102E4000407808B9FFE700E0FFE72BE00298407800
:102E500008B9FFE700E0FFE724E00298407808B9EE
:102E6000FFE700E0FFE71DE000200490FFE7049883
:102E7000BDF8161088420CD2FFE70698049A805CD1
:102E80000299114481F84000FFE704980130049052
:102E9000EDE7039802994031BDF81620FEF70EFECB
:102EA00000E0FFE708B080BD81B00090009988681D
:102EB00020F00100886001B07047000081B00090F0
:102EC0000099886840F00100886001B070470000F8
:102ED00081B000900099D1F8000E20F00100C1F8F7
:102EE000000E01B07047000086B005900491ADF867
:102EF0000E20ADF80C30BDF80C00033080080190B6
:102F00000498009000200290FFE7029801998842FF
:102F10000ED2FFE705984FF48051405800990860A1
:102F2000009804300090FFE7029801300290ECE72F
:102F300006B0704782B001908DF803109DF8032011
:102F40000199D1F8000802F07F0220F4FE6040EA07
:102F50000210C1F8000802B07047000082B0019072
:102F6000ADF80210BDF802000199486202B0704746
:102F700084B003908DF80B10ADF8082000208DF878
:102F8000070000900398406A00909DF80B0040B93C
:102F9000FFE70098BDF8081040EA014003998862F5
:102FA00030E00398816A009800EB11400090002007
:102FB0008DF80700FFE79DF807009DF80B10013919
:102FC000884212DAFFE703989DF8071000EB8100B2
:102FD000D0F80411009800EB11400090FFE79DF835
:102FE000070001308DF80700E5E70098BDF80810EC
:102FF00040EA014003999DF80B2001EB8201C1F8E2
:103000000001FFE704B0704781B000900099D1F84B
:10301000000E40F00100C1F8000E01B07047000042
:1030200081B000900098D0F8080800F0010001B0CD
:103030007047000080B588B0079006910798006837
:103040000590079A06982C2100FB01200C30049073
:1030500004998869C969401A039000200290039876
:1030600004998968884204D9FFE70498806803902E
:10307000FFE70398033080080290FFE70598069960
:1030800000EB4110D0F8180981B2029A0020914259
:1030900001900FD9FFE704988269C169002091422D
:1030A000019007D2FFE704988069002818BF01202B
:1030B0000190FFE70198C00738B3FFE704998869DA
:1030C000C969401A0390039804998968884204D911
:1030D000FFE7049880680390FFE7039803308008B7
:1030E0000290059804994969BDF81820BDF80C3084
:1030F00000F01CF8039A0499486910444861039A47
:103100000499C8691044C861B8E7039858B9FFE743
:103110000699012000FA01F20599D1F8340890438C
:10312000C1F83408FFE708B080BD000086B0059004
:103130000491ADF80E20ADF80C30BDF80C00033052
:10314000800801900498009000200290FFE7029808
:103150000199884212D2FFE7009800680599BDF8EE
:103160000E2001EB02314FF4805288500098043059
:103170000090FFE7029801300290E8E706B0704740
:1031800080B584B0039000208DF80B00039800F503
:1031900033700190039890F80803023801281BD877
:1031A000FFE701984088012815D1FFE70399002027
:1031B00081F80B030399D1F8140320F00200C1F841
:1031C0001403039841688A6800F5337190470398A7
:1031D00000F022FBFFE703E0039800F02DFBFFE780
:1031E0009DF80B0004B080BD80B584B003908DF8CD
:1031F0000B100398006800909DF80B000006002853
:103200000BD5FFE7039A9DF80B0000F07F002C21FF
:1032100010FB01200C3001900BE0039A9DF80B008D
:1032200000F07F002C2110FB012000F5B67001900A
:10323000FFE700980199FFF7DDF901990020487335
:1032400004B080BD80B582B0019001980068FFF79E
:1032500041F902B080BD000081B00090009890F864
:10326000080301B07047000080B588B007908DF862
:103270001B10079A9DF81B0000F07F002C2110FB0B
:1032800001200C3005909DF81B00002840F0808044
:10329000FFE7079890F80403022860D1FFE705983C
:1032A0008168406A88421FD9FFE705998A68486AA1
:1032B000801A4862079803900598816842690492D1
:1032C000406A884204D2FFE70598406A029003E012
:1032D000059880680290FFE7049A039802998BB2E0
:1032E000002100F00BFE39E005988168006A8842F1
:1032F0001FD1FFE705988168806A884219D3FFE7EC
:103300000598806A0799B1F80613884211D2FFE741
:103310000598002301930362079819461A4600F0A6
:10332000EDFD019B07989DF81B101A4600F054FD17
:1033300013E007984068C06858B1FFE7079890F815
:103340000803032805D1FFE707984168C968884743
:10335000FFE7079800F032FAFFE7FFE7FFE707987B
:1033600090F81C0398B1FFE7079890F81C230168B8
:10337000D1F8040802F0070220F0700040EA0210C1
:10338000C1F804080799002081F81C03FFE712E048
:1033900007984068406968B1FFE7079890F808030C
:1033A000032807D1FFE7079841684A699DF81B1079
:1033B0009047FFE7FFE708B080BD000080B58CB004
:1033C00084460E98CDF82CC00A91099208938DF886
:1033D0001F000A980B9908600A980690069800F555
:1033E000006005900698806C00F0C00001900B9979
:1033F000012081F808039DF81F0040B9FFE70198FC
:1034000028B1FFE70B99002081F8050304E00B9930
:10341000012081F80503FFE70B99002081F80A03DA
:1034200009990B9A516008990B9A91600B9981F850
:103430001C030B9800F062FA0B98FFF7A5F90698A9
:10344000FFF732FD0698FFF72DFC0B98D0F8180314
:10345000012809D1FFE7019830B1FFE70699886894
:1034600040F02600886004E00B990020C1F81803A2
:10347000FFE706980021FFF791FC1920FFF76CF891
:103480000B980068FFF724FD0599086820F4C050E8
:1034900008609DF81F0048B9FFE7019830B1FFE7C9
:1034A0000599086820F00300086011E00198C02821
:1034B00007D1FFE705990868012262F3010008605F
:1034C00005E00599086840F003000860FFE7FFE7A2
:1034D00006981021FFF78CFB0698FFF76BFB059908
:1034E0004FF0FF30886105990020C8610599086197
:1034F000059948610290FFE7029807280CD8FFE77A
:103500000698029900EB81010020C1F80401FFE751
:10351000029801300290EFE70B9800F0B7FD002011
:103520000290FFE7029807282BD8FFE70698029938
:1035300000EB411000F51060049004980168002031
:10354000B0EBD17F0ED0FFE704990020086004990A
:10355000086840F0804008600499086840F0006006
:10356000086003E0049900200860FFE70499002048
:1035700008610499FF208860FFE7029801300290FB
:10358000D0E700200290FFE7029807282BD8FFE73A
:103590000698029900EB411000F530600390039803
:1035A00001680020B0EBD17F0ED0FFE70399002027
:1035B00008600399086840F0804008600399086833
:1035C00040F00060086003E0039900200860FFE716
:1035D0000399002008610399FF208860FFE70298A3
:1035E00001300290D0E70599086940F480700861C5
:1035F00006990020886106996FF08040486106991D
:1036000043F60C00C8F23C0088610B98D0F8180310
:1036100018B1FFE7019830B9FFE70699886940F0D3
:1036200010008861FFE70B98FFF70CFE0698FFF784
:1036300045FC00200CB080BD80B588B007908DF8A7
:103640001B10079A9DF81B0000F07F002C2110FB37
:10365000012000F5B67005909DF81B0000283FD1B1
:10366000FFE7079890F80403032838D1FFE705988F
:103670008168406A884223D9FFE705998A68486AC9
:10368000801A4862079802909DF81B0003900598E5
:10369000816842690492406A884204D2FFE7059833
:1036A000406A019003E0059880680190FFE7049A62
:1036B00002980399019BC9B29BB200F08DFB0DE00B
:1036C00007984068006928B1FFE7079841680969D1
:1036D0008847FFE7079800F09FF8FFE7FFE712E051
:1036E00007984068806968B1FFE7079890F8080379
:1036F000032807D1FFE7079841688A699DF81B10E6
:103700009047FFE7FFE708B080BD000080B584B0B8
:1037100003908DF80B10039901F5337001F53571A5
:1037200001F0C2FB0399012081F804030399B1F869
:10373000D202A1F80603039890F8CC0200F01F0013
:103740000146019140B1FFE70198012808D0FFE749
:103750000198022808D00BE0039800F07BF80BE0FA
:10376000039800F09FFF07E0039800F0D1F803E012
:10377000039800F061F8FFE704B080BD80B584B025
:1037800003900291ADF80620039800F5B670009002
:10379000BDF8060000998862BDF8060000994862ED
:1037A0000399032081F804030398029ABDF80630B8
:1037B000002100F011FB04B080BD000080B582B094
:1037C00001900199052081F804030198002319460E
:1037D0001A4600F001FB02B080BD000080B584B045
:1037E00003900291ADF8062003980C300090BDF8CC
:1037F000060000998862BDF80600009948620399A6
:10380000022081F804030398029ABDF806300021D3
:1038100000F074FB04B080BD80B582B001900199C6
:10382000042081F804030198002319461A4600F089
:1038300065FB02B080BD000080B582B001900198A8
:10384000002101F003FB0198802101F0FFFA02B092
:1038500080BD000080B586B0049000208DF80F0078
:10386000049800F5337002900298007810F0600F11
:103870000BD0FFE7049841688A6800F533719047E0
:103880009DF80F008DF8170033E0049890F8CD02F2
:1038900001460191092823D80199DFE801F00509C3
:1038A000210D21111521191D049800F0A9FD1BE01F
:1038B0000498FFF765FC17E0049801F059FA13E04B
:1038C000049801F06BF90FE0049800F09BFC0BE00A
:1038D000049800F05DFC07E0049801F0A7F903E00C
:1038E0000498FFF7A9FFFFE79DF80F008DF8170078
:1038F000FFE79DF8170006B080BD000080B582B0DC
:10390000019001980068FEF72FFE02B080BD000014
:1039100080B58AB0089000208DF81F00089800F547
:1039200033700690069880888DF817000698007806
:1039300010F0600F0BD0FFE7089841688A6800F527
:10394000337190479DF81F008DF8270009E1069814
:1039500040780146039148B1FFE70398012879D0E8
:10396000FFE70398032800F0B080F1E0089890F892
:10397000080301460291022804D0FFE702980328B9
:1039800032D062E09DF81700400630B1FFE708989A
:103990009DF8171001F05AFAFFE79DF8170000068E
:1039A00000280BD5FFE7089A9DF8170000F07F006C
:1039B0002C2110FB01200C3004900BE0089A9DF89C
:1039C000170000F07F002C2110FB012000F5B670DD
:1039D0000490FFE7049900200861089804991031C9
:1039E0000222FFF7FBFE34E09DF8170000060028D6
:1039F0000BD5FFE7089A9DF8170000F07F002C21F7
:103A000010FB01200C3004900BE0089A9DF8170081
:103A100000F07F002C2110FB012000F5B67004900F
:103A2000FFE70498407B012804D1FFE704990120B7
:103A3000086103E0049900200861FFE708980499F1
:103A400010310222FFF7CAFE03E00898FFF7F4FEE8
:103A5000FFE781E0089890F80803014601910228E9
:103A600004D0FFE70198032810D029E09DF8170043
:103A700058B1FFE79DF81700802806D0FFE70898A7
:103A80009DF8171001F0E2F9FFE71DE00698408865
:103A9000A8B9FFE79DF81700400660B1FFE7089856
:103AA0009DF81710FFF7A0FB089841688A6800F599
:103AB00033719047FFE70898FFF7AEFEFFE703E09A
:103AC0000898FFF7B9FEFFE746E0089890F808036A
:103AD00001460091022804D0FFE70098032814D083
:103AE00031E09DF8170058B1FFE79DF817008028D6
:103AF00006D0FFE708989DF8171001F0A7F903E03A
:103B00000898FFF799FEFFE721E00698408880B902
:103B1000FFE79DF8170058B1FFE79DF817008028D0
:103B200006D0FFE708989DF8171001F08FF9FFE71E
:103B3000FFE7089841688A6800F533719047089854
:103B4000FFF76AFE03E00898FFF776FEFFE703E061
:103B50000898FFF771FEFFE79DF81F008DF827001A
:103B6000FFE79DF827000AB080BD000080B582B055
:103B7000019001980068FFF753FA012805D1FFE78B
:103B800001980068FFF740FAFFE702B080BD00002F
:103B900080B586B005900598006804900498D0F828
:103BA00008084008800758B9FFE70599002081F808
:103BB00005030499C868092262F38D20C8600AE0F1
:103BC0000599012081F805030499C868052262F36C
:103BD0008D20C860FFE705980021029100F026F8CB
:103BE00005988021019100F021F8029A0598402360
:103BF0000393114600F0B2F80199029A039B0598CD
:103C000000F0ACF80498FEF7BBFC0599012081F8A0
:103C1000080305984068406828B1FFE705984168A7
:103C200049688847FFE706B080BD000080B584B0D2
:103C300003908DF80B109DF80B00000600280BD5A3
:103C4000FFE7039A9DF80B0000F07F002C2110FB8A
:103C500001200C3001900BE0039A9DF80B0000F05E
:103C60007F002C2110FB012000F5B6700190FFE7CA
:103C7000039800680199FEF70BFD04B080BD0000B9
:103C800080B586B005908DF81310059800680390F4
:103C90004FF6FF7002909DF8130000F07F008DF842
:103CA000070003989DF8071000EB4110D0F80019A9
:103CB0000120B0EBD17F4ED1FFE703989DF80710AC
:103CC00000EB4110D0F80009C00BC007002842D01B
:103CD000FFE703989DF8071000EB4111D1F80009A8
:103CE00040F00060C1F8000903989DF8071000EB50
:103CF0004111D1F8000940F08040C1F80009039853
:103D00009DF8071000EB4111D1F8000940F0006068
:103D1000C1F80009FFE703989DF8071000EB411078
:103D2000D0F80009810F0020C907009041B1FFE7DA
:103D30000298411E0291002818BF01200090FFE761
:103D40000098C00708B1FFE7E5E705989DF8071060
:103D500000F00EFAFFE706B080BD000080B584B029
:103D600003908DF80B108DF80A20ADF808300398F9
:103D7000006801909DF80B00000600280FD4FFE7B3
:103D8000039A9DF80B0000F07F002C2110FB01200E
:103D900000F5B67000900099012088700DE0039A3C
:103DA0009DF80B0000F07F002C2110FB01200C304F
:103DB0000090009900208870FFE7BDF80800009986
:103DC00088609DF80A000099C87001980099FEF774
:103DD00083FD04B080BD000089B008908DF81F10ED
:103DE0000692ADF81630089800680490089A9DF87D
:103DF0001F0000F07F002C2110FB012000F5B670A1
:103E0000039004980399097800EB411000F53060A5
:103E10000290049800F500600190069803994861AB
:103E2000BDF816000399886103990020C8619DF8C8
:103E30001F00400648B9FFE7BDF81600012804DB63
:103E4000FFE7039988688861FFE70398806928B1D4
:103E5000FFE79DF81F00400670B9FFE703988268EE
:103E60000299086962F31200086102990869012247
:103E700062F3DC4008611CE00398816880690844B3
:103E80000138B0FBF1F0009003988068009900FBC6
:103E900001F20299086962F312000861009A02991E
:103EA00008696FF39F226FF3DC4040EAC24008616B
:103EB000FFE70398C078012813D1FFE701988068D5
:103EC000000AC00730B9FFE70299086840F00050C7
:103ED000086005E00299086840F080500860FFE73C
:103EE000FFE70299086840F080600860029908685E
:103EF00040F00040086009B07047000080B58AB00B
:103F000009908DF823100792ADF81A3009980068CF
:103F10000590099A9DF8230000F07F002C2110FBEA
:103F200001200C30049005980499097800EB4110A9
:103F300000F510600390059800F500600290099864
:103F40009DF82310FFF79CFE079804994861BDF87F
:103F50001A000499886104990020C8610498806956
:103F600060B9FFE703990869012262F3DC40086148
:103F7000039908696FF31200086146E09DF8230079
:103F80004006D8B9FFE7049881688069884204D95F
:103F9000FFE7049988688861FFE7049882690399BC
:103FA000086962F31200086103990869012262F34B
:103FB000DC40086104998869086225E004988168FA
:103FC000806908440138B0FBF1F0019004988269DF
:103FD0000399086962F312000861019A039908695C
:103FE0006FF39F226FF3DC4040EAC24008610498FF
:103FF000C078012807D1FFE703990869012262F31D
:104000005E700861FFE7FFE7FFE70498C0780128CA
:1040100013D1FFE702988068000AC00730B9FFE7B4
:104020000399086840F00050086005E003990868AB
:1040300040F080500860FFE7FFE70399086840F010
:10404000806008600399086840F0004008600498A8
:10405000C07801280FD0FFE70498806950B1FFE7CE
:1040600004980178012000FA01F20299486B10438C
:104070004863FFE707E00598049B59691A781B8B92
:10408000FFF754F8FFE70AB080BD000080B586B0A6
:1040900005900598006804900498B0F1A04F2ED1C7
:1040A000FFE704988021FEF759FF049800211822A9
:1040B000FEF75EFF0498012114220392FEF758FFD9
:1040C000039A04980221FEF753FF039A04980321F0
:1040D000FEF74EFF039A04980421FEF749FF039A66
:1040E00004980521FEF744FF039A04980621FEF781
:1040F0003FFF039A04980721FEF73AFFFFE7049871
:104100000021C4F20401884230D1FFE704984FF443
:104110007071FEF723FF0498002102912022019282
:10412000FEF726FF019A04980121FEF721FF029A6B
:1041300004980221FEF71CFF029A04980321FEF75F
:1041400017FF029A04980421FEF712FF029A0498BE
:104150000521FEF70DFF029A04980621FEF708FFDD
:10416000029A04980721FEF703FFFFE706B080BD1F
:1041700080B582B001908DF80310019800689DF819
:10418000031001F01F01FEF733FD02B080BD0000F7
:1041900080B584B0039000208DF80B00039800F5E3
:1041A000337001900198C088012804D0FFE703987C
:1041B000FFF742FB22E0039890F8080301460091C4
:1041C000022804D0FFE7009803280BD011E00399E0
:1041D0000020C1F80C03039800F543710122FFF79A
:1041E000FDFA0AE0039800F544710122FFF7F6FAA0
:1041F00003E00398FFF720FBFFE7FFE79DF80B00C4
:1042000004B080BD80B588B0069000208DF81700FE
:10421000ADF814000490069890F8CF028DF80F00C6
:104220009DF80F00013801460291062800F29A809D
:104230000299DFE801F0040A1C979773830006983F
:10424000806800688047049094E0069890F8050321
:1042500030B9FFE706988068806A8047049005E0DF
:1042600006988068806880470490FFE782E006989F
:1042700090F8CE028DF80E009DF80E0001460191D7
:10428000C0B1FFE7019801281AD0FFE70198022882
:104290001CD0FFE7019803281ED0FFE701980428EF
:1042A00020D0FFE70198052822D0FFE70198EE28EB
:1042B00024D027E0069880680069804704902CE0AD
:1042C0000698806840698047049026E006988068D8
:1042D00080698047049020E006988068C069804724
:1042E00004901AE006988068406A8047049014E0C1
:1042F00006988068006A804704900EE00698FFF7F1
:104300009BFA0AE0069841688A6800F53371904785
:104310009DF817008DF81F005AE02BE0069890F8E2
:10432000050330B9FFE7069880684068804704902D
:1043300003E00698FFF780FAFFE71BE0069890F885
:10434000050350B9FFE706988068C068804704906D
:10435000049841680720487003E00698FFF76CFA5C
:10436000FFE707E00698FFF767FA9DF817008DF85A
:104370001F002DE0049830B3FFE70498008808B3CD
:10438000FFE70698B0F8D202E0B1FFE70498008892
:104390000699B1F8D212884204DAFFE7049800883F
:1043A000009004E00698B0F8D2020090FFE7009871
:1043B000ADF81400069804994968BDF81420FFF779
:1043C0000DFAFFE7FFE79DF817008DF81F00FFE7E4
:1043D0009DF81F0008B080BD83B002908DF80710D3
:1043E000029A9DF8070000F07F002C2110FB0120AD
:1043F00000F5B67000900098C06903B070470000E7
:1044000080B582B0019000208DF80300019890F8EB
:1044100008030238012814D8FFE7019890F80B032D
:1044200040B1FFE70199D1F8140340F00200C1F850
:104430001403FFE7019800F545710222FFF7CEF95A
:1044400003E00198FFF7F8F9FFE79DF8030002B0D9
:1044500080BD000080B582B0019001984068006A7C
:1044600030B1FFE7019841680A6A05219047FFE7EC
:1044700002B080BD80B582B0019001984068006AAA
:1044800030B1FFE7019841680A6A06219047FFE7CB
:1044900002B080BD80B586B0059005980068049094
:1044A000002003900498FEF7CDFB0190FFE70198F0
:1044B000002867D0FFE79DF80400C00700285AD005
:1044C000FFE704980399FEF7E7F902909DF80800CA
:1044D000C007A0B1FFE70398012202FA00F3049994
:1044E000D1F834089843C1F8340804980399FEF7CA
:1044F000C5F905989DF80C10FEF7B6FEFFE79DF88C
:1045000008000007002806D5FFE704980399082251
:10451000FEF7B4F9FFE79DF80800C006002806D5AD
:10452000FFE7049803991022FEF7A8F9FFE79DF82A
:1045300008004006002806D5FFE7049803994022AA
:10454000FEF79CF9FFE79DF808008007002806D5D4
:10455000FFE7049803990222FEF790F9FFE79DF820
:1045600008000006002805D5FFE705980399FEF727
:1045700061FDFFE7FFE703980130039001984008D1
:10458000019094E706B080BD80B586B0DDF820C00C
:1045900005908DF813108DF81220039300208DF8EC
:1045A0000B009DF81200FEF7E5FB059908600598E1
:1045B0009DF81310FDF79AFF059890F82F0338B176
:1045C000FFE705980168886B40F480108863FFE777
:1045D000059890F8310338B1FFE705980168886BBA
:1045E00040F400108863FFE7059890F8250328B190
:1045F000FFE705990120C1F81C0304E0059900209C
:10460000C1F81C03FFE7059850F8041B039A089BA8
:104610009DF813C0EE46CEF800C0FEF7CFFE9DF821
:104620000B0006B080BD000083B0029001918DF8B0
:10463000032000208DF802008DF80200FFE79DF8AE
:1046400002009DF80310884229DAFFE70298000F64
:10465000092809D8FFE70298000F303001999DF82A
:10466000022001F8120009E00299372000EB1170D6
:1046700001999DF8022001F81200FFE7029800015D
:10468000029001989DF8021000EB41010020487053
:10469000FFE79DF8020001308DF80200CFE703B07C
:1046A0007047000080B584B0039000208DF80B00A7
:1046B000039800F533700190039890F808030138CF
:1046C000022815D8FFE7039841688A6800F533711E
:1046D00090478DF80B000198C08840B9FFE79DF81E
:1046E0000B0020B9FFE70398FFF796F8FFE703E018
:1046F0000398FFF7A1F8FFE79DF80B0004B080BD19
:1047000080B584B003900398006802900398043049
:1047100001900298FEF7BAFA009002984069C0072B
:10472000002840F09380FFE79DF8000080070028F4
:1047300005D5FFE702980221FEF7A0FAFFE79DF8F2
:104740000000C006002804D5FFE7019800F0CCF96E
:10475000FFE79DF802004007002804D5FFE7019815
:10476000FFF798FEFFE79DF802000007002804D538
:10477000FFE7019800F06CF8FFE79DF80100C00624
:10478000002809D5FFE7019800F014F902984FF4CA
:104790008051FEF773FAFFE79DF80000000700283C
:1047A00008D5FFE7019800F0A1FB02980821FEF769
:1047B00065FAFFE79DF801008006002809D5FFE7AC
:1047C0000198FFF7E5F902984FF40051FEF756FA09
:1047D000FFE79DF80200C006002809D5FFE7019811
:1047E000FFF738FE02984FF48011FEF747FAFFE713
:1047F0009DF802008006002809D5FFE70198FFF721
:1048000039FE02984FF40011FEF738FAFFE79DF8E1
:1048100003000006002809D5FFE7019800F0D8FB47
:1048200002984FF00041FEF729FAFFE79DF80100DA
:104830000007002809D5FFE7019800F067FB029800
:104840004FF40061FEF71AFAFFE7FFE704B080BDFE
:1048500080B586B00590059800680490002003900C
:104860000498FEF7FDF90190FFE70198002800F099
:104870009E80FFE79DF80400C007002800F09080AC
:10488000FFE704980399FEF731F902909DF80800BC
:10489000C00718B3FFE7049803990122FEF718F93F
:1048A0000498039900EB4110D0F8080B009003988E
:1048B00070B9FFE7059A03982C2100FB0120D0F87E
:1048C000840128B9FFE705980068FDF76DFEFFE752
:1048D00005989DF80C10FEF7AFFEFFE79DF8080065
:1048E0000007002837D5FFE7049803990822FEF750
:1048F000EFF80498039900EB4110D0F8080B0090F2
:104900009DF801000006002807D5FFE704980399E9
:104910004FF40042FEF7DCF8FFE705989DF80C1015
:10492000FEF7F4FE059890F80A0398B1FFE70598A2
:1049300090F80A230168D1F8000802F07F0220F401
:10494000FE6040EA0210C1F800080599002081F8D5
:104950000A03FFE7FFE79DF80800C006002806D518
:10496000FFE7049803991022FEF7B2F8FFE79DF8DD
:1049700008008006002806D5FFE704980399202246
:10498000FEF7A6F8FFE79DF808008007002806D587
:10499000FFE7049803990222FEF79AF8FFE7FFE782
:1049A0000398013003900198400801905DE706B03C
:1049B00080BD000080B586B0059005980068049021
:1049C000049800F500600390002001900290039984
:1049D000486820F0010048600598FFF757FB0498ED
:1049E0001021FEF705F901980290FFE702980728C9
:1049F0003BD8FFE70498029900EB41114FF6FF7096
:104A0000C1F808090499029A01EB4212D2F8001980
:104A100021F40011C2F800190499029A01EB421224
:104A2000D2F8001941F00061C2F800190499029A05
:104A300001EB4211C1F8080B0498029900EB4111F7
:104A4000D1F8000B20F40010C1F8000B0498029973
:104A500000EB4111D1F8000B40F00060C1F8000BF1
:104A6000FFE7029801300290C0E703994FF0FF3052
:104A7000886103994FF00110C8610399486940F0BB
:104A8000010048610399486940F0020048610399B8
:104A9000486940F0080048610399086940F0010046
:104AA00008610399086940F00200086103990869E8
:104AB00040F00800086104980021FEF73BFA0498D2
:104AC000FDF772FD0599012081F8080305984068FB
:104AD000006A30B1FFE7059841680A6A01219047F2
:104AE000FFE706B080BD000080B586B00590059850
:104AF00000680490049810210022FEF7EBF8049857
:104B0000006A03900398C0F30A1002900398C0F360
:104B100043400190059A039800F00F002C2110FBF0
:104B2000012000F5B67000900198022819D1FFE726
:104B30000298A8B1FFE7049800994969039A02F026
:104B40000F02BDF80830FEF7CFF9029A00994869C4
:104B500010444861029A0099C8691044C861FFE78F
:104B600015E00198062811D1FFE70498059901F591
:104B70003571039A02F00F02BDF80830FEF7B4F960
:104B8000029A0099C8691044C861FFE7FFE70498DA
:104B900010210122FEF79EF806B080BD80B584B0DA
:104BA000039000208DF80B00039800F533700190FE
:104BB0000198808888BBFFE70198C08868BBFFE741
:104BC0000198807800F07F008DF80300039890F83A
:104BD0000803032804D1FFE70398FEF72DFE1BE02E
:104BE0009DF80300039981F80A03039890F80A13CB
:104BF00000F0B0F89DF8030028B1FFE70399022008
:104C000081F8080304E00399012081F80803FFE715
:104C10000398FEF701FEFFE703E00398FEF70CFEA2
:104C2000FFE79DF80B0004B080BD000080B584B0A4
:104C3000039000208DF80B00039800F5337001906D
:104C40000198807840F29871C2F2000108700198D2
:104C50008088002876D1FFE70198C088002871D1AC
:104C6000FFE7039890F8080301460091022804D05A
:104C7000FFE70098032820D05FE040F29870C2F26E
:104C800000000078A0B1FFE740F29870C2F2000087
:104C900000780399C1F810030399032081F80803F1
:104CA00003984168096888470398FEF7B5FD03E05B
:104CB0000398FEF7B1FDFFE743E040F29870C2F2BF
:104CC00000000078A0B9FFE70399022081F80803EB
:104CD00040F29870C2F2000000780399C1F8100306
:104CE00003984168496888470398FEF795FD23E0DB
:104CF00040F29870C2F2000000780399D1F81013C6
:104D0000884214D0FFE7039841684968884740F219
:104D10009870C2F2000000780399C1F8100303985C
:104D20004168096888470398FEF776FD03E0039819
:104D3000FEF772FDFFE7FFE703E00398FEF77CFD57
:104D4000FFE703E00398FEF777FDFFE79DF80B0010
:104D500004B080BD80B582B001908DF80310019839
:104D600000689DF80310FEF7E5F802B080BD000072
:104D700080B586B0049000208DF80F00049800F5EF
:104D8000337002900298408801280ED1FFE7049901
:104D9000012081F80B03049841688A6800F533719B
:104DA00090470498FEF738FD47E0029840880228B3
:104DB0003ED1FFE702980079002839D1FFE7029839
:104DC000407901380146019104281ED80199DFE895
:104DD00001F003080D1217000499012081F81C034B
:104DE00022E00499022081F81C031DE004990320AD
:104DF00081F81C0318E00499042081F81C0313E0D7
:104E00000499052081F81C030EE00499002081F824
:104E10001C0303208DF80F000498FEF70DFD9DF88C
:104E20000F008DF817000DE00498FEF7F5FC03E085
:104E30000498FEF701FDFFE7FFE79DF80F008DF8EE
:104E40001700FFE79DF8170006B080BD80B584B05D
:104E500003908DF80B100398006800909DF80B00EC
:104E6000000600280BD5FFE7039A9DF80B0000F021
:104E70007F002C2110FB01200C3001900BE0039AE5
:104E80009DF80B0000F07F002C2110FB012000F5A5
:104E9000B6700190FFE700980199FDF739FE01997E
:104EA0000120487304B080BD82B001900091009849
:104EB000007801990870009840780199487000992D
:104EC0008878C97840EA01200199488000990879DA
:104ED000497940EA01200199888000998879C97947
:104EE00040EA01200199C88002B0704780B582B0C5
:104EF000019001984068C06928B1FFE701984168B6
:104F0000C9698847FFE702B080BD000080B582B064
:104F100001900198006800900098D0F80808C00738
:104F2000C0B1FFE7019991F8080381F809030199DD
:104F3000042081F808030198FEF718FE01984068E4
:104F4000006A30B1FFE7019841680A6A0221904780
:104F5000FFE7FFE702B080BD84B00390029100201C
:104F6000ADF806000220ADF8040003980090FFE7BA
:104F700000980078C8B1FFE7BDF806000130ADF831
:104F800006000098411C009100780299BDF80420A9
:104F9000531CADF8043088540299BDF80420501C0D
:104FA000ADF8040000208854E2E7BDF806100220A6
:104FB00000EB4100ADF806009DF80600029908706C
:104FC000029903204870BDF8060004B07047000045
:104FD00080B582B001900198006800900099D1F8E6
:104FE000040820F00100C1F8040801980068FDF7EA
:104FF0006FFF019991F8090381F80803019840684F
:10500000006A30B1FFE7019841680A6A03219047BE
:10501000FFE702B080BD000080B582B0019000F0D3
:10502000B1FA00900198013020B1FFE701980130FA
:105030000190FFE7FFE700F0A5FA0099401A0199F7
:10504000884201D2FFE7F6E702B080BD80B58CB0A0
:105050000AA80990FCF72EFE0020C4F20200059079
:105060004FF400410191FCF711FE40F20040C4F200
:10507000020006904FF484710391FCF707FE019B38
:1050800005980999022204928DF82F200022089297
:105090008DF82C204FF0010CCDF808C08DF82EC0F3
:1050A0000A938DF82D20FCF717FEDDF808C0039B4E
:1050B0000698089A0999DDF810E08DF82FE08DF830
:1050C0002C208DF82EC00A938DF82D20FCF704FEBD
:1050D0000598089A0999032307938DF82E3041F615
:1050E00009030A938DF82D20FCF7F6FD0698079B1F
:1050F000089A09998DF82E30D4230A938DF82D2023
:10510000FCF7EAFD079A089809998DF82E204FF4CC
:1051100000620A928DF82D0041F20040C4F20200B4
:10512000FCF7DAFD0CB080BD80B582B00320FCF73F
:10513000E3FEFBF71FFF002201921146FBF746FC3E
:1051400001466FF00B00FBF725FFFBF713FF019AF9
:105150001146FBF73BFC01466FF00A00FBF71AFF14
:10516000FBF708FF019A1146FBF730FC01466FF090
:105170000900FBF70FFFFBF7FDFE019A1146FBF755
:1051800025FC01466FF00400FBF704FFFBF7F2FE7D
:10519000019A1146FBF71AFC01466FF00300FBF77A
:1051A000F9FEFBF7E7FE019A1146FBF70FFC0146FB
:1051B0006FF00100FBF7EEFEFBF7DCFE019A0F211A
:1051C000FBF704FC01464FF0FF30FBF7E3FE019ACA
:1051D0004D201146FCF776FE02B080BD80B540F24E
:1051E0006040C2F20000FFF78BFA80BD80B582B04C
:1051F0004FF4401001210191FCF76CFB0199012053
:10520000C0F23000FCF766FB01990520C0F23000C7
:10521000FCF760FB01991D20C0F23000FCF75AFB3F
:1052200001990120C0F23800FCF754FB01990C20D1
:10523000C0F24400FCF74EFB02B080BD80B58AB0DE
:1052400008A80490FCF736FD40F20040C4F20200CA
:105250000090012107910B220192FCF7B1FD00980B
:105260000499022302938DF82730002205928DF8CD
:1052700024208DF8263008938DF82520FCF72CFD8E
:10528000019A02990020C4F202000390FCF798FDF5
:10529000029B03980499059A8DF827308DF82420F5
:1052A0008DF82630042308938DF82520FCF714FD93
:1052B0000098019A0599FCF783FD0098DDF808C075
:1052C0000499059A079B8DF827C08DF824208DF846
:1052D00026C008938DF82520FCF7FEFC019A039860
:1052E0000721FCF76DFD029B03980499059A8DF840
:1052F00027308DF824208DF82630802308938DF8F0
:105300002520FCF7E9FC039806210D22FCF758FD47
:10531000029B03980499059A8DF827308DF8242074
:105320008DF82630402308938DF82520FCF7D4FC17
:10533000019A03980799FCF743FD029B039804998F
:10534000059A8DF827308DF824208DF826300893A3
:105350008DF82520FCF7C0FC059941F20000CAF247
:1053600000000690FCF732FE06980321FCF7EAFDE8
:1053700005990698FCF718FE05990698FCF7D0FDEC
:105380000698FCF7C3FD05990698FCF7E9FD059919
:105390000698FCF7F7FD06980799FCF717FE0AB088
:1053A00080BD000080B58EB00CA80590FCF782FC93
:1053B0000AA80790FCF76CFE0020C4F202000490DB
:1053C000052202921146FCF7FBFC04980599022382
:1053D00003938DF83730002206928DF834208DF833
:1053E0003630202300930C938DF83520FCF774FCA5
:1053F000029A40F20040C4F2020001901146FCF70C
:10540000DFFC009B0198DDF80CC00599069A8DF829
:1054100037C08DF834208DF836C00C938DF83520C8
:10542000FCF75AFC029A04980421FCF7C9FC039B80
:1054300004980599069A8DF837308DF834208DF848
:10544000363010230C938DF83520FCF745FC069878
:10545000079903228DF82820012209928DF829202E
:105460008DF82C008DF82B000A228DF82A208DF85B
:105470002D008DF82E008DF82F0043F20000C4F2AD
:1054800001000890FCF748FE08980999FCF728FEEF
:1054900008980999FCF712FE0EB080BD80B584B063
:1054A000FCF794FA43F60041C4F202014FF4AB70EA
:1054B00008601C20C0F2400001210391FCF70AFAA9
:1054C000039947F21002C4F20002106840F0030092
:1054D00010600420FCF70EF8FFE70120C0F2740012
:1054E000FCF730F9012801D0FFE7F6E70121084673
:1054F000FCF700F8FFE7FCF745F908B9FFE7FAE722
:1055000000200121FBF7F6FFFFE70120FCF71AF965
:10551000012801D0FFE7F8E700206C210122029268
:1055200002230193FCF700FA0520FCF73BFA0198EF
:105530000299FBF7DFFFFFE71920FCF703F90128C9
:1055400001D0FFE7F8E70020FBF776FF042000908A
:10555000FBF7A0FF0098FBF789FF0120FBF7AEFFE8
:105560000220FCF78DFAFFE7FCF7A0FA022801D031
:10557000FFE7F9E70020FBF7A1FFFCF7C9FE04B045
:1055800080BD000040F29470C2F2000000687047D5
:1055900080B500F001F880BD40F29471C2F20001C4
:1055A000086801300860704780B586B00020009020
:1055B000019002A8FBF7F2FF00980399C908019136
:1055C000FCF76CFF0098019944F6D352C1F26202D5
:1055D000A1FB02124FF0FF3101EB92114EF21402C7
:1055E000CEF2000211604EF21801CEF20001086006
:1055F0004EF21001CEF20001086840F0030008608E
:1056000006B080BD80B582B040F24000C2F200001A
:105610006946086040F26040C2F2000040F21803A0
:10562000C2F2000300210122FEF7AEFF02B080BDEE
:10563000704700007047F1EE100A4FF6FF71C0F29C
:10564000C03120EA010040F04070E1EE100A7047DE
:105650000000000001020304000000000102030436
:1056600001020406080A0C0E10121416181A1C1E49
:105670000000000000000000010203040607080902
:10568000437573746F6D2048494400437573746F9C
:105690006D2048494420496E7465726661636500F7
:1056A000437573746F6D2048494420436F6E66697B
:1056B00067004172746572790001020406080A0CE1
:1056C0000E10121416181A1C1E0000000000000014
:1056D0000001020304060708090000000057000843
:1056E00000000020E00100004402000818580008F3
:1056F000E0010020C80B0000A40200080000000028
:10570000322922A82A20084B6801081A940813E5B8
:10571000111408F910140885121B086D0C1A2104C5
:105720001ABD041A39101325141B08810C135002DA
:105730001420551B1408091C1B0849081ACD041A0B
:1057400091041A9D041AD9041A15181A61081A1915
:10575000041A250C32121A545C320A1AC0081509B0
:105760002110014401227E071A040309041A0314BC
:1057700009022913010125E03209042A0229793E90
:105780001607058103402D0A07050107311306FF9F
:10579000100A0901A10185020902152809250175D0
:1057A00008953FB1820E9F91828503090314190E5B
:1057B00019149C04090414190E19143C0509051444
:1057C000101901818209057501B1827507818385F0
:1057D000057507B18385F00906151326FF29311BCE
:1057E00091020F7A070F248182C013120132021630
:1057F000403C2E45570E280201020301C00A2D0726
:10580000EC4B0A066C196311192E11228833201AE9
:085810001A8C081113127A0032
:04000005080001E10D
:00000001FF
